{
  "_format": "hh-sol-artifact-1",
  "contractName": "FVMMedicareNFT",
  "sourceName": "contracts/FVMMedicareNFT.sol",
  "abi": [
    {
      "inputs": [
        {
          "internalType": "string",
          "name": "_name",
          "type": "string"
        },
        {
          "internalType": "string",
          "name": "_symbol",
          "type": "string"
        }
      ],
      "stateMutability": "nonpayable",
      "type": "constructor"
    },
    {
      "anonymous": false,
      "inputs": [
        {
          "indexed": true,
          "internalType": "address",
          "name": "owner",
          "type": "address"
        },
        {
          "indexed": true,
          "internalType": "address",
          "name": "approved",
          "type": "address"
        },
        {
          "indexed": true,
          "internalType": "uint256",
          "name": "tokenId",
          "type": "uint256"
        }
      ],
      "name": "Approval",
      "type": "event"
    },
    {
      "anonymous": false,
      "inputs": [
        {
          "indexed": true,
          "internalType": "address",
          "name": "owner",
          "type": "address"
        },
        {
          "indexed": true,
          "internalType": "address",
          "name": "operator",
          "type": "address"
        },
        {
          "indexed": false,
          "internalType": "bool",
          "name": "approved",
          "type": "bool"
        }
      ],
      "name": "ApprovalForAll",
      "type": "event"
    },
    {
      "anonymous": false,
      "inputs": [
        {
          "indexed": true,
          "internalType": "address",
          "name": "from",
          "type": "address"
        },
        {
          "indexed": true,
          "internalType": "address",
          "name": "to",
          "type": "address"
        },
        {
          "indexed": true,
          "internalType": "uint256",
          "name": "tokenId",
          "type": "uint256"
        }
      ],
      "name": "Transfer",
      "type": "event"
    },
    {
      "inputs": [
        {
          "internalType": "address",
          "name": "to",
          "type": "address"
        },
        {
          "internalType": "uint256",
          "name": "tokenId",
          "type": "uint256"
        }
      ],
      "name": "approve",
      "outputs": [],
      "stateMutability": "nonpayable",
      "type": "function"
    },
    {
      "inputs": [
        {
          "internalType": "address",
          "name": "owner",
          "type": "address"
        }
      ],
      "name": "balanceOf",
      "outputs": [
        {
          "internalType": "uint256",
          "name": "",
          "type": "uint256"
        }
      ],
      "stateMutability": "view",
      "type": "function"
    },
    {
      "inputs": [
        {
          "internalType": "address",
          "name": "addr",
          "type": "address"
        },
        {
          "internalType": "string",
          "name": "uri",
          "type": "string"
        }
      ],
      "name": "createData",
      "outputs": [
        {
          "internalType": "uint256",
          "name": "",
          "type": "uint256"
        }
      ],
      "stateMutability": "nonpayable",
      "type": "function"
    },
    {
      "inputs": [
        {
          "internalType": "uint256",
          "name": "tokenId",
          "type": "uint256"
        }
      ],
      "name": "deleteData",
      "outputs": [],
      "stateMutability": "nonpayable",
      "type": "function"
    },
    {
      "inputs": [
        {
          "internalType": "uint256",
          "name": "tokenId",
          "type": "uint256"
        }
      ],
      "name": "getApproved",
      "outputs": [
        {
          "internalType": "address",
          "name": "",
          "type": "address"
        }
      ],
      "stateMutability": "view",
      "type": "function"
    },
    {
      "inputs": [
        {
          "internalType": "address",
          "name": "addr",
          "type": "address"
        }
      ],
      "name": "getTokenId",
      "outputs": [
        {
          "internalType": "uint256",
          "name": "",
          "type": "uint256"
        }
      ],
      "stateMutability": "view",
      "type": "function"
    },
    {
      "inputs": [
        {
          "internalType": "address",
          "name": "owner",
          "type": "address"
        },
        {
          "internalType": "address",
          "name": "operator",
          "type": "address"
        }
      ],
      "name": "isApprovedForAll",
      "outputs": [
        {
          "internalType": "bool",
          "name": "",
          "type": "bool"
        }
      ],
      "stateMutability": "view",
      "type": "function"
    },
    {
      "inputs": [
        {
          "internalType": "address",
          "name": "addr",
          "type": "address"
        }
      ],
      "name": "isTokenHolder",
      "outputs": [
        {
          "internalType": "bool",
          "name": "",
          "type": "bool"
        }
      ],
      "stateMutability": "view",
      "type": "function"
    },
    {
      "inputs": [],
      "name": "name",
      "outputs": [
        {
          "internalType": "string",
          "name": "",
          "type": "string"
        }
      ],
      "stateMutability": "view",
      "type": "function"
    },
    {
      "inputs": [
        {
          "internalType": "uint256",
          "name": "tokenId",
          "type": "uint256"
        }
      ],
      "name": "ownerOf",
      "outputs": [
        {
          "internalType": "address",
          "name": "",
          "type": "address"
        }
      ],
      "stateMutability": "view",
      "type": "function"
    },
    {
      "inputs": [
        {
          "internalType": "address",
          "name": "from",
          "type": "address"
        },
        {
          "internalType": "address",
          "name": "to",
          "type": "address"
        },
        {
          "internalType": "uint256",
          "name": "tokenId",
          "type": "uint256"
        }
      ],
      "name": "safeTransferFrom",
      "outputs": [],
      "stateMutability": "nonpayable",
      "type": "function"
    },
    {
      "inputs": [
        {
          "internalType": "address",
          "name": "from",
          "type": "address"
        },
        {
          "internalType": "address",
          "name": "to",
          "type": "address"
        },
        {
          "internalType": "uint256",
          "name": "tokenId",
          "type": "uint256"
        },
        {
          "internalType": "bytes",
          "name": "data",
          "type": "bytes"
        }
      ],
      "name": "safeTransferFrom",
      "outputs": [],
      "stateMutability": "nonpayable",
      "type": "function"
    },
    {
      "inputs": [
        {
          "internalType": "address",
          "name": "operator",
          "type": "address"
        },
        {
          "internalType": "bool",
          "name": "approved",
          "type": "bool"
        }
      ],
      "name": "setApprovalForAll",
      "outputs": [],
      "stateMutability": "nonpayable",
      "type": "function"
    },
    {
      "inputs": [
        {
          "internalType": "bytes4",
          "name": "interfaceId",
          "type": "bytes4"
        }
      ],
      "name": "supportsInterface",
      "outputs": [
        {
          "internalType": "bool",
          "name": "",
          "type": "bool"
        }
      ],
      "stateMutability": "view",
      "type": "function"
    },
    {
      "inputs": [],
      "name": "symbol",
      "outputs": [
        {
          "internalType": "string",
          "name": "",
          "type": "string"
        }
      ],
      "stateMutability": "view",
      "type": "function"
    },
    {
      "inputs": [
        {
          "internalType": "uint256",
          "name": "tokenId",
          "type": "uint256"
        }
      ],
      "name": "tokenURI",
      "outputs": [
        {
          "internalType": "string",
          "name": "",
          "type": "string"
        }
      ],
      "stateMutability": "view",
      "type": "function"
    },
    {
      "inputs": [],
      "name": "totalSupply",
      "outputs": [
        {
          "internalType": "uint256",
          "name": "",
          "type": "uint256"
        }
      ],
      "stateMutability": "view",
      "type": "function"
    },
    {
      "inputs": [
        {
          "internalType": "address",
          "name": "from",
          "type": "address"
        },
        {
          "internalType": "address",
          "name": "to",
          "type": "address"
        },
        {
          "internalType": "uint256",
          "name": "tokenId",
          "type": "uint256"
        }
      ],
      "name": "transferFrom",
      "outputs": [],
      "stateMutability": "nonpayable",
      "type": "function"
    }
  ],
  "bytecode": "0x60806040523480156200001157600080fd5b506040516200388038038062003880833981810160405281019062000037919062000227565b818181600090816200004a9190620004f7565b5080600190816200005c9190620004f7565b5050506200007660076200007e60201b62000b1d1760201c565b5050620005de565b6001816000016000828254019250508190555050565b6000604051905090565b600080fd5b600080fd5b600080fd5b600080fd5b6000601f19601f8301169050919050565b7f4e487b7100000000000000000000000000000000000000000000000000000000600052604160045260246000fd5b620000fd82620000b2565b810181811067ffffffffffffffff821117156200011f576200011e620000c3565b5b80604052505050565b60006200013462000094565b9050620001428282620000f2565b919050565b600067ffffffffffffffff821115620001655762000164620000c3565b5b6200017082620000b2565b9050602081019050919050565b60005b838110156200019d57808201518184015260208101905062000180565b60008484015250505050565b6000620001c0620001ba8462000147565b62000128565b905082815260208101848484011115620001df57620001de620000ad565b5b620001ec8482856200017d565b509392505050565b600082601f8301126200020c576200020b620000a8565b5b81516200021e848260208601620001a9565b91505092915050565b600080604083850312156200024157620002406200009e565b5b600083015167ffffffffffffffff811115620002625762000261620000a3565b5b6200027085828601620001f4565b925050602083015167ffffffffffffffff811115620002945762000293620000a3565b5b620002a285828601620001f4565b9150509250929050565b600081519050919050565b7f4e487b7100000000000000000000000000000000000000000000000000000000600052602260045260246000fd5b60006002820490506001821680620002ff57607f821691505b602082108103620003155762000314620002b7565b5b50919050565b60008190508160005260206000209050919050565b60006020601f8301049050919050565b600082821b905092915050565b6000600883026200037f7fffffffffffffffffffffffffffffffffffffffffffffffffffffffffffffffff8262000340565b6200038b868362000340565b95508019841693508086168417925050509392505050565b6000819050919050565b6000819050919050565b6000620003d8620003d2620003cc84620003a3565b620003ad565b620003a3565b9050919050565b6000819050919050565b620003f483620003b7565b6200040c6200040382620003df565b8484546200034d565b825550505050565b600090565b6200042362000414565b62000430818484620003e9565b505050565b5b8181101562000458576200044c60008262000419565b60018101905062000436565b5050565b601f821115620004a75762000471816200031b565b6200047c8462000330565b810160208510156200048c578190505b620004a46200049b8562000330565b83018262000435565b50505b505050565b600082821c905092915050565b6000620004cc60001984600802620004ac565b1980831691505092915050565b6000620004e78383620004b9565b9150826002028217905092915050565b6200050282620002ac565b67ffffffffffffffff8111156200051e576200051d620000c3565b5b6200052a8254620002e6565b620005378282856200045c565b600060209050601f8311600181146200056f57600084156200055a578287015190505b620005668582620004d9565b865550620005d6565b601f1984166200057f866200031b565b60005b82811015620005a95784890151825560018201915060208501945060208101905062000582565b86831015620005c95784890151620005c5601f891682620004b9565b8355505b6001600288020188555050505b505050505050565b61329280620005ee6000396000f3fe608060405234801561001057600080fd5b50600436106101165760003560e01c806365731fe9116100a2578063b88d4fde11610071578063b88d4fde146102f1578063c87b56dd1461030d578063e985e9c51461033d578063f15376861461036d578063ff8470c01461039d57610116565b806365731fe91461025757806370a082311461028757806395d89b41146102b7578063a22cb465146102d557610116565b806318160ddd116100e957806318160ddd146101b557806323b872dd146101d357806342842e0e146101ef5780634fe8b4c11461020b5780636352211e1461022757610116565b806301ffc9a71461011b57806306fdde031461014b578063081812fc14610169578063095ea7b314610199575b600080fd5b61013560048036038101906101309190611fe3565b6103cd565b604051610142919061202b565b60405180910390f35b6101536103df565b60405161016091906120d6565b60405180910390f35b610183600480360381019061017e919061212e565b610471565b604051610190919061219c565b60405180910390f35b6101b360048036038101906101ae91906121e3565b6104b7565b005b6101bd6105ce565b6040516101ca9190612232565b60405180910390f35b6101ed60048036038101906101e8919061224d565b6105eb565b005b6102096004803603810190610204919061224d565b61064b565b005b6102256004803603810190610220919061212e565b61066b565b005b610241600480360381019061023c919061212e565b6106c7565b60405161024e919061219c565b60405180910390f35b610271600480360381019061026c91906122a0565b61074d565b60405161027e919061202b565b60405180910390f35b6102a1600480360381019061029c91906122a0565b610762565b6040516102ae9190612232565b60405180910390f35b6102bf610819565b6040516102cc91906120d6565b60405180910390f35b6102ef60048036038101906102ea91906122f9565b6108ab565b005b61030b6004803603810190610306919061246e565b6108c1565b005b6103276004803603810190610322919061212e565b610923565b60405161033491906120d6565b60405180910390f35b610357600480360381019061035291906124f1565b610935565b604051610364919061202b565b60405180910390f35b610387600480360381019061038291906122a0565b6109c9565b6040516103949190612232565b60405180910390f35b6103b760048036038101906103b29190612591565b610a12565b6040516103c49190612232565b60405180910390f35b60006103d882610b33565b9050919050565b6060600080546103ee90612620565b80601f016020809104026020016040519081016040528092919081815260200182805461041a90612620565b80156104675780601f1061043c57610100808354040283529160200191610467565b820191906000526020600020905b81548152906001019060200180831161044a57829003601f168201915b5050505050905090565b600061047c82610c15565b6004600083815260200190815260200160002060009054906101000a900473ffffffffffffffffffffffffffffffffffffffff169050919050565b60006104c2826106c7565b90508073ffffffffffffffffffffffffffffffffffffffff168373ffffffffffffffffffffffffffffffffffffffff1603610532576040517f08c379a0000000000000000000000000000000000000000000000000000000008152600401610529906126c3565b60405180910390fd5b8073ffffffffffffffffffffffffffffffffffffffff16610551610c60565b73ffffffffffffffffffffffffffffffffffffffff161480610580575061057f8161057a610c60565b610935565b5b6105bf576040517f08c379a00000000000000000000000000000000000000000000000000000000081526004016105b690612755565b60405180910390fd5b6105c98383610c68565b505050565b600060016105dc6007610d21565b6105e691906127a4565b905090565b6105fc6105f6610c60565b82610d2f565b61063b576040517f08c379a00000000000000000000000000000000000000000000000000000000081526004016106329061284a565b60405180910390fd5b610646838383610dc4565b505050565b610666838383604051806020016040528060008152506108c1565b505050565b61067c610676610c60565b82610d2f565b6106bb576040517f08c379a00000000000000000000000000000000000000000000000000000000081526004016106b2906128b6565b60405180910390fd5b6106c4816110bd565b50565b6000806106d383611110565b9050600073ffffffffffffffffffffffffffffffffffffffff168173ffffffffffffffffffffffffffffffffffffffff1603610744576040517f08c379a000000000000000000000000000000000000000000000000000000000815260040161073b90612922565b60405180910390fd5b80915050919050565b6000600161075a83610762565b149050919050565b60008073ffffffffffffffffffffffffffffffffffffffff168273ffffffffffffffffffffffffffffffffffffffff16036107d2576040517f08c379a00000000000000000000000000000000000000000000000000000000081526004016107c9906129b4565b60405180910390fd5b600360008373ffffffffffffffffffffffffffffffffffffffff1673ffffffffffffffffffffffffffffffffffffffff168152602001908152602001600020549050919050565b60606001805461082890612620565b80601f016020809104026020016040519081016040528092919081815260200182805461085490612620565b80156108a15780601f10610876576101008083540402835291602001916108a1565b820191906000526020600020905b81548152906001019060200180831161088457829003601f168201915b5050505050905090565b6108bd6108b6610c60565b838361114d565b5050565b6108d26108cc610c60565b83610d2f565b610911576040517f08c379a00000000000000000000000000000000000000000000000000000000081526004016109089061284a565b60405180910390fd5b61091d848484846112b9565b50505050565b606061092e82611315565b9050919050565b6000600560008473ffffffffffffffffffffffffffffffffffffffff1673ffffffffffffffffffffffffffffffffffffffff16815260200190815260200160002060008373ffffffffffffffffffffffffffffffffffffffff1673ffffffffffffffffffffffffffffffffffffffff16815260200190815260200160002060009054906101000a900460ff16905092915050565b6000600860008373ffffffffffffffffffffffffffffffffffffffff1673ffffffffffffffffffffffffffffffffffffffff168152602001908152602001600020549050919050565b600080610a1e85610762565b14610a5e576040517f08c379a0000000000000000000000000000000000000000000000000000000008152600401610a5590612a20565b60405180910390fd5b6000610a6a6007610d21565b9050610a768582611427565b610ac48185858080601f016020809104026020016040519081016040528093929190818152602001838380828437600081840152601f19601f82011690508083019250505050505050611445565b80600860008773ffffffffffffffffffffffffffffffffffffffff1673ffffffffffffffffffffffffffffffffffffffff16815260200190815260200160002081905550610b126007610b1d565b809150509392505050565b6001816000016000828254019250508190555050565b60007f80ac58cd000000000000000000000000000000000000000000000000000000007bffffffffffffffffffffffffffffffffffffffffffffffffffffffff1916827bffffffffffffffffffffffffffffffffffffffffffffffffffffffff19161480610bfe57507f5b5e139f000000000000000000000000000000000000000000000000000000007bffffffffffffffffffffffffffffffffffffffffffffffffffffffff1916827bffffffffffffffffffffffffffffffffffffffffffffffffffffffff1916145b80610c0e5750610c0d826114b2565b5b9050919050565b610c1e8161151c565b610c5d576040517f08c379a0000000000000000000000000000000000000000000000000000000008152600401610c5490612922565b60405180910390fd5b50565b600033905090565b816004600083815260200190815260200160002060006101000a81548173ffffffffffffffffffffffffffffffffffffffff021916908373ffffffffffffffffffffffffffffffffffffffff160217905550808273ffffffffffffffffffffffffffffffffffffffff16610cdb836106c7565b73ffffffffffffffffffffffffffffffffffffffff167f8c5be1e5ebec7d5bd14f71427d1e84f3dd0314c0f7b2291e5b200ac8c7c3b92560405160405180910390a45050565b600081600001549050919050565b600080610d3b836106c7565b90508073ffffffffffffffffffffffffffffffffffffffff168473ffffffffffffffffffffffffffffffffffffffff161480610d7d5750610d7c8185610935565b5b80610dbb57508373ffffffffffffffffffffffffffffffffffffffff16610da384610471565b73ffffffffffffffffffffffffffffffffffffffff16145b91505092915050565b8273ffffffffffffffffffffffffffffffffffffffff16610de4826106c7565b73ffffffffffffffffffffffffffffffffffffffff1614610e3a576040517f08c379a0000000000000000000000000000000000000000000000000000000008152600401610e3190612ab2565b60405180910390fd5b600073ffffffffffffffffffffffffffffffffffffffff168273ffffffffffffffffffffffffffffffffffffffff1603610ea9576040517f08c379a0000000000000000000000000000000000000000000000000000000008152600401610ea090612b44565b60405180910390fd5b610eb6838383600161155d565b8273ffffffffffffffffffffffffffffffffffffffff16610ed6826106c7565b73ffffffffffffffffffffffffffffffffffffffff1614610f2c576040517f08c379a0000000000000000000000000000000000000000000000000000000008152600401610f2390612ab2565b60405180910390fd5b6004600082815260200190815260200160002060006101000a81549073ffffffffffffffffffffffffffffffffffffffff02191690556001600360008573ffffffffffffffffffffffffffffffffffffffff1673ffffffffffffffffffffffffffffffffffffffff168152602001908152602001600020600082825403925050819055506001600360008473ffffffffffffffffffffffffffffffffffffffff1673ffffffffffffffffffffffffffffffffffffffff16815260200190815260200160002060008282540192505081905550816002600083815260200190815260200160002060006101000a81548173ffffffffffffffffffffffffffffffffffffffff021916908373ffffffffffffffffffffffffffffffffffffffff160217905550808273ffffffffffffffffffffffffffffffffffffffff168473ffffffffffffffffffffffffffffffffffffffff167fddf252ad1be2c89b69c2b068fc378daa952ba7f163c4a11628f55a4df523b3ef60405160405180910390a46110b883838360016115de565b505050565b6110c6816115e4565b60006006600083815260200190815260200160002080546110e690612620565b90501461110d5760066000828152602001908152602001600020600061110c9190611f1a565b5b50565b60006002600083815260200190815260200160002060009054906101000a900473ffffffffffffffffffffffffffffffffffffffff169050919050565b8173ffffffffffffffffffffffffffffffffffffffff168373ffffffffffffffffffffffffffffffffffffffff16036111bb576040517f08c379a00000000000000000000000000000000000000000000000000000000081526004016111b290612bb0565b60405180910390fd5b80600560008573ffffffffffffffffffffffffffffffffffffffff1673ffffffffffffffffffffffffffffffffffffffff16815260200190815260200160002060008473ffffffffffffffffffffffffffffffffffffffff1673ffffffffffffffffffffffffffffffffffffffff16815260200190815260200160002060006101000a81548160ff0219169083151502179055508173ffffffffffffffffffffffffffffffffffffffff168373ffffffffffffffffffffffffffffffffffffffff167f17307eab39ab6107e8899845ad3d59bd9653f200f220920489ca2b5937696c31836040516112ac919061202b565b60405180910390a3505050565b6112c4848484610dc4565b6112d084848484611732565b61130f576040517f08c379a000000000000000000000000000000000000000000000000000000000815260040161130690612c42565b60405180910390fd5b50505050565b606061132082610c15565b600060066000848152602001908152602001600020805461134090612620565b80601f016020809104026020016040519081016040528092919081815260200182805461136c90612620565b80156113b95780601f1061138e576101008083540402835291602001916113b9565b820191906000526020600020905b81548152906001019060200180831161139c57829003601f168201915b5050505050905060006113ca6118b9565b905060008151036113df578192505050611422565b6000825111156114145780826040516020016113fc929190612c9e565b60405160208183030381529060405292505050611422565b61141d846118d0565b925050505b919050565b611441828260405180602001604052806000815250611938565b5050565b61144e8261151c565b61148d576040517f08c379a000000000000000000000000000000000000000000000000000000000815260040161148490612d34565b60405180910390fd5b806006600084815260200190815260200160002090816114ad9190612f00565b505050565b60007f01ffc9a7000000000000000000000000000000000000000000000000000000007bffffffffffffffffffffffffffffffffffffffffffffffffffffffff1916827bffffffffffffffffffffffffffffffffffffffffffffffffffffffff1916149050919050565b60008073ffffffffffffffffffffffffffffffffffffffff1661153e83611110565b73ffffffffffffffffffffffffffffffffffffffff1614159050919050565b600073ffffffffffffffffffffffffffffffffffffffff168473ffffffffffffffffffffffffffffffffffffffff16146115cc576040517f08c379a00000000000000000000000000000000000000000000000000000000081526004016115c39061301e565b60405180910390fd5b6115d884848484611993565b50505050565b50505050565b60006115ef826106c7565b90506115ff81600084600161155d565b611608826106c7565b90506004600083815260200190815260200160002060006101000a81549073ffffffffffffffffffffffffffffffffffffffff02191690556001600360008373ffffffffffffffffffffffffffffffffffffffff1673ffffffffffffffffffffffffffffffffffffffff168152602001908152602001600020600082825403925050819055506002600083815260200190815260200160002060006101000a81549073ffffffffffffffffffffffffffffffffffffffff021916905581600073ffffffffffffffffffffffffffffffffffffffff168273ffffffffffffffffffffffffffffffffffffffff167fddf252ad1be2c89b69c2b068fc378daa952ba7f163c4a11628f55a4df523b3ef60405160405180910390a461172e8160008460016115de565b5050565b60006117538473ffffffffffffffffffffffffffffffffffffffff16611ab9565b156118ac578373ffffffffffffffffffffffffffffffffffffffff1663150b7a0261177c610c60565b8786866040518563ffffffff1660e01b815260040161179e9493929190613093565b6020604051808303816000875af19250505080156117da57506040513d601f19601f820116820180604052508101906117d791906130f4565b60015b61185c573d806000811461180a576040519150601f19603f3d011682016040523d82523d6000602084013e61180f565b606091505b506000815103611854576040517f08c379a000000000000000000000000000000000000000000000000000000000815260040161184b90612c42565b60405180910390fd5b805181602001fd5b63150b7a0260e01b7bffffffffffffffffffffffffffffffffffffffffffffffffffffffff1916817bffffffffffffffffffffffffffffffffffffffffffffffffffffffff1916149150506118b1565b600190505b949350505050565b606060405180602001604052806000815250905090565b60606118db82610c15565b60006118e56118b9565b905060008151116119055760405180602001604052806000815250611930565b8061190f84611adc565b604051602001611920929190612c9e565b6040516020818303038152906040525b915050919050565b6119428383611baa565b61194f6000848484611732565b61198e576040517f08c379a000000000000000000000000000000000000000000000000000000000815260040161198590612c42565b60405180910390fd5b505050565b6001811115611ab357600073ffffffffffffffffffffffffffffffffffffffff168473ffffffffffffffffffffffffffffffffffffffff1614611a275780600360008673ffffffffffffffffffffffffffffffffffffffff1673ffffffffffffffffffffffffffffffffffffffff1681526020019081526020016000206000828254611a1f91906127a4565b925050819055505b600073ffffffffffffffffffffffffffffffffffffffff168373ffffffffffffffffffffffffffffffffffffffff1614611ab25780600360008573ffffffffffffffffffffffffffffffffffffffff1673ffffffffffffffffffffffffffffffffffffffff1681526020019081526020016000206000828254611aaa9190613121565b925050819055505b5b50505050565b6000808273ffffffffffffffffffffffffffffffffffffffff163b119050919050565b606060006001611aeb84611dc7565b01905060008167ffffffffffffffff811115611b0a57611b09612343565b5b6040519080825280601f01601f191660200182016040528015611b3c5781602001600182028036833780820191505090505b509050600082602001820190505b600115611b9f578080600190039150507f3031323334353637383961626364656600000000000000000000000000000000600a86061a8153600a8581611b9357611b92613155565b5b04945060008503611b4a575b819350505050919050565b600073ffffffffffffffffffffffffffffffffffffffff168273ffffffffffffffffffffffffffffffffffffffff1603611c19576040517f08c379a0000000000000000000000000000000000000000000000000000000008152600401611c10906131d0565b60405180910390fd5b611c228161151c565b15611c62576040517f08c379a0000000000000000000000000000000000000000000000000000000008152600401611c599061323c565b60405180910390fd5b611c7060008383600161155d565b611c798161151c565b15611cb9576040517f08c379a0000000000000000000000000000000000000000000000000000000008152600401611cb09061323c565b60405180910390fd5b6001600360008473ffffffffffffffffffffffffffffffffffffffff1673ffffffffffffffffffffffffffffffffffffffff16815260200190815260200160002060008282540192505081905550816002600083815260200190815260200160002060006101000a81548173ffffffffffffffffffffffffffffffffffffffff021916908373ffffffffffffffffffffffffffffffffffffffff160217905550808273ffffffffffffffffffffffffffffffffffffffff16600073ffffffffffffffffffffffffffffffffffffffff167fddf252ad1be2c89b69c2b068fc378daa952ba7f163c4a11628f55a4df523b3ef60405160405180910390a4611dc36000838360016115de565b5050565b600080600090507a184f03e93ff9f4daa797ed6e38ed64bf6a1f0100000000000000008310611e25577a184f03e93ff9f4daa797ed6e38ed64bf6a1f0100000000000000008381611e1b57611e1a613155565b5b0492506040810190505b6d04ee2d6d415b85acef81000000008310611e62576d04ee2d6d415b85acef81000000008381611e5857611e57613155565b5b0492506020810190505b662386f26fc100008310611e9157662386f26fc100008381611e8757611e86613155565b5b0492506010810190505b6305f5e1008310611eba576305f5e1008381611eb057611eaf613155565b5b0492506008810190505b6127108310611edf576127108381611ed557611ed4613155565b5b0492506004810190505b60648310611f025760648381611ef857611ef7613155565b5b0492506002810190505b600a8310611f11576001810190505b80915050919050565b508054611f2690612620565b6000825580601f10611f385750611f57565b601f016020900490600052602060002090810190611f569190611f5a565b5b50565b5b80821115611f73576000816000905550600101611f5b565b5090565b6000604051905090565b600080fd5b600080fd5b60007fffffffff0000000000000000000000000000000000000000000000000000000082169050919050565b611fc081611f8b565b8114611fcb57600080fd5b50565b600081359050611fdd81611fb7565b92915050565b600060208284031215611ff957611ff8611f81565b5b600061200784828501611fce565b91505092915050565b60008115159050919050565b61202581612010565b82525050565b6000602082019050612040600083018461201c565b92915050565b600081519050919050565b600082825260208201905092915050565b60005b83811015612080578082015181840152602081019050612065565b60008484015250505050565b6000601f19601f8301169050919050565b60006120a882612046565b6120b28185612051565b93506120c2818560208601612062565b6120cb8161208c565b840191505092915050565b600060208201905081810360008301526120f0818461209d565b905092915050565b6000819050919050565b61210b816120f8565b811461211657600080fd5b50565b60008135905061212881612102565b92915050565b60006020828403121561214457612143611f81565b5b600061215284828501612119565b91505092915050565b600073ffffffffffffffffffffffffffffffffffffffff82169050919050565b60006121868261215b565b9050919050565b6121968161217b565b82525050565b60006020820190506121b1600083018461218d565b92915050565b6121c08161217b565b81146121cb57600080fd5b50565b6000813590506121dd816121b7565b92915050565b600080604083850312156121fa576121f9611f81565b5b6000612208858286016121ce565b925050602061221985828601612119565b9150509250929050565b61222c816120f8565b82525050565b60006020820190506122476000830184612223565b92915050565b60008060006060848603121561226657612265611f81565b5b6000612274868287016121ce565b9350506020612285868287016121ce565b925050604061229686828701612119565b9150509250925092565b6000602082840312156122b6576122b5611f81565b5b60006122c4848285016121ce565b91505092915050565b6122d681612010565b81146122e157600080fd5b50565b6000813590506122f3816122cd565b92915050565b600080604083850312156123105761230f611f81565b5b600061231e858286016121ce565b925050602061232f858286016122e4565b9150509250929050565b600080fd5b600080fd5b7f4e487b7100000000000000000000000000000000000000000000000000000000600052604160045260246000fd5b61237b8261208c565b810181811067ffffffffffffffff8211171561239a57612399612343565b5b80604052505050565b60006123ad611f77565b90506123b98282612372565b919050565b600067ffffffffffffffff8211156123d9576123d8612343565b5b6123e28261208c565b9050602081019050919050565b82818337600083830152505050565b600061241161240c846123be565b6123a3565b90508281526020810184848401111561242d5761242c61233e565b5b6124388482856123ef565b509392505050565b600082601f83011261245557612454612339565b5b81356124658482602086016123fe565b91505092915050565b6000806000806080858703121561248857612487611f81565b5b6000612496878288016121ce565b94505060206124a7878288016121ce565b93505060406124b887828801612119565b925050606085013567ffffffffffffffff8111156124d9576124d8611f86565b5b6124e587828801612440565b91505092959194509250565b6000806040838503121561250857612507611f81565b5b6000612516858286016121ce565b9250506020612527858286016121ce565b9150509250929050565b600080fd5b600080fd5b60008083601f84011261255157612550612339565b5b8235905067ffffffffffffffff81111561256e5761256d612531565b5b60208301915083600182028301111561258a57612589612536565b5b9250929050565b6000806000604084860312156125aa576125a9611f81565b5b60006125b8868287016121ce565b935050602084013567ffffffffffffffff8111156125d9576125d8611f86565b5b6125e58682870161253b565b92509250509250925092565b7f4e487b7100000000000000000000000000000000000000000000000000000000600052602260045260246000fd5b6000600282049050600182168061263857607f821691505b60208210810361264b5761264a6125f1565b5b50919050565b7f4552433732313a20617070726f76616c20746f2063757272656e74206f776e6560008201527f7200000000000000000000000000000000000000000000000000000000000000602082015250565b60006126ad602183612051565b91506126b882612651565b604082019050919050565b600060208201905081810360008301526126dc816126a0565b9050919050565b7f4552433732313a20617070726f76652063616c6c6572206973206e6f7420746f60008201527f6b656e206f776e6572206f7220617070726f76656420666f7220616c6c000000602082015250565b600061273f603d83612051565b915061274a826126e3565b604082019050919050565b6000602082019050818103600083015261276e81612732565b9050919050565b7f4e487b7100000000000000000000000000000000000000000000000000000000600052601160045260246000fd5b60006127af826120f8565b91506127ba836120f8565b92508282039050818111156127d2576127d1612775565b5b92915050565b7f4552433732313a2063616c6c6572206973206e6f7420746f6b656e206f776e6560008201527f72206f7220617070726f76656400000000000000000000000000000000000000602082015250565b6000612834602d83612051565b915061283f826127d8565b604082019050919050565b6000602082019050818103600083015261286381612827565b9050919050565b7f6e6f7420746f6b656e206f776e6572206f7220617070726f7665640000000000600082015250565b60006128a0601b83612051565b91506128ab8261286a565b602082019050919050565b600060208201905081810360008301526128cf81612893565b9050919050565b7f4552433732313a20696e76616c696420746f6b656e2049440000000000000000600082015250565b600061290c601883612051565b9150612917826128d6565b602082019050919050565b6000602082019050818103600083015261293b816128ff565b9050919050565b7f4552433732313a2061646472657373207a65726f206973206e6f74206120766160008201527f6c6964206f776e65720000000000000000000000000000000000000000000000602082015250565b600061299e602983612051565b91506129a982612942565b604082019050919050565b600060208201905081810360008301526129cd81612991565b9050919050565b7f796f7520616c726561647920686176652061206d696e746564204e4654000000600082015250565b6000612a0a601d83612051565b9150612a15826129d4565b602082019050919050565b60006020820190508181036000830152612a39816129fd565b9050919050565b7f4552433732313a207472616e736665722066726f6d20696e636f72726563742060008201527f6f776e6572000000000000000000000000000000000000000000000000000000602082015250565b6000612a9c602583612051565b9150612aa782612a40565b604082019050919050565b60006020820190508181036000830152612acb81612a8f565b9050919050565b7f4552433732313a207472616e7366657220746f20746865207a65726f2061646460008201527f7265737300000000000000000000000000000000000000000000000000000000602082015250565b6000612b2e602483612051565b9150612b3982612ad2565b604082019050919050565b60006020820190508181036000830152612b5d81612b21565b9050919050565b7f4552433732313a20617070726f766520746f2063616c6c657200000000000000600082015250565b6000612b9a601983612051565b9150612ba582612b64565b602082019050919050565b60006020820190508181036000830152612bc981612b8d565b9050919050565b7f4552433732313a207472616e7366657220746f206e6f6e20455243373231526560008201527f63656976657220696d706c656d656e7465720000000000000000000000000000602082015250565b6000612c2c603283612051565b9150612c3782612bd0565b604082019050919050565b60006020820190508181036000830152612c5b81612c1f565b9050919050565b600081905092915050565b6000612c7882612046565b612c828185612c62565b9350612c92818560208601612062565b80840191505092915050565b6000612caa8285612c6d565b9150612cb68284612c6d565b91508190509392505050565b7f45524337323155524953746f726167653a2055524920736574206f66206e6f6e60008201527f6578697374656e7420746f6b656e000000000000000000000000000000000000602082015250565b6000612d1e602e83612051565b9150612d2982612cc2565b604082019050919050565b60006020820190508181036000830152612d4d81612d11565b9050919050565b60008190508160005260206000209050919050565b60006020601f8301049050919050565b600082821b905092915050565b600060088302612db67fffffffffffffffffffffffffffffffffffffffffffffffffffffffffffffffff82612d79565b612dc08683612d79565b95508019841693508086168417925050509392505050565b6000819050919050565b6000612dfd612df8612df3846120f8565b612dd8565b6120f8565b9050919050565b6000819050919050565b612e1783612de2565b612e2b612e2382612e04565b848454612d86565b825550505050565b600090565b612e40612e33565b612e4b818484612e0e565b505050565b5b81811015612e6f57612e64600082612e38565b600181019050612e51565b5050565b601f821115612eb457612e8581612d54565b612e8e84612d69565b81016020851015612e9d578190505b612eb1612ea985612d69565b830182612e50565b50505b505050565b600082821c905092915050565b6000612ed760001984600802612eb9565b1980831691505092915050565b6000612ef08383612ec6565b9150826002028217905092915050565b612f0982612046565b67ffffffffffffffff811115612f2257612f21612343565b5b612f2c8254612620565b612f37828285612e73565b600060209050601f831160018114612f6a5760008415612f58578287015190505b612f628582612ee4565b865550612fca565b601f198416612f7886612d54565b60005b82811015612fa057848901518255600182019150602085019450602081019050612f7b565b86831015612fbd5784890151612fb9601f891682612ec6565b8355505b6001600288020188555050505b505050505050565b7f746f6b656e207472616e73666572206e6f7420616c6c6f776564000000000000600082015250565b6000613008601a83612051565b915061301382612fd2565b602082019050919050565b6000602082019050818103600083015261303781612ffb565b9050919050565b600081519050919050565b600082825260208201905092915050565b60006130658261303e565b61306f8185613049565b935061307f818560208601612062565b6130888161208c565b840191505092915050565b60006080820190506130a8600083018761218d565b6130b5602083018661218d565b6130c26040830185612223565b81810360608301526130d4818461305a565b905095945050505050565b6000815190506130ee81611fb7565b92915050565b60006020828403121561310a57613109611f81565b5b6000613118848285016130df565b91505092915050565b600061312c826120f8565b9150613137836120f8565b925082820190508082111561314f5761314e612775565b5b92915050565b7f4e487b7100000000000000000000000000000000000000000000000000000000600052601260045260246000fd5b7f4552433732313a206d696e7420746f20746865207a65726f2061646472657373600082015250565b60006131ba602083612051565b91506131c582613184565b602082019050919050565b600060208201905081810360008301526131e9816131ad565b9050919050565b7f4552433732313a20746f6b656e20616c7265616479206d696e74656400000000600082015250565b6000613226601c83612051565b9150613231826131f0565b602082019050919050565b6000602082019050818103600083015261325581613219565b905091905056fea26469706673582212203d478fd284534f4333353a32540292eeb1e6f537a310eb06f70bd26d1132aa5964736f6c63430008110033",
  "linkReferences": {},
  "deployedLinkReferences": {}
}