{
  "_format": "hh-sol-artifact-1",
  "contractName": "FVMMedicare",
  "sourceName": "contracts/FVMMedicare.sol",
  "abi": [
    {
      "inputs": [
        {
          "internalType": "address",
          "name": "_doctorNFTAddress",
          "type": "address"
        },
        {
          "internalType": "address",
          "name": "_patientNFTAddress",
          "type": "address"
        }
      ],
      "stateMutability": "nonpayable",
      "type": "constructor"
    },
    {
      "anonymous": false,
      "inputs": [
        {
          "indexed": true,
          "internalType": "address",
          "name": "previousOwner",
          "type": "address"
        },
        {
          "indexed": true,
          "internalType": "address",
          "name": "newOwner",
          "type": "address"
        }
      ],
      "name": "OwnershipTransferred",
      "type": "event"
    },
    {
      "inputs": [
        {
          "internalType": "uint256",
          "name": "_doctorAppointmentId",
          "type": "uint256"
        }
      ],
      "name": "endAppointment",
      "outputs": [],
      "stateMutability": "nonpayable",
      "type": "function"
    },
    {
      "inputs": [
        {
          "internalType": "address",
          "name": "_addr",
          "type": "address"
        },
        {
          "internalType": "uint256",
          "name": "_appointmentId",
          "type": "uint256"
        }
      ],
      "name": "getAppointment",
      "outputs": [
        {
          "components": [
            {
              "internalType": "uint256",
              "name": "appointmentId",
              "type": "uint256"
            },
            {
              "internalType": "string",
              "name": "uniqueKey",
              "type": "string"
            },
            {
              "internalType": "uint256",
              "name": "appointmentType",
              "type": "uint256"
            },
            {
              "internalType": "address",
              "name": "patientAddress",
              "type": "address"
            },
            {
              "internalType": "address",
              "name": "doctorAddress",
              "type": "address"
            },
            {
              "internalType": "bool",
              "name": "medicalRecordShared",
              "type": "bool"
            },
            {
              "internalType": "enum FVMMedicare.Status",
              "name": "appointmentStatus",
              "type": "uint8"
            },
            {
              "internalType": "enum FVMMedicare.Status",
              "name": "requestStatus",
              "type": "uint8"
            }
          ],
          "internalType": "struct FVMMedicare.Appointment",
          "name": "",
          "type": "tuple"
        }
      ],
      "stateMutability": "view",
      "type": "function"
    },
    {
      "inputs": [
        {
          "internalType": "address",
          "name": "_addr",
          "type": "address"
        }
      ],
      "name": "getAppointmentCount",
      "outputs": [
        {
          "internalType": "uint256",
          "name": "",
          "type": "uint256"
        }
      ],
      "stateMutability": "view",
      "type": "function"
    },
    {
      "inputs": [
        {
          "internalType": "address",
          "name": "_addr",
          "type": "address"
        }
      ],
      "name": "getInformation",
      "outputs": [
        {
          "components": [
            {
              "internalType": "string",
              "name": "name",
              "type": "string"
            },
            {
              "internalType": "string",
              "name": "surname",
              "type": "string"
            },
            {
              "internalType": "string",
              "name": "birthDate",
              "type": "string"
            },
            {
              "internalType": "string",
              "name": "speciality",
              "type": "string"
            },
            {
              "internalType": "string",
              "name": "image",
              "type": "string"
            }
          ],
          "internalType": "struct FVMMedicare.BioData",
          "name": "",
          "type": "tuple"
        }
      ],
      "stateMutability": "view",
      "type": "function"
    },
    {
      "inputs": [
        {
          "internalType": "address",
          "name": "_doctorAddress",
          "type": "address"
        },
        {
          "internalType": "string",
          "name": "_uniqueKey",
          "type": "string"
        },
        {
          "internalType": "uint256",
          "name": "_appointmentType",
          "type": "uint256"
        }
      ],
      "name": "makeAppointment",
      "outputs": [],
      "stateMutability": "nonpayable",
      "type": "function"
    },
    {
      "inputs": [],
      "name": "owner",
      "outputs": [
        {
          "internalType": "address",
          "name": "",
          "type": "address"
        }
      ],
      "stateMutability": "view",
      "type": "function"
    },
    {
      "inputs": [
        {
          "internalType": "enum FVMMedicare.Category",
          "name": "user",
          "type": "uint8"
        },
        {
          "internalType": "string",
          "name": "uri",
          "type": "string"
        },
        {
          "components": [
            {
              "internalType": "string",
              "name": "name",
              "type": "string"
            },
            {
              "internalType": "string",
              "name": "surname",
              "type": "string"
            },
            {
              "internalType": "string",
              "name": "birthDate",
              "type": "string"
            },
            {
              "internalType": "string",
              "name": "speciality",
              "type": "string"
            },
            {
              "internalType": "string",
              "name": "image",
              "type": "string"
            }
          ],
          "internalType": "struct FVMMedicare.BioData",
          "name": "_biodata",
          "type": "tuple"
        }
      ],
      "name": "register",
      "outputs": [],
      "stateMutability": "nonpayable",
      "type": "function"
    },
    {
      "inputs": [],
      "name": "renounceOwnership",
      "outputs": [],
      "stateMutability": "nonpayable",
      "type": "function"
    },
    {
      "inputs": [
        {
          "internalType": "uint256",
          "name": "_doctorAppointmentId",
          "type": "uint256"
        },
        {
          "internalType": "bool",
          "name": "_accepted",
          "type": "bool"
        }
      ],
      "name": "respondToAppointment",
      "outputs": [],
      "stateMutability": "nonpayable",
      "type": "function"
    },
    {
      "inputs": [
        {
          "internalType": "uint256",
          "name": "_patientAppointmentId",
          "type": "uint256"
        },
        {
          "internalType": "bool",
          "name": "giveAccess",
          "type": "bool"
        }
      ],
      "name": "respondToDataRequest",
      "outputs": [],
      "stateMutability": "nonpayable",
      "type": "function"
    },
    {
      "inputs": [
        {
          "internalType": "address",
          "name": "newOwner",
          "type": "address"
        }
      ],
      "name": "transferOwnership",
      "outputs": [],
      "stateMutability": "nonpayable",
      "type": "function"
    }
  ],
  "bytecode": "0x60806040523480156200001157600080fd5b5060405162003eb138038062003eb1833981810160405281019062000037919062000217565b620000576200004b620000e160201b60201c565b620000e960201b60201c565b81600160006101000a81548173ffffffffffffffffffffffffffffffffffffffff021916908373ffffffffffffffffffffffffffffffffffffffff16021790555080600260006101000a81548173ffffffffffffffffffffffffffffffffffffffff021916908373ffffffffffffffffffffffffffffffffffffffff16021790555050506200025e565b600033905090565b60008060009054906101000a900473ffffffffffffffffffffffffffffffffffffffff169050816000806101000a81548173ffffffffffffffffffffffffffffffffffffffff021916908373ffffffffffffffffffffffffffffffffffffffff1602179055508173ffffffffffffffffffffffffffffffffffffffff168173ffffffffffffffffffffffffffffffffffffffff167f8be0079c531659141344cd1fd0a4f28419497f9722a3daafe3b4186f6b6457e060405160405180910390a35050565b600080fd5b600073ffffffffffffffffffffffffffffffffffffffff82169050919050565b6000620001df82620001b2565b9050919050565b620001f181620001d2565b8114620001fd57600080fd5b50565b6000815190506200021181620001e6565b92915050565b60008060408385031215620002315762000230620001ad565b5b6000620002418582860162000200565b9250506020620002548582860162000200565b9150509250929050565b613c43806200026e6000396000f3fe608060405234801561001057600080fd5b50600436106100a95760003560e01c80638da5cb5b116100715780638da5cb5b14610150578063b33d600a1461016e578063c579c2d31461019e578063f1d6e254146101ba578063f2fde38b146101d6578063febe984e146101f2576100a9565b806321136548146100ae578063396c958c146100ca578063715018a6146100fa578063732d85b4146101045780637bcb7e9914610134575b600080fd5b6100c860048036038101906100c39190612cf5565b61020e565b005b6100e460048036038101906100df9190612d93565b61060c565b6040516100f19190612fb7565b60405180910390f35b610102610ce1565b005b61011e60048036038101906101199190612fd9565b610cf5565b60405161012b9190613015565b60405180910390f35b61014e6004803603810190610149919061330c565b610fbe565b005b610158611312565b60405161016591906133ab565b60405180910390f35b61018860048036038101906101839190612fd9565b61133b565b6040516101959190613458565b60405180910390f35b6101b860048036038101906101b3919061347a565b611bd9565b005b6101d460048036038101906101cf9190612cf5565b611efc565b005b6101f060048036038101906101eb9190612fd9565b6122e0565b005b61020c600480360381019061020791906134a7565b612363565b005b600260009054906101000a900473ffffffffffffffffffffffffffffffffffffffff1673ffffffffffffffffffffffffffffffffffffffff166365731fe9336040518263ffffffff1660e01b815260040161026991906133ab565b602060405180830381865afa158015610286573d6000803e3d6000fd5b505050506040513d601f19601f820116820180604052508101906102aa919061352b565b6102e9576040517f08c379a00000000000000000000000000000000000000000000000000000000081526004016102e0906135b5565b60405180910390fd5b6000600260009054906101000a900473ffffffffffffffffffffffffffffffffffffffff1673ffffffffffffffffffffffffffffffffffffffff1663f1537686336040518263ffffffff1660e01b815260040161034691906133ab565b602060405180830381865afa158015610363573d6000803e3d6000fd5b505050506040513d601f19601f8201168201806040525081019061038791906135ea565b9050600060046000838152602001908152602001600020600701600085815260200190815260200160002090506000600160009054906101000a900473ffffffffffffffffffffffffffffffffffffffff1673ffffffffffffffffffffffffffffffffffffffff1663f15376868360040160009054906101000a900473ffffffffffffffffffffffffffffffffffffffff166040518263ffffffff1660e01b815260040161043591906133ab565b602060405180830381865afa158015610452573d6000803e3d6000fd5b505050506040513d601f19601f8201168201806040525081019061047691906135ea565b9050600060036000838152602001908152602001600020600801600087815260200190815260200160002054905060006003600084815260200190815260200160002060070160008381526020019081526020016000209050851561056e5760028460040160166101000a81548160ff021916908360048111156104fd576104fc612e90565b5b021790555060018460040160146101000a81548160ff02191690831515021790555060028160040160166101000a81548160ff0219169083600481111561054757610546612e90565b5b021790555060018160040160146101000a81548160ff021916908315150217905550610603565b60018460040160166101000a81548160ff0219169083600481111561059657610595612e90565b5b021790555060008460040160146101000a81548160ff02191690831515021790555060018160040160166101000a81548160ff021916908360048111156105e0576105df612e90565b5b021790555060008160040160146101000a81548160ff0219169083151502179055505b50505050505050565b610614612bad565b61061c612bad565b600260009054906101000a900473ffffffffffffffffffffffffffffffffffffffff1673ffffffffffffffffffffffffffffffffffffffff166365731fe9856040518263ffffffff1660e01b815260040161067791906133ab565b602060405180830381865afa158015610694573d6000803e3d6000fd5b505050506040513d601f19601f820116820180604052508101906106b8919061352b565b1561097b576000600260009054906101000a900473ffffffffffffffffffffffffffffffffffffffff1673ffffffffffffffffffffffffffffffffffffffff1663f1537686866040518263ffffffff1660e01b815260040161071a91906133ab565b602060405180830381865afa158015610737573d6000803e3d6000fd5b505050506040513d601f19601f8201168201806040525081019061075b91906135ea565b905060046000828152602001908152602001600020600701600085815260200190815260200160002060405180610100016040529081600082015481526020016001820180546107aa90613646565b80601f01602080910402602001604051908101604052809291908181526020018280546107d690613646565b80156108235780601f106107f857610100808354040283529160200191610823565b820191906000526020600020905b81548152906001019060200180831161080657829003601f168201915b50505050508152602001600282015481526020016003820160009054906101000a900473ffffffffffffffffffffffffffffffffffffffff1673ffffffffffffffffffffffffffffffffffffffff1673ffffffffffffffffffffffffffffffffffffffff1681526020016004820160009054906101000a900473ffffffffffffffffffffffffffffffffffffffff1673ffffffffffffffffffffffffffffffffffffffff1673ffffffffffffffffffffffffffffffffffffffff1681526020016004820160149054906101000a900460ff161515151581526020016004820160159054906101000a900460ff16600481111561092257610921612e90565b5b600481111561093457610933612e90565b5b81526020016004820160169054906101000a900460ff16600481111561095d5761095c612e90565b5b600481111561096f5761096e612e90565b5b81525050915050610cd7565b600160009054906101000a900473ffffffffffffffffffffffffffffffffffffffff1673ffffffffffffffffffffffffffffffffffffffff166365731fe9856040518263ffffffff1660e01b81526004016109d691906133ab565b602060405180830381865afa1580156109f3573d6000803e3d6000fd5b505050506040513d601f19601f82011682018060405250810190610a17919061352b565b15610cd6576000600160009054906101000a900473ffffffffffffffffffffffffffffffffffffffff1673ffffffffffffffffffffffffffffffffffffffff1663f1537686866040518263ffffffff1660e01b8152600401610a7991906133ab565b602060405180830381865afa158015610a96573d6000803e3d6000fd5b505050506040513d601f19601f82011682018060405250810190610aba91906135ea565b90506003600082815260200190815260200160002060070160008581526020019081526020016000206040518061010001604052908160008201548152602001600182018054610b0990613646565b80601f0160208091040260200160405190810160405280929190818152602001828054610b3590613646565b8015610b825780601f10610b5757610100808354040283529160200191610b82565b820191906000526020600020905b815481529060010190602001808311610b6557829003601f168201915b50505050508152602001600282015481526020016003820160009054906101000a900473ffffffffffffffffffffffffffffffffffffffff1673ffffffffffffffffffffffffffffffffffffffff1673ffffffffffffffffffffffffffffffffffffffff1681526020016004820160009054906101000a900473ffffffffffffffffffffffffffffffffffffffff1673ffffffffffffffffffffffffffffffffffffffff1673ffffffffffffffffffffffffffffffffffffffff1681526020016004820160149054906101000a900460ff161515151581526020016004820160159054906101000a900460ff166004811115610c8157610c80612e90565b5b6004811115610c9357610c92612e90565b5b81526020016004820160169054906101000a900460ff166004811115610cbc57610cbb612e90565b5b6004811115610cce57610ccd612e90565b5b815250509150505b5b8091505092915050565b610ce9612a63565b610cf36000612ae1565b565b600080600260009054906101000a900473ffffffffffffffffffffffffffffffffffffffff1673ffffffffffffffffffffffffffffffffffffffff166365731fe9846040518263ffffffff1660e01b8152600401610d5391906133ab565b602060405180830381865afa158015610d70573d6000803e3d6000fd5b505050506040513d601f19601f82011682018060405250810190610d94919061352b565b15610e58576000600260009054906101000a900473ffffffffffffffffffffffffffffffffffffffff1673ffffffffffffffffffffffffffffffffffffffff1663f1537686856040518263ffffffff1660e01b8152600401610df691906133ab565b602060405180830381865afa158015610e13573d6000803e3d6000fd5b505050506040513d601f19601f82011682018060405250810190610e3791906135ea565b90506004600082815260200190815260200160002060060154915050610fb5565b600160009054906101000a900473ffffffffffffffffffffffffffffffffffffffff1673ffffffffffffffffffffffffffffffffffffffff166365731fe9846040518263ffffffff1660e01b8152600401610eb391906133ab565b602060405180830381865afa158015610ed0573d6000803e3d6000fd5b505050506040513d601f19601f82011682018060405250810190610ef4919061352b565b15610fb4576000600160009054906101000a900473ffffffffffffffffffffffffffffffffffffffff1673ffffffffffffffffffffffffffffffffffffffff1663f1537686856040518263ffffffff1660e01b8152600401610f5691906133ab565b602060405180830381865afa158015610f73573d6000803e3d6000fd5b505050506040513d601f19601f82011682018060405250810190610f9791906135ea565b905060036000828152602001908152602001600020600601549150505b5b80915050919050565b60006001811115610fd257610fd1612e90565b5b846001811115610fe557610fe4612e90565b5b03611167576000600160009054906101000a900473ffffffffffffffffffffffffffffffffffffffff1673ffffffffffffffffffffffffffffffffffffffff1663ff8470c03386866040518463ffffffff1660e01b815260040161104b939291906136a4565b6020604051808303816000875af115801561106a573d6000803e3d6000fd5b505050506040513d601f19601f8201168201806040525081019061108e91906135ea565b90506000600360008381526020019081526020016000209050338160000160006101000a81548173ffffffffffffffffffffffffffffffffffffffff021916908373ffffffffffffffffffffffffffffffffffffffff160217905550828160010160008201518160000190816111049190613882565b50602082015181600101908161111a9190613882565b5060408201518160020190816111309190613882565b5060608201518160030190816111469190613882565b50608082015181600401908161115c9190613882565b50905050505061130c565b60018081111561117a57611179612e90565b5b84600181111561118d5761118c612e90565b5b0361130b576000600260009054906101000a900473ffffffffffffffffffffffffffffffffffffffff1673ffffffffffffffffffffffffffffffffffffffff1663ff8470c03386866040518463ffffffff1660e01b81526004016111f3939291906136a4565b6020604051808303816000875af1158015611212573d6000803e3d6000fd5b505050506040513d601f19601f8201168201806040525081019061123691906135ea565b90506000600460008381526020019081526020016000209050338160000160006101000a81548173ffffffffffffffffffffffffffffffffffffffff021916908373ffffffffffffffffffffffffffffffffffffffff160217905550828160010160008201518160000190816112ac9190613882565b5060208201518160010190816112c29190613882565b5060408201518160020190816112d89190613882565b5060608201518160030190816112ee9190613882565b5060808201518160040190816113049190613882565b5090505050505b5b50505050565b60008060009054906101000a900473ffffffffffffffffffffffffffffffffffffffff16905090565b611343612c44565b61134b612c44565b600260009054906101000a900473ffffffffffffffffffffffffffffffffffffffff1673ffffffffffffffffffffffffffffffffffffffff166365731fe9846040518263ffffffff1660e01b81526004016113a691906133ab565b602060405180830381865afa1580156113c3573d6000803e3d6000fd5b505050506040513d601f19601f820116820180604052508101906113e7919061352b565b1561178f576000600260009054906101000a900473ffffffffffffffffffffffffffffffffffffffff1673ffffffffffffffffffffffffffffffffffffffff1663f1537686856040518263ffffffff1660e01b815260040161144991906133ab565b602060405180830381865afa158015611466573d6000803e3d6000fd5b505050506040513d601f19601f8201168201806040525081019061148a91906135ea565b9050600460008281526020019081526020016000206001016040518060a00160405290816000820180546114bd90613646565b80601f01602080910402602001604051908101604052809291908181526020018280546114e990613646565b80156115365780601f1061150b57610100808354040283529160200191611536565b820191906000526020600020905b81548152906001019060200180831161151957829003601f168201915b5050505050815260200160018201805461154f90613646565b80601f016020809104026020016040519081016040528092919081815260200182805461157b90613646565b80156115c85780601f1061159d576101008083540402835291602001916115c8565b820191906000526020600020905b8154815290600101906020018083116115ab57829003601f168201915b505050505081526020016002820180546115e190613646565b80601f016020809104026020016040519081016040528092919081815260200182805461160d90613646565b801561165a5780601f1061162f5761010080835404028352916020019161165a565b820191906000526020600020905b81548152906001019060200180831161163d57829003601f168201915b5050505050815260200160038201805461167390613646565b80601f016020809104026020016040519081016040528092919081815260200182805461169f90613646565b80156116ec5780601f106116c1576101008083540402835291602001916116ec565b820191906000526020600020905b8154815290600101906020018083116116cf57829003601f168201915b5050505050815260200160048201805461170590613646565b80601f016020809104026020016040519081016040528092919081815260200182805461173190613646565b801561177e5780601f106117535761010080835404028352916020019161177e565b820191906000526020600020905b81548152906001019060200180831161176157829003601f168201915b505050505081525050915050611bd0565b600160009054906101000a900473ffffffffffffffffffffffffffffffffffffffff1673ffffffffffffffffffffffffffffffffffffffff166365731fe9846040518263ffffffff1660e01b81526004016117ea91906133ab565b602060405180830381865afa158015611807573d6000803e3d6000fd5b505050506040513d601f19601f8201168201806040525081019061182b919061352b565b15611bcf576000600160009054906101000a900473ffffffffffffffffffffffffffffffffffffffff1673ffffffffffffffffffffffffffffffffffffffff1663f1537686856040518263ffffffff1660e01b815260040161188d91906133ab565b602060405180830381865afa1580156118aa573d6000803e3d6000fd5b505050506040513d601f19601f820116820180604052508101906118ce91906135ea565b9050600360008281526020019081526020016000206001016040518060a001604052908160008201805461190190613646565b80601f016020809104026020016040519081016040528092919081815260200182805461192d90613646565b801561197a5780601f1061194f5761010080835404028352916020019161197a565b820191906000526020600020905b81548152906001019060200180831161195d57829003601f168201915b5050505050815260200160018201805461199390613646565b80601f01602080910402602001604051908101604052809291908181526020018280546119bf90613646565b8015611a0c5780601f106119e157610100808354040283529160200191611a0c565b820191906000526020600020905b8154815290600101906020018083116119ef57829003601f168201915b50505050508152602001600282018054611a2590613646565b80601f0160208091040260200160405190810160405280929190818152602001828054611a5190613646565b8015611a9e5780601f10611a7357610100808354040283529160200191611a9e565b820191906000526020600020905b815481529060010190602001808311611a8157829003601f168201915b50505050508152602001600382018054611ab790613646565b80601f0160208091040260200160405190810160405280929190818152602001828054611ae390613646565b8015611b305780601f10611b0557610100808354040283529160200191611b30565b820191906000526020600020905b815481529060010190602001808311611b1357829003601f168201915b50505050508152602001600482018054611b4990613646565b80601f0160208091040260200160405190810160405280929190818152602001828054611b7590613646565b8015611bc25780601f10611b9757610100808354040283529160200191611bc2565b820191906000526020600020905b815481529060010190602001808311611ba557829003601f168201915b5050505050815250509150505b5b80915050919050565b600160009054906101000a900473ffffffffffffffffffffffffffffffffffffffff1673ffffffffffffffffffffffffffffffffffffffff166365731fe9336040518263ffffffff1660e01b8152600401611c3491906133ab565b602060405180830381865afa158015611c51573d6000803e3d6000fd5b505050506040513d601f19601f82011682018060405250810190611c75919061352b565b611cb4576040517f08c379a0000000000000000000000000000000000000000000000000000000008152600401611cab906139a0565b60405180910390fd5b6000600160009054906101000a900473ffffffffffffffffffffffffffffffffffffffff1673ffffffffffffffffffffffffffffffffffffffff1663f1537686336040518263ffffffff1660e01b8152600401611d1191906133ab565b602060405180830381865afa158015611d2e573d6000803e3d6000fd5b505050506040513d601f19601f82011682018060405250810190611d5291906135ea565b9050600060036000838152602001908152602001600020600701600084815260200190815260200160002090506000600260009054906101000a900473ffffffffffffffffffffffffffffffffffffffff1673ffffffffffffffffffffffffffffffffffffffff1663f15376868360030160009054906101000a900473ffffffffffffffffffffffffffffffffffffffff166040518263ffffffff1660e01b8152600401611e0091906133ab565b602060405180830381865afa158015611e1d573d6000803e3d6000fd5b505050506040513d601f19601f82011682018060405250810190611e4191906135ea565b905060006004600083815260200190815260200160002060080160008681526020019081526020016000205490506000600460008481526020019081526020016000206007016000838152602001908152602001600020905060048460040160156101000a81548160ff02191690836004811115611ec257611ec1612e90565b5b021790555060048160040160156101000a81548160ff02191690836004811115611eef57611eee612e90565b5b0217905550505050505050565b600160009054906101000a900473ffffffffffffffffffffffffffffffffffffffff1673ffffffffffffffffffffffffffffffffffffffff166365731fe9336040518263ffffffff1660e01b8152600401611f5791906133ab565b602060405180830381865afa158015611f74573d6000803e3d6000fd5b505050506040513d601f19601f82011682018060405250810190611f98919061352b565b611fd7576040517f08c379a0000000000000000000000000000000000000000000000000000000008152600401611fce906139a0565b60405180910390fd5b6000600160009054906101000a900473ffffffffffffffffffffffffffffffffffffffff1673ffffffffffffffffffffffffffffffffffffffff1663f1537686336040518263ffffffff1660e01b815260040161203491906133ab565b602060405180830381865afa158015612051573d6000803e3d6000fd5b505050506040513d601f19601f8201168201806040525081019061207591906135ea565b9050600060036000838152602001908152602001600020600701600085815260200190815260200160002090506000600260009054906101000a900473ffffffffffffffffffffffffffffffffffffffff1673ffffffffffffffffffffffffffffffffffffffff1663f15376868360030160009054906101000a900473ffffffffffffffffffffffffffffffffffffffff166040518263ffffffff1660e01b815260040161212391906133ab565b602060405180830381865afa158015612140573d6000803e3d6000fd5b505050506040513d601f19601f8201168201806040525081019061216491906135ea565b9050600060046000838152602001908152602001600020600801600087815260200190815260200160002054905060006004600084815260200190815260200160002060070160008381526020019081526020016000209050851561227c5760028460040160156101000a81548160ff021916908360048111156121eb576121ea612e90565b5b021790555060028160040160156101000a81548160ff0219169083600481111561221857612217612e90565b5b021790555060018460040160166101000a81548160ff0219169083600481111561224557612244612e90565b5b021790555060018160040160166101000a81548160ff0219169083600481111561227257612271612e90565b5b02179055506122d7565b60038460040160156101000a81548160ff021916908360048111156122a4576122a3612e90565b5b021790555060038160040160156101000a81548160ff021916908360048111156122d1576122d0612e90565b5b02179055505b50505050505050565b6122e8612a63565b600073ffffffffffffffffffffffffffffffffffffffff168173ffffffffffffffffffffffffffffffffffffffff1603612357576040517f08c379a000000000000000000000000000000000000000000000000000000000815260040161234e90613a32565b60405180910390fd5b61236081612ae1565b50565b600260009054906101000a900473ffffffffffffffffffffffffffffffffffffffff1673ffffffffffffffffffffffffffffffffffffffff166365731fe9336040518263ffffffff1660e01b81526004016123be91906133ab565b602060405180830381865afa1580156123db573d6000803e3d6000fd5b505050506040513d601f19601f820116820180604052508101906123ff919061352b565b61243e576040517f08c379a000000000000000000000000000000000000000000000000000000000815260040161243590613a9e565b60405180910390fd5b600160009054906101000a900473ffffffffffffffffffffffffffffffffffffffff1673ffffffffffffffffffffffffffffffffffffffff166365731fe9846040518263ffffffff1660e01b815260040161249991906133ab565b602060405180830381865afa1580156124b6573d6000803e3d6000fd5b505050506040513d601f19601f820116820180604052508101906124da919061352b565b612519576040517f08c379a000000000000000000000000000000000000000000000000000000000815260040161251090613b0a565b60405180910390fd5b6000600160009054906101000a900473ffffffffffffffffffffffffffffffffffffffff1673ffffffffffffffffffffffffffffffffffffffff1663f1537686856040518263ffffffff1660e01b815260040161257691906133ab565b602060405180830381865afa158015612593573d6000803e3d6000fd5b505050506040513d601f19601f820116820180604052508101906125b791906135ea565b90506000600260009054906101000a900473ffffffffffffffffffffffffffffffffffffffff1673ffffffffffffffffffffffffffffffffffffffff1663f1537686336040518263ffffffff1660e01b815260040161261691906133ab565b602060405180830381865afa158015612633573d6000803e3d6000fd5b505050506040513d601f19601f8201168201806040525081019061265791906135ea565b90506000604051806101000160405280600081526020018681526020018581526020013373ffffffffffffffffffffffffffffffffffffffff1681526020018773ffffffffffffffffffffffffffffffffffffffff168152602001600015158152602001600160048111156126cf576126ce612e90565b5b8152602001600060048111156126e8576126e7612e90565b5b8152509050600060046000848152602001908152602001600020905080600601600081548092919061271990613b59565b9190505550806006015482600001818152505081816007016000836006015481526020019081526020016000206000820151816000015560208201518160010190816127659190613882565b506040820151816002015560608201518160030160006101000a81548173ffffffffffffffffffffffffffffffffffffffff021916908373ffffffffffffffffffffffffffffffffffffffff16021790555060808201518160040160006101000a81548173ffffffffffffffffffffffffffffffffffffffff021916908373ffffffffffffffffffffffffffffffffffffffff16021790555060a08201518160040160146101000a81548160ff02191690831515021790555060c08201518160040160156101000a81548160ff0219169083600481111561284957612848612e90565b5b021790555060e08201518160040160166101000a81548160ff0219169083600481111561287957612878612e90565b5b021790555090505060006003600086815260200190815260200160002090508060060160008154809291906128ad90613b59565b9190505550806006015483600001818152505082816007016000836006015481526020019081526020016000206000820151816000015560208201518160010190816128f99190613882565b506040820151816002015560608201518160030160006101000a81548173ffffffffffffffffffffffffffffffffffffffff021916908373ffffffffffffffffffffffffffffffffffffffff16021790555060808201518160040160006101000a81548173ffffffffffffffffffffffffffffffffffffffff021916908373ffffffffffffffffffffffffffffffffffffffff16021790555060a08201518160040160146101000a81548160ff02191690831515021790555060c08201518160040160156101000a81548160ff021916908360048111156129dd576129dc612e90565b5b021790555060e08201518160040160166101000a81548160ff02191690836004811115612a0d57612a0c612e90565b5b021790555090505081600601548260080160008360060154815260200190815260200160002081905550806006015481600801600084600601548152602001908152602001600020819055505050505050505050565b612a6b612ba5565b73ffffffffffffffffffffffffffffffffffffffff16612a89611312565b73ffffffffffffffffffffffffffffffffffffffff1614612adf576040517f08c379a0000000000000000000000000000000000000000000000000000000008152600401612ad690613bed565b60405180910390fd5b565b60008060009054906101000a900473ffffffffffffffffffffffffffffffffffffffff169050816000806101000a81548173ffffffffffffffffffffffffffffffffffffffff021916908373ffffffffffffffffffffffffffffffffffffffff1602179055508173ffffffffffffffffffffffffffffffffffffffff168173ffffffffffffffffffffffffffffffffffffffff167f8be0079c531659141344cd1fd0a4f28419497f9722a3daafe3b4186f6b6457e060405160405180910390a35050565b600033905090565b604051806101000160405280600081526020016060815260200160008152602001600073ffffffffffffffffffffffffffffffffffffffff168152602001600073ffffffffffffffffffffffffffffffffffffffff16815260200160001515815260200160006004811115612c2557612c24612e90565b5b815260200160006004811115612c3e57612c3d612e90565b5b81525090565b6040518060a0016040528060608152602001606081526020016060815260200160608152602001606081525090565b6000604051905090565b600080fd5b600080fd5b6000819050919050565b612c9a81612c87565b8114612ca557600080fd5b50565b600081359050612cb781612c91565b92915050565b60008115159050919050565b612cd281612cbd565b8114612cdd57600080fd5b50565b600081359050612cef81612cc9565b92915050565b60008060408385031215612d0c57612d0b612c7d565b5b6000612d1a85828601612ca8565b9250506020612d2b85828601612ce0565b9150509250929050565b600073ffffffffffffffffffffffffffffffffffffffff82169050919050565b6000612d6082612d35565b9050919050565b612d7081612d55565b8114612d7b57600080fd5b50565b600081359050612d8d81612d67565b92915050565b60008060408385031215612daa57612da9612c7d565b5b6000612db885828601612d7e565b9250506020612dc985828601612ca8565b9150509250929050565b612ddc81612c87565b82525050565b600081519050919050565b600082825260208201905092915050565b60005b83811015612e1c578082015181840152602081019050612e01565b60008484015250505050565b6000601f19601f8301169050919050565b6000612e4482612de2565b612e4e8185612ded565b9350612e5e818560208601612dfe565b612e6781612e28565b840191505092915050565b612e7b81612d55565b82525050565b612e8a81612cbd565b82525050565b7f4e487b7100000000000000000000000000000000000000000000000000000000600052602160045260246000fd5b60058110612ed057612ecf612e90565b5b50565b6000819050612ee182612ebf565b919050565b6000612ef182612ed3565b9050919050565b612f0181612ee6565b82525050565b600061010083016000830151612f206000860182612dd3565b5060208301518482036020860152612f388282612e39565b9150506040830151612f4d6040860182612dd3565b506060830151612f606060860182612e72565b506080830151612f736080860182612e72565b5060a0830151612f8660a0860182612e81565b5060c0830151612f9960c0860182612ef8565b5060e0830151612fac60e0860182612ef8565b508091505092915050565b60006020820190508181036000830152612fd18184612f07565b905092915050565b600060208284031215612fef57612fee612c7d565b5b6000612ffd84828501612d7e565b91505092915050565b61300f81612c87565b82525050565b600060208201905061302a6000830184613006565b92915050565b6002811061303d57600080fd5b50565b60008135905061304f81613030565b92915050565b600080fd5b600080fd5b600080fd5b60008083601f84011261307a57613079613055565b5b8235905067ffffffffffffffff8111156130975761309661305a565b5b6020830191508360018202830111156130b3576130b261305f565b5b9250929050565b600080fd5b7f4e487b7100000000000000000000000000000000000000000000000000000000600052604160045260246000fd5b6130f782612e28565b810181811067ffffffffffffffff82111715613116576131156130bf565b5b80604052505050565b6000613129612c73565b905061313582826130ee565b919050565b600080fd5b600080fd5b600067ffffffffffffffff82111561315f5761315e6130bf565b5b61316882612e28565b9050602081019050919050565b82818337600083830152505050565b600061319761319284613144565b61311f565b9050828152602081018484840111156131b3576131b261313f565b5b6131be848285613175565b509392505050565b600082601f8301126131db576131da613055565b5b81356131eb848260208601613184565b91505092915050565b600060a0828403121561320a576132096130ba565b5b61321460a061311f565b9050600082013567ffffffffffffffff8111156132345761323361313a565b5b613240848285016131c6565b600083015250602082013567ffffffffffffffff8111156132645761326361313a565b5b613270848285016131c6565b602083015250604082013567ffffffffffffffff8111156132945761329361313a565b5b6132a0848285016131c6565b604083015250606082013567ffffffffffffffff8111156132c4576132c361313a565b5b6132d0848285016131c6565b606083015250608082013567ffffffffffffffff8111156132f4576132f361313a565b5b613300848285016131c6565b60808301525092915050565b6000806000806060858703121561332657613325612c7d565b5b600061333487828801613040565b945050602085013567ffffffffffffffff81111561335557613354612c82565b5b61336187828801613064565b9350935050604085013567ffffffffffffffff81111561338457613383612c82565b5b613390878288016131f4565b91505092959194509250565b6133a581612d55565b82525050565b60006020820190506133c0600083018461339c565b92915050565b600060a08301600083015184820360008601526133e38282612e39565b915050602083015184820360208601526133fd8282612e39565b915050604083015184820360408601526134178282612e39565b915050606083015184820360608601526134318282612e39565b9150506080830151848203608086015261344b8282612e39565b9150508091505092915050565b6000602082019050818103600083015261347281846133c6565b905092915050565b6000602082840312156134905761348f612c7d565b5b600061349e84828501612ca8565b91505092915050565b6000806000606084860312156134c0576134bf612c7d565b5b60006134ce86828701612d7e565b935050602084013567ffffffffffffffff8111156134ef576134ee612c82565b5b6134fb868287016131c6565b925050604061350c86828701612ca8565b9150509250925092565b60008151905061352581612cc9565b92915050565b60006020828403121561354157613540612c7d565b5b600061354f84828501613516565b91505092915050565b600082825260208201905092915050565b7f4f6e6c792070617469656e74732063616e206163636573732074686973000000600082015250565b600061359f601d83613558565b91506135aa82613569565b602082019050919050565b600060208201905081810360008301526135ce81613592565b9050919050565b6000815190506135e481612c91565b92915050565b600060208284031215613600576135ff612c7d565b5b600061360e848285016135d5565b91505092915050565b7f4e487b7100000000000000000000000000000000000000000000000000000000600052602260045260246000fd5b6000600282049050600182168061365e57607f821691505b60208210810361367157613670613617565b5b50919050565b60006136838385613558565b9350613690838584613175565b61369983612e28565b840190509392505050565b60006040820190506136b9600083018661339c565b81810360208301526136cc818486613677565b9050949350505050565b60008190508160005260206000209050919050565b60006020601f8301049050919050565b600082821b905092915050565b6000600883026137387fffffffffffffffffffffffffffffffffffffffffffffffffffffffffffffffff826136fb565b61374286836136fb565b95508019841693508086168417925050509392505050565b6000819050919050565b600061377f61377a61377584612c87565b61375a565b612c87565b9050919050565b6000819050919050565b61379983613764565b6137ad6137a582613786565b848454613708565b825550505050565b600090565b6137c26137b5565b6137cd818484613790565b505050565b5b818110156137f1576137e66000826137ba565b6001810190506137d3565b5050565b601f82111561383657613807816136d6565b613810846136eb565b8101602085101561381f578190505b61383361382b856136eb565b8301826137d2565b50505b505050565b600082821c905092915050565b60006138596000198460080261383b565b1980831691505092915050565b60006138728383613848565b9150826002028217905092915050565b61388b82612de2565b67ffffffffffffffff8111156138a4576138a36130bf565b5b6138ae8254613646565b6138b98282856137f5565b600060209050601f8311600181146138ec57600084156138da578287015190505b6138e48582613866565b86555061394c565b601f1984166138fa866136d6565b60005b82811015613922578489015182556001820191506020850194506020810190506138fd565b8683101561393f578489015161393b601f891682613848565b8355505b6001600288020188555050505b505050505050565b7f416363657373206973206f6e6c7920666f7220646f63746f7273000000000000600082015250565b600061398a601a83613558565b915061399582613954565b602082019050919050565b600060208201905081810360008301526139b98161397d565b9050919050565b7f4f776e61626c653a206e6577206f776e657220697320746865207a65726f206160008201527f6464726573730000000000000000000000000000000000000000000000000000602082015250565b6000613a1c602683613558565b9150613a27826139c0565b604082019050919050565b60006020820190508181036000830152613a4b81613a0f565b9050919050565b7f4f6e6c792050617469656e74732063616e206163636573732074686973000000600082015250565b6000613a88601d83613558565b9150613a9382613a52565b602082019050919050565b60006020820190508181036000830152613ab781613a7b565b9050919050565b7f41646472657373206973206e6f74206120646f63746f72000000000000000000600082015250565b6000613af4601783613558565b9150613aff82613abe565b602082019050919050565b60006020820190508181036000830152613b2381613ae7565b9050919050565b7f4e487b7100000000000000000000000000000000000000000000000000000000600052601160045260246000fd5b6000613b6482612c87565b91507fffffffffffffffffffffffffffffffffffffffffffffffffffffffffffffffff8203613b9657613b95613b2a565b5b600182019050919050565b7f4f776e61626c653a2063616c6c6572206973206e6f7420746865206f776e6572600082015250565b6000613bd7602083613558565b9150613be282613ba1565b602082019050919050565b60006020820190508181036000830152613c0681613bca565b905091905056fea264697066735822122067cdbc5e948a8a5332aeaeeeee0cec0b1bcdbe80890d45bfac34a19bf7dd838564736f6c63430008110033",
  "linkReferences": {},
  "deployedLinkReferences": {}
}