{
  "_format": "hh-sol-artifact-1",
  "contractName": "FVMMedicare",
  "sourceName": "contracts/FVMMedicare.sol",
  "abi": [
    {
      "inputs": [
        {
          "internalType": "address",
          "name": "_doctorNFTAddress",
          "type": "address"
        },
        {
          "internalType": "address",
          "name": "_patientNFTAddress",
          "type": "address"
        }
      ],
      "stateMutability": "nonpayable",
      "type": "constructor"
    },
    {
      "anonymous": false,
      "inputs": [
        {
          "indexed": true,
          "internalType": "address",
          "name": "previousOwner",
          "type": "address"
        },
        {
          "indexed": true,
          "internalType": "address",
          "name": "newOwner",
          "type": "address"
        }
      ],
      "name": "OwnershipTransferred",
      "type": "event"
    },
    {
      "inputs": [
        {
          "internalType": "address",
          "name": "_patientAddress",
          "type": "address"
        },
        {
          "internalType": "string",
          "name": "_uniqueKey",
          "type": "string"
        }
      ],
      "name": "createDataRequest",
      "outputs": [],
      "stateMutability": "nonpayable",
      "type": "function"
    },
    {
      "inputs": [
        {
          "internalType": "address",
          "name": "_addr",
          "type": "address"
        },
        {
          "internalType": "uint256",
          "name": "_appointmentId",
          "type": "uint256"
        }
      ],
      "name": "getAppointment",
      "outputs": [
        {
          "components": [
            {
              "internalType": "uint256",
              "name": "appointmentId",
              "type": "uint256"
            },
            {
              "internalType": "string",
              "name": "uniqueKey",
              "type": "string"
            },
            {
              "internalType": "address",
              "name": "patientAddress",
              "type": "address"
            },
            {
              "internalType": "address",
              "name": "doctorAddress",
              "type": "address"
            },
            {
              "internalType": "enum FVMMedicare.Status",
              "name": "status",
              "type": "uint8"
            }
          ],
          "internalType": "struct FVMMedicare.Appointment",
          "name": "",
          "type": "tuple"
        }
      ],
      "stateMutability": "view",
      "type": "function"
    },
    {
      "inputs": [
        {
          "internalType": "address",
          "name": "_addr",
          "type": "address"
        }
      ],
      "name": "getAppointmentCount",
      "outputs": [
        {
          "internalType": "uint256",
          "name": "",
          "type": "uint256"
        }
      ],
      "stateMutability": "view",
      "type": "function"
    },
    {
      "inputs": [
        {
          "internalType": "address",
          "name": "_addr",
          "type": "address"
        }
      ],
      "name": "getInformation",
      "outputs": [
        {
          "components": [
            {
              "internalType": "string",
              "name": "userName",
              "type": "string"
            },
            {
              "internalType": "string",
              "name": "userSurname",
              "type": "string"
            },
            {
              "internalType": "string",
              "name": "userBirthDate",
              "type": "string"
            },
            {
              "internalType": "string",
              "name": "speciality",
              "type": "string"
            }
          ],
          "internalType": "struct FVMMedicare.BioData",
          "name": "",
          "type": "tuple"
        }
      ],
      "stateMutability": "view",
      "type": "function"
    },
    {
      "inputs": [
        {
          "internalType": "address",
          "name": "_addr",
          "type": "address"
        },
        {
          "internalType": "uint256",
          "name": "_requestId",
          "type": "uint256"
        }
      ],
      "name": "getRequest",
      "outputs": [
        {
          "components": [
            {
              "internalType": "uint256",
              "name": "requestId",
              "type": "uint256"
            },
            {
              "internalType": "string",
              "name": "uniqueKey",
              "type": "string"
            },
            {
              "internalType": "address",
              "name": "patientAddress",
              "type": "address"
            },
            {
              "internalType": "address",
              "name": "doctorAddress",
              "type": "address"
            },
            {
              "internalType": "enum FVMMedicare.Status",
              "name": "status",
              "type": "uint8"
            }
          ],
          "internalType": "struct FVMMedicare.Request",
          "name": "",
          "type": "tuple"
        }
      ],
      "stateMutability": "view",
      "type": "function"
    },
    {
      "inputs": [
        {
          "internalType": "address",
          "name": "_addr",
          "type": "address"
        }
      ],
      "name": "getRequestCount",
      "outputs": [
        {
          "internalType": "uint256",
          "name": "",
          "type": "uint256"
        }
      ],
      "stateMutability": "view",
      "type": "function"
    },
    {
      "inputs": [
        {
          "internalType": "address",
          "name": "_doctorAddress",
          "type": "address"
        },
        {
          "internalType": "string",
          "name": "_uniqueKey",
          "type": "string"
        }
      ],
      "name": "makeAppointment",
      "outputs": [],
      "stateMutability": "nonpayable",
      "type": "function"
    },
    {
      "inputs": [],
      "name": "owner",
      "outputs": [
        {
          "internalType": "address",
          "name": "",
          "type": "address"
        }
      ],
      "stateMutability": "view",
      "type": "function"
    },
    {
      "inputs": [
        {
          "internalType": "enum FVMMedicare.Category",
          "name": "user",
          "type": "uint8"
        },
        {
          "internalType": "string",
          "name": "uri",
          "type": "string"
        },
        {
          "components": [
            {
              "internalType": "string",
              "name": "userName",
              "type": "string"
            },
            {
              "internalType": "string",
              "name": "userSurname",
              "type": "string"
            },
            {
              "internalType": "string",
              "name": "userBirthDate",
              "type": "string"
            },
            {
              "internalType": "string",
              "name": "speciality",
              "type": "string"
            }
          ],
          "internalType": "struct FVMMedicare.BioData",
          "name": "_biodata",
          "type": "tuple"
        }
      ],
      "name": "register",
      "outputs": [],
      "stateMutability": "nonpayable",
      "type": "function"
    },
    {
      "inputs": [],
      "name": "renounceOwnership",
      "outputs": [],
      "stateMutability": "nonpayable",
      "type": "function"
    },
    {
      "inputs": [
        {
          "internalType": "uint256",
          "name": "_doctorAppointmentId",
          "type": "uint256"
        },
        {
          "internalType": "enum FVMMedicare.Status",
          "name": "_response",
          "type": "uint8"
        }
      ],
      "name": "respondToAppointment",
      "outputs": [],
      "stateMutability": "nonpayable",
      "type": "function"
    },
    {
      "inputs": [
        {
          "internalType": "uint256",
          "name": "_patientRequestId",
          "type": "uint256"
        },
        {
          "internalType": "enum FVMMedicare.Status",
          "name": "_response",
          "type": "uint8"
        }
      ],
      "name": "respondToDataRequest",
      "outputs": [],
      "stateMutability": "nonpayable",
      "type": "function"
    },
    {
      "inputs": [
        {
          "internalType": "address",
          "name": "newOwner",
          "type": "address"
        }
      ],
      "name": "transferOwnership",
      "outputs": [],
      "stateMutability": "nonpayable",
      "type": "function"
    }
  ],
  "bytecode": "0x60806040523480156200001157600080fd5b50604051620046e1380380620046e1833981810160405281019062000037919062000217565b620000576200004b620000e160201b60201c565b620000e960201b60201c565b81600160006101000a81548173ffffffffffffffffffffffffffffffffffffffff021916908373ffffffffffffffffffffffffffffffffffffffff16021790555080600260006101000a81548173ffffffffffffffffffffffffffffffffffffffff021916908373ffffffffffffffffffffffffffffffffffffffff16021790555050506200025e565b600033905090565b60008060009054906101000a900473ffffffffffffffffffffffffffffffffffffffff169050816000806101000a81548173ffffffffffffffffffffffffffffffffffffffff021916908373ffffffffffffffffffffffffffffffffffffffff1602179055508173ffffffffffffffffffffffffffffffffffffffff168173ffffffffffffffffffffffffffffffffffffffff167f8be0079c531659141344cd1fd0a4f28419497f9722a3daafe3b4186f6b6457e060405160405180910390a35050565b600080fd5b600073ffffffffffffffffffffffffffffffffffffffff82169050919050565b6000620001df82620001b2565b9050919050565b620001f181620001d2565b8114620001fd57600080fd5b50565b6000815190506200021181620001e6565b92915050565b60008060408385031215620002315762000230620001ad565b5b6000620002418582860162000200565b9250506020620002548582860162000200565b9150509250929050565b614473806200026e6000396000f3fe608060405234801561001057600080fd5b50600436106100cf5760003560e01c806391a09bd11161008c578063adfd8d5911610066578063adfd8d5914610210578063b33d600a1461022c578063f2bb4eb31461025c578063f2fde38b14610278576100cf565b806391a09bd1146101a8578063ada49963146101c4578063adb72287146101f4576100cf565b8063396c958c146100d45780636c32f3d414610104578063715018a614610120578063726d0a281461012a578063732d85b41461015a5780638da5cb5b1461018a575b600080fd5b6100ee60048036038101906100e9919061350a565b610294565b6040516100fb91906136e5565b60405180910390f35b61011e6004803603810190610119919061383c565b6108a7565b005b610128610ea7565b005b610144600480360381019061013f919061350a565b610ebb565b604051610151919061390e565b60405180910390f35b610174600480360381019061016f9190613930565b6114ce565b604051610181919061396c565b60405180910390f35b610192611797565b60405161019f9190613996565b60405180910390f35b6101c260048036038101906101bd91906139d6565b6117c0565b005b6101de60048036038101906101d99190613930565b611ae2565b6040516101eb919061396c565b60405180910390f35b61020e6004803603810190610209919061383c565b611dab565b005b61022a60048036038101906102259190613b8d565b6123ab565b005b61024660048036038101906102419190613930565b612697565b6040516102539190613c95565b60405180910390f35b610276600480360381019061027191906139d6565b612e71565b005b610292600480360381019061028d9190613930565b613193565b005b61029c613360565b6102a4613360565b600260009054906101000a900473ffffffffffffffffffffffffffffffffffffffff1673ffffffffffffffffffffffffffffffffffffffff166365731fe9856040518263ffffffff1660e01b81526004016102ff9190613996565b602060405180830381865afa15801561031c573d6000803e3d6000fd5b505050506040513d601f19601f820116820180604052508101906103409190613cef565b156105a2576000600260009054906101000a900473ffffffffffffffffffffffffffffffffffffffff1673ffffffffffffffffffffffffffffffffffffffff1663f1537686866040518263ffffffff1660e01b81526004016103a29190613996565b602060405180830381865afa1580156103bf573d6000803e3d6000fd5b505050506040513d601f19601f820116820180604052508101906103e39190613d31565b90506004600082815260200190815260200160002060080160008581526020019081526020016000206040518060a00160405290816000820154815260200160018201805461043190613d8d565b80601f016020809104026020016040519081016040528092919081815260200182805461045d90613d8d565b80156104aa5780601f1061047f576101008083540402835291602001916104aa565b820191906000526020600020905b81548152906001019060200180831161048d57829003601f168201915b505050505081526020016002820160009054906101000a900473ffffffffffffffffffffffffffffffffffffffff1673ffffffffffffffffffffffffffffffffffffffff1673ffffffffffffffffffffffffffffffffffffffff1681526020016003820160009054906101000a900473ffffffffffffffffffffffffffffffffffffffff1673ffffffffffffffffffffffffffffffffffffffff1673ffffffffffffffffffffffffffffffffffffffff1681526020016003820160149054906101000a900460ff166002811115610584576105836135f8565b5b6002811115610596576105956135f8565b5b8152505091505061089d565b600160009054906101000a900473ffffffffffffffffffffffffffffffffffffffff1673ffffffffffffffffffffffffffffffffffffffff166365731fe9856040518263ffffffff1660e01b81526004016105fd9190613996565b602060405180830381865afa15801561061a573d6000803e3d6000fd5b505050506040513d601f19601f8201168201806040525081019061063e9190613cef565b1561089c576000600160009054906101000a900473ffffffffffffffffffffffffffffffffffffffff1673ffffffffffffffffffffffffffffffffffffffff1663f1537686866040518263ffffffff1660e01b81526004016106a09190613996565b602060405180830381865afa1580156106bd573d6000803e3d6000fd5b505050506040513d601f19601f820116820180604052508101906106e19190613d31565b90506003600082815260200190815260200160002060070160008581526020019081526020016000206040518060a00160405290816000820154815260200160018201805461072f90613d8d565b80601f016020809104026020016040519081016040528092919081815260200182805461075b90613d8d565b80156107a85780601f1061077d576101008083540402835291602001916107a8565b820191906000526020600020905b81548152906001019060200180831161078b57829003601f168201915b505050505081526020016002820160009054906101000a900473ffffffffffffffffffffffffffffffffffffffff1673ffffffffffffffffffffffffffffffffffffffff1673ffffffffffffffffffffffffffffffffffffffff1681526020016003820160009054906101000a900473ffffffffffffffffffffffffffffffffffffffff1673ffffffffffffffffffffffffffffffffffffffff1673ffffffffffffffffffffffffffffffffffffffff1681526020016003820160149054906101000a900460ff166002811115610882576108816135f8565b5b6002811115610894576108936135f8565b5b815250509150505b5b8091505092915050565b600260009054906101000a900473ffffffffffffffffffffffffffffffffffffffff1673ffffffffffffffffffffffffffffffffffffffff166365731fe9336040518263ffffffff1660e01b81526004016109029190613996565b602060405180830381865afa15801561091f573d6000803e3d6000fd5b505050506040513d601f19601f820116820180604052508101906109439190613cef565b610982576040517f08c379a000000000000000000000000000000000000000000000000000000000815260040161097990613e1b565b60405180910390fd5b600160009054906101000a900473ffffffffffffffffffffffffffffffffffffffff1673ffffffffffffffffffffffffffffffffffffffff166365731fe9836040518263ffffffff1660e01b81526004016109dd9190613996565b602060405180830381865afa1580156109fa573d6000803e3d6000fd5b505050506040513d601f19601f82011682018060405250810190610a1e9190613cef565b610a5d576040517f08c379a0000000000000000000000000000000000000000000000000000000008152600401610a5490613e87565b60405180910390fd5b6000600160009054906101000a900473ffffffffffffffffffffffffffffffffffffffff1673ffffffffffffffffffffffffffffffffffffffff1663f1537686846040518263ffffffff1660e01b8152600401610aba9190613996565b602060405180830381865afa158015610ad7573d6000803e3d6000fd5b505050506040513d601f19601f82011682018060405250810190610afb9190613d31565b90506000600260009054906101000a900473ffffffffffffffffffffffffffffffffffffffff1673ffffffffffffffffffffffffffffffffffffffff1663f1537686336040518263ffffffff1660e01b8152600401610b5a9190613996565b602060405180830381865afa158015610b77573d6000803e3d6000fd5b505050506040513d601f19601f82011682018060405250810190610b9b9190613d31565b905060006040518060a00160405280600081526020018581526020013373ffffffffffffffffffffffffffffffffffffffff1681526020018673ffffffffffffffffffffffffffffffffffffffff16815260200160006002811115610c0357610c026135f8565b5b81525090506000600460008481526020019081526020016000209050806006016000815480929190610c3490613ed6565b919050555080600601548260000181815250508181600801600083600601548152602001908152602001600020600082015181600001556020820151816001019081610c8091906140ca565b5060408201518160020160006101000a81548173ffffffffffffffffffffffffffffffffffffffff021916908373ffffffffffffffffffffffffffffffffffffffff16021790555060608201518160030160006101000a81548173ffffffffffffffffffffffffffffffffffffffff021916908373ffffffffffffffffffffffffffffffffffffffff16021790555060808201518160030160146101000a81548160ff02191690836002811115610d3a57610d396135f8565b5b02179055509050506000600360008681526020019081526020016000209050806006016000815480929190610d6e90613ed6565b919050555080600601548360000181815250508281600701600083600601548152602001908152602001600020600082015181600001556020820151816001019081610dba91906140ca565b5060408201518160020160006101000a81548173ffffffffffffffffffffffffffffffffffffffff021916908373ffffffffffffffffffffffffffffffffffffffff16021790555060608201518160030160006101000a81548173ffffffffffffffffffffffffffffffffffffffff021916908373ffffffffffffffffffffffffffffffffffffffff16021790555060808201518160030160146101000a81548160ff02191690836002811115610e7457610e736135f8565b5b02179055509050508160060154826009016000836006015481526020019081526020016000208190555050505050505050565b610eaf613216565b610eb96000613294565b565b610ec36133cd565b610ecb6133cd565b600260009054906101000a900473ffffffffffffffffffffffffffffffffffffffff1673ffffffffffffffffffffffffffffffffffffffff166365731fe9856040518263ffffffff1660e01b8152600401610f269190613996565b602060405180830381865afa158015610f43573d6000803e3d6000fd5b505050506040513d601f19601f82011682018060405250810190610f679190613cef565b156111c9576000600260009054906101000a900473ffffffffffffffffffffffffffffffffffffffff1673ffffffffffffffffffffffffffffffffffffffff1663f1537686866040518263ffffffff1660e01b8152600401610fc99190613996565b602060405180830381865afa158015610fe6573d6000803e3d6000fd5b505050506040513d601f19601f8201168201806040525081019061100a9190613d31565b90506004600082815260200190815260200160002060070160008581526020019081526020016000206040518060a00160405290816000820154815260200160018201805461105890613d8d565b80601f016020809104026020016040519081016040528092919081815260200182805461108490613d8d565b80156110d15780601f106110a6576101008083540402835291602001916110d1565b820191906000526020600020905b8154815290600101906020018083116110b457829003601f168201915b505050505081526020016002820160009054906101000a900473ffffffffffffffffffffffffffffffffffffffff1673ffffffffffffffffffffffffffffffffffffffff1673ffffffffffffffffffffffffffffffffffffffff1681526020016003820160009054906101000a900473ffffffffffffffffffffffffffffffffffffffff1673ffffffffffffffffffffffffffffffffffffffff1673ffffffffffffffffffffffffffffffffffffffff1681526020016003820160149054906101000a900460ff1660028111156111ab576111aa6135f8565b5b60028111156111bd576111bc6135f8565b5b815250509150506114c4565b600160009054906101000a900473ffffffffffffffffffffffffffffffffffffffff1673ffffffffffffffffffffffffffffffffffffffff166365731fe9856040518263ffffffff1660e01b81526004016112249190613996565b602060405180830381865afa158015611241573d6000803e3d6000fd5b505050506040513d601f19601f820116820180604052508101906112659190613cef565b156114c3576000600160009054906101000a900473ffffffffffffffffffffffffffffffffffffffff1673ffffffffffffffffffffffffffffffffffffffff1663f1537686866040518263ffffffff1660e01b81526004016112c79190613996565b602060405180830381865afa1580156112e4573d6000803e3d6000fd5b505050506040513d601f19601f820116820180604052508101906113089190613d31565b90506003600082815260200190815260200160002060080160008581526020019081526020016000206040518060a00160405290816000820154815260200160018201805461135690613d8d565b80601f016020809104026020016040519081016040528092919081815260200182805461138290613d8d565b80156113cf5780601f106113a4576101008083540402835291602001916113cf565b820191906000526020600020905b8154815290600101906020018083116113b257829003601f168201915b505050505081526020016002820160009054906101000a900473ffffffffffffffffffffffffffffffffffffffff1673ffffffffffffffffffffffffffffffffffffffff1673ffffffffffffffffffffffffffffffffffffffff1681526020016003820160009054906101000a900473ffffffffffffffffffffffffffffffffffffffff1673ffffffffffffffffffffffffffffffffffffffff1673ffffffffffffffffffffffffffffffffffffffff1681526020016003820160149054906101000a900460ff1660028111156114a9576114a86135f8565b5b60028111156114bb576114ba6135f8565b5b815250509150505b5b8091505092915050565b600080600260009054906101000a900473ffffffffffffffffffffffffffffffffffffffff1673ffffffffffffffffffffffffffffffffffffffff166365731fe9846040518263ffffffff1660e01b815260040161152c9190613996565b602060405180830381865afa158015611549573d6000803e3d6000fd5b505050506040513d601f19601f8201168201806040525081019061156d9190613cef565b15611631576000600260009054906101000a900473ffffffffffffffffffffffffffffffffffffffff1673ffffffffffffffffffffffffffffffffffffffff1663f1537686856040518263ffffffff1660e01b81526004016115cf9190613996565b602060405180830381865afa1580156115ec573d6000803e3d6000fd5b505050506040513d601f19601f820116820180604052508101906116109190613d31565b9050600460008281526020019081526020016000206006015491505061178e565b600160009054906101000a900473ffffffffffffffffffffffffffffffffffffffff1673ffffffffffffffffffffffffffffffffffffffff166365731fe9846040518263ffffffff1660e01b815260040161168c9190613996565b602060405180830381865afa1580156116a9573d6000803e3d6000fd5b505050506040513d601f19601f820116820180604052508101906116cd9190613cef565b1561178d576000600160009054906101000a900473ffffffffffffffffffffffffffffffffffffffff1673ffffffffffffffffffffffffffffffffffffffff1663f1537686856040518263ffffffff1660e01b815260040161172f9190613996565b602060405180830381865afa15801561174c573d6000803e3d6000fd5b505050506040513d601f19601f820116820180604052508101906117709190613d31565b905060036000828152602001908152602001600020600601549150505b5b80915050919050565b60008060009054906101000a900473ffffffffffffffffffffffffffffffffffffffff16905090565b600260009054906101000a900473ffffffffffffffffffffffffffffffffffffffff1673ffffffffffffffffffffffffffffffffffffffff166365731fe9336040518263ffffffff1660e01b815260040161181b9190613996565b602060405180830381865afa158015611838573d6000803e3d6000fd5b505050506040513d601f19601f8201168201806040525081019061185c9190613cef565b61189b576040517f08c379a0000000000000000000000000000000000000000000000000000000008152600401611892906141e8565b60405180910390fd5b6000600260009054906101000a900473ffffffffffffffffffffffffffffffffffffffff1673ffffffffffffffffffffffffffffffffffffffff1663f1537686336040518263ffffffff1660e01b81526004016118f89190613996565b602060405180830381865afa158015611915573d6000803e3d6000fd5b505050506040513d601f19601f820116820180604052508101906119399190613d31565b905060006004600083815260200190815260200160002060070160008581526020019081526020016000209050828160030160146101000a81548160ff0219169083600281111561198d5761198c6135f8565b5b02179055506000600160009054906101000a900473ffffffffffffffffffffffffffffffffffffffff1673ffffffffffffffffffffffffffffffffffffffff1663f15376868360030160009054906101000a900473ffffffffffffffffffffffffffffffffffffffff166040518263ffffffff1660e01b8152600401611a139190613996565b602060405180830381865afa158015611a30573d6000803e3d6000fd5b505050506040513d601f19601f82011682018060405250810190611a549190613d31565b9050600060036000838152602001908152602001600020600901600087815260200190815260200160002054905060006003600084815260200190815260200160002060080160008381526020019081526020016000209050858160030160146101000a81548160ff02191690836002811115611ad457611ad36135f8565b5b021790555050505050505050565b600080600260009054906101000a900473ffffffffffffffffffffffffffffffffffffffff1673ffffffffffffffffffffffffffffffffffffffff166365731fe9846040518263ffffffff1660e01b8152600401611b409190613996565b602060405180830381865afa158015611b5d573d6000803e3d6000fd5b505050506040513d601f19601f82011682018060405250810190611b819190613cef565b15611c45576000600260009054906101000a900473ffffffffffffffffffffffffffffffffffffffff1673ffffffffffffffffffffffffffffffffffffffff1663f1537686856040518263ffffffff1660e01b8152600401611be39190613996565b602060405180830381865afa158015611c00573d6000803e3d6000fd5b505050506040513d601f19601f82011682018060405250810190611c249190613d31565b90506004600082815260200190815260200160002060050154915050611da2565b600160009054906101000a900473ffffffffffffffffffffffffffffffffffffffff1673ffffffffffffffffffffffffffffffffffffffff166365731fe9846040518263ffffffff1660e01b8152600401611ca09190613996565b602060405180830381865afa158015611cbd573d6000803e3d6000fd5b505050506040513d601f19601f82011682018060405250810190611ce19190613cef565b15611da1576000600160009054906101000a900473ffffffffffffffffffffffffffffffffffffffff1673ffffffffffffffffffffffffffffffffffffffff1663f1537686856040518263ffffffff1660e01b8152600401611d439190613996565b602060405180830381865afa158015611d60573d6000803e3d6000fd5b505050506040513d601f19601f82011682018060405250810190611d849190613d31565b905060036000828152602001908152602001600020600501549150505b5b80915050919050565b600160009054906101000a900473ffffffffffffffffffffffffffffffffffffffff1673ffffffffffffffffffffffffffffffffffffffff166365731fe9336040518263ffffffff1660e01b8152600401611e069190613996565b602060405180830381865afa158015611e23573d6000803e3d6000fd5b505050506040513d601f19601f82011682018060405250810190611e479190613cef565b611e86576040517f08c379a0000000000000000000000000000000000000000000000000000000008152600401611e7d90614254565b60405180910390fd5b600260009054906101000a900473ffffffffffffffffffffffffffffffffffffffff1673ffffffffffffffffffffffffffffffffffffffff166365731fe9836040518263ffffffff1660e01b8152600401611ee19190613996565b602060405180830381865afa158015611efe573d6000803e3d6000fd5b505050506040513d601f19601f82011682018060405250810190611f229190613cef565b611f61576040517f08c379a0000000000000000000000000000000000000000000000000000000008152600401611f58906142c0565b60405180910390fd5b6000600160009054906101000a900473ffffffffffffffffffffffffffffffffffffffff1673ffffffffffffffffffffffffffffffffffffffff1663f1537686336040518263ffffffff1660e01b8152600401611fbe9190613996565b602060405180830381865afa158015611fdb573d6000803e3d6000fd5b505050506040513d601f19601f82011682018060405250810190611fff9190613d31565b90506000600260009054906101000a900473ffffffffffffffffffffffffffffffffffffffff1673ffffffffffffffffffffffffffffffffffffffff1663f1537686856040518263ffffffff1660e01b815260040161205e9190613996565b602060405180830381865afa15801561207b573d6000803e3d6000fd5b505050506040513d601f19601f8201168201806040525081019061209f9190613d31565b905060006040518060a00160405280600081526020018581526020018673ffffffffffffffffffffffffffffffffffffffff1681526020013373ffffffffffffffffffffffffffffffffffffffff16815260200160006002811115612107576121066135f8565b5b8152509050600060036000858152602001908152602001600020905080600501600081548092919061213890613ed6565b91905055508060050154826000018181525050818160080160008360050154815260200190815260200160002060008201518160000155602082015181600101908161218491906140ca565b5060408201518160020160006101000a81548173ffffffffffffffffffffffffffffffffffffffff021916908373ffffffffffffffffffffffffffffffffffffffff16021790555060608201518160030160006101000a81548173ffffffffffffffffffffffffffffffffffffffff021916908373ffffffffffffffffffffffffffffffffffffffff16021790555060808201518160030160146101000a81548160ff0219169083600281111561223e5761223d6135f8565b5b0217905550905050600060046000858152602001908152602001600020905080600501600081548092919061227290613ed6565b9190505550806005015483600001818152505082816007016000836005015481526020019081526020016000206000820151816000015560208201518160010190816122be91906140ca565b5060408201518160020160006101000a81548173ffffffffffffffffffffffffffffffffffffffff021916908373ffffffffffffffffffffffffffffffffffffffff16021790555060608201518160030160006101000a81548173ffffffffffffffffffffffffffffffffffffffff021916908373ffffffffffffffffffffffffffffffffffffffff16021790555060808201518160030160146101000a81548160ff02191690836002811115612378576123776135f8565b5b02179055509050508160050154826009016000836005015481526020019081526020016000208190555050505050505050565b600060018111156123bf576123be6135f8565b5b8460018111156123d2576123d16135f8565b5b03612520576000600160009054906101000a900473ffffffffffffffffffffffffffffffffffffffff1673ffffffffffffffffffffffffffffffffffffffff1663ff8470c03386866040518463ffffffff1660e01b81526004016124389392919061430d565b6020604051808303816000875af1158015612457573d6000803e3d6000fd5b505050506040513d601f19601f8201168201806040525081019061247b9190613d31565b90506000600360008381526020019081526020016000209050338160000160006101000a81548173ffffffffffffffffffffffffffffffffffffffff021916908373ffffffffffffffffffffffffffffffffffffffff16021790555082600001518160010190816124ec91906140ca565b50826040015181600301908161250291906140ca565b50826060015181600401908161251891906140ca565b505050612691565b600180811115612533576125326135f8565b5b846001811115612546576125456135f8565b5b03612690576000600260009054906101000a900473ffffffffffffffffffffffffffffffffffffffff1673ffffffffffffffffffffffffffffffffffffffff1663ff8470c03386866040518463ffffffff1660e01b81526004016125ac9392919061430d565b6020604051808303816000875af11580156125cb573d6000803e3d6000fd5b505050506040513d601f19601f820116820180604052508101906125ef9190613d31565b90506000600460008381526020019081526020016000209050338160000160006101000a81548173ffffffffffffffffffffffffffffffffffffffff021916908373ffffffffffffffffffffffffffffffffffffffff160217905550826000015181600101908161266091906140ca565b50826040015181600301908161267691906140ca565b50826060015181600401908161268c91906140ca565b5050505b5b50505050565b61269f61343a565b6126a761343a565b600260009054906101000a900473ffffffffffffffffffffffffffffffffffffffff1673ffffffffffffffffffffffffffffffffffffffff166365731fe9846040518263ffffffff1660e01b81526004016127029190613996565b602060405180830381865afa15801561271f573d6000803e3d6000fd5b505050506040513d601f19601f820116820180604052508101906127439190613cef565b15612a89576000600260009054906101000a900473ffffffffffffffffffffffffffffffffffffffff1673ffffffffffffffffffffffffffffffffffffffff1663f1537686856040518263ffffffff1660e01b81526004016127a59190613996565b602060405180830381865afa1580156127c2573d6000803e3d6000fd5b505050506040513d601f19601f820116820180604052508101906127e69190613d31565b9050604051806080016040528060046000848152602001908152602001600020600101805461281490613d8d565b80601f016020809104026020016040519081016040528092919081815260200182805461284090613d8d565b801561288d5780601f106128625761010080835404028352916020019161288d565b820191906000526020600020905b81548152906001019060200180831161287057829003601f168201915b505050505081526020016004600084815260200190815260200160002060020180546128b890613d8d565b80601f01602080910402602001604051908101604052809291908181526020018280546128e490613d8d565b80156129315780601f1061290657610100808354040283529160200191612931565b820191906000526020600020905b81548152906001019060200180831161291457829003601f168201915b5050505050815260200160046000848152602001908152602001600020600301805461295c90613d8d565b80601f016020809104026020016040519081016040528092919081815260200182805461298890613d8d565b80156129d55780601f106129aa576101008083540402835291602001916129d5565b820191906000526020600020905b8154815290600101906020018083116129b857829003601f168201915b50505050508152602001600460008481526020019081526020016000206004018054612a0090613d8d565b80601f0160208091040260200160405190810160405280929190818152602001828054612a2c90613d8d565b8015612a795780601f10612a4e57610100808354040283529160200191612a79565b820191906000526020600020905b815481529060010190602001808311612a5c57829003601f168201915b5050505050815250915050612e68565b600160009054906101000a900473ffffffffffffffffffffffffffffffffffffffff1673ffffffffffffffffffffffffffffffffffffffff166365731fe9846040518263ffffffff1660e01b8152600401612ae49190613996565b602060405180830381865afa158015612b01573d6000803e3d6000fd5b505050506040513d601f19601f82011682018060405250810190612b259190613cef565b15612e67576000600160009054906101000a900473ffffffffffffffffffffffffffffffffffffffff1673ffffffffffffffffffffffffffffffffffffffff1663f1537686856040518263ffffffff1660e01b8152600401612b879190613996565b602060405180830381865afa158015612ba4573d6000803e3d6000fd5b505050506040513d601f19601f82011682018060405250810190612bc89190613d31565b90506040518060800160405280600360008481526020019081526020016000206001018054612bf690613d8d565b80601f0160208091040260200160405190810160405280929190818152602001828054612c2290613d8d565b8015612c6f5780601f10612c4457610100808354040283529160200191612c6f565b820191906000526020600020905b815481529060010190602001808311612c5257829003601f168201915b50505050508152602001600360008481526020019081526020016000206002018054612c9a90613d8d565b80601f0160208091040260200160405190810160405280929190818152602001828054612cc690613d8d565b8015612d135780601f10612ce857610100808354040283529160200191612d13565b820191906000526020600020905b815481529060010190602001808311612cf657829003601f168201915b50505050508152602001600360008481526020019081526020016000206003018054612d3e90613d8d565b80601f0160208091040260200160405190810160405280929190818152602001828054612d6a90613d8d565b8015612db75780601f10612d8c57610100808354040283529160200191612db7565b820191906000526020600020905b815481529060010190602001808311612d9a57829003601f168201915b50505050508152602001600360008481526020019081526020016000206004018054612de290613d8d565b80601f0160208091040260200160405190810160405280929190818152602001828054612e0e90613d8d565b8015612e5b5780601f10612e3057610100808354040283529160200191612e5b565b820191906000526020600020905b815481529060010190602001808311612e3e57829003601f168201915b50505050508152509150505b5b80915050919050565b600160009054906101000a900473ffffffffffffffffffffffffffffffffffffffff1673ffffffffffffffffffffffffffffffffffffffff166365731fe9336040518263ffffffff1660e01b8152600401612ecc9190613996565b602060405180830381865afa158015612ee9573d6000803e3d6000fd5b505050506040513d601f19601f82011682018060405250810190612f0d9190613cef565b612f4c576040517f08c379a0000000000000000000000000000000000000000000000000000000008152600401612f4390614254565b60405180910390fd5b6000600160009054906101000a900473ffffffffffffffffffffffffffffffffffffffff1673ffffffffffffffffffffffffffffffffffffffff1663f1537686336040518263ffffffff1660e01b8152600401612fa99190613996565b602060405180830381865afa158015612fc6573d6000803e3d6000fd5b505050506040513d601f19601f82011682018060405250810190612fea9190613d31565b905060006003600083815260200190815260200160002060070160008581526020019081526020016000209050828160030160146101000a81548160ff0219169083600281111561303e5761303d6135f8565b5b02179055506000600260009054906101000a900473ffffffffffffffffffffffffffffffffffffffff1673ffffffffffffffffffffffffffffffffffffffff1663f15376868360020160009054906101000a900473ffffffffffffffffffffffffffffffffffffffff166040518263ffffffff1660e01b81526004016130c49190613996565b602060405180830381865afa1580156130e1573d6000803e3d6000fd5b505050506040513d601f19601f820116820180604052508101906131059190613d31565b9050600060046000838152602001908152602001600020600901600087815260200190815260200160002054905060006004600084815260200190815260200160002060080160008381526020019081526020016000209050858160030160146101000a81548160ff02191690836002811115613185576131846135f8565b5b021790555050505050505050565b61319b613216565b600073ffffffffffffffffffffffffffffffffffffffff168173ffffffffffffffffffffffffffffffffffffffff160361320a576040517f08c379a0000000000000000000000000000000000000000000000000000000008152600401613201906143b1565b60405180910390fd5b61321381613294565b50565b61321e613358565b73ffffffffffffffffffffffffffffffffffffffff1661323c611797565b73ffffffffffffffffffffffffffffffffffffffff1614613292576040517f08c379a00000000000000000000000000000000000000000000000000000000081526004016132899061441d565b60405180910390fd5b565b60008060009054906101000a900473ffffffffffffffffffffffffffffffffffffffff169050816000806101000a81548173ffffffffffffffffffffffffffffffffffffffff021916908373ffffffffffffffffffffffffffffffffffffffff1602179055508173ffffffffffffffffffffffffffffffffffffffff168173ffffffffffffffffffffffffffffffffffffffff167f8be0079c531659141344cd1fd0a4f28419497f9722a3daafe3b4186f6b6457e060405160405180910390a35050565b600033905090565b6040518060a001604052806000815260200160608152602001600073ffffffffffffffffffffffffffffffffffffffff168152602001600073ffffffffffffffffffffffffffffffffffffffff168152602001600060028111156133c7576133c66135f8565b5b81525090565b6040518060a001604052806000815260200160608152602001600073ffffffffffffffffffffffffffffffffffffffff168152602001600073ffffffffffffffffffffffffffffffffffffffff16815260200160006002811115613434576134336135f8565b5b81525090565b6040518060800160405280606081526020016060815260200160608152602001606081525090565b6000604051905090565b600080fd5b600080fd5b600073ffffffffffffffffffffffffffffffffffffffff82169050919050565b60006134a182613476565b9050919050565b6134b181613496565b81146134bc57600080fd5b50565b6000813590506134ce816134a8565b92915050565b6000819050919050565b6134e7816134d4565b81146134f257600080fd5b50565b600081359050613504816134de565b92915050565b600080604083850312156135215761352061346c565b5b600061352f858286016134bf565b9250506020613540858286016134f5565b9150509250929050565b613553816134d4565b82525050565b600081519050919050565b600082825260208201905092915050565b60005b83811015613593578082015181840152602081019050613578565b60008484015250505050565b6000601f19601f8301169050919050565b60006135bb82613559565b6135c58185613564565b93506135d5818560208601613575565b6135de8161359f565b840191505092915050565b6135f281613496565b82525050565b7f4e487b7100000000000000000000000000000000000000000000000000000000600052602160045260246000fd5b60038110613638576136376135f8565b5b50565b600081905061364982613627565b919050565b60006136598261363b565b9050919050565b6136698161364e565b82525050565b600060a083016000830151613687600086018261354a565b506020830151848203602086015261369f82826135b0565b91505060408301516136b460408601826135e9565b5060608301516136c760608601826135e9565b5060808301516136da6080860182613660565b508091505092915050565b600060208201905081810360008301526136ff818461366f565b905092915050565b600080fd5b600080fd5b7f4e487b7100000000000000000000000000000000000000000000000000000000600052604160045260246000fd5b6137498261359f565b810181811067ffffffffffffffff8211171561376857613767613711565b5b80604052505050565b600061377b613462565b90506137878282613740565b919050565b600067ffffffffffffffff8211156137a7576137a6613711565b5b6137b08261359f565b9050602081019050919050565b82818337600083830152505050565b60006137df6137da8461378c565b613771565b9050828152602081018484840111156137fb576137fa61370c565b5b6138068482856137bd565b509392505050565b600082601f83011261382357613822613707565b5b81356138338482602086016137cc565b91505092915050565b600080604083850312156138535761385261346c565b5b6000613861858286016134bf565b925050602083013567ffffffffffffffff81111561388257613881613471565b5b61388e8582860161380e565b9150509250929050565b600060a0830160008301516138b0600086018261354a565b50602083015184820360208601526138c882826135b0565b91505060408301516138dd60408601826135e9565b5060608301516138f060608601826135e9565b5060808301516139036080860182613660565b508091505092915050565b600060208201905081810360008301526139288184613898565b905092915050565b6000602082840312156139465761394561346c565b5b6000613954848285016134bf565b91505092915050565b613966816134d4565b82525050565b6000602082019050613981600083018461395d565b92915050565b61399081613496565b82525050565b60006020820190506139ab6000830184613987565b92915050565b600381106139be57600080fd5b50565b6000813590506139d0816139b1565b92915050565b600080604083850312156139ed576139ec61346c565b5b60006139fb858286016134f5565b9250506020613a0c858286016139c1565b9150509250929050565b60028110613a2357600080fd5b50565b600081359050613a3581613a16565b92915050565b600080fd5b600080fd5b60008083601f840112613a5b57613a5a613707565b5b8235905067ffffffffffffffff811115613a7857613a77613a3b565b5b602083019150836001820283011115613a9457613a93613a40565b5b9250929050565b600080fd5b600080fd5b600060808284031215613abb57613aba613a9b565b5b613ac56080613771565b9050600082013567ffffffffffffffff811115613ae557613ae4613aa0565b5b613af18482850161380e565b600083015250602082013567ffffffffffffffff811115613b1557613b14613aa0565b5b613b218482850161380e565b602083015250604082013567ffffffffffffffff811115613b4557613b44613aa0565b5b613b518482850161380e565b604083015250606082013567ffffffffffffffff811115613b7557613b74613aa0565b5b613b818482850161380e565b60608301525092915050565b60008060008060608587031215613ba757613ba661346c565b5b6000613bb587828801613a26565b945050602085013567ffffffffffffffff811115613bd657613bd5613471565b5b613be287828801613a45565b9350935050604085013567ffffffffffffffff811115613c0557613c04613471565b5b613c1187828801613aa5565b91505092959194509250565b60006080830160008301518482036000860152613c3a82826135b0565b91505060208301518482036020860152613c5482826135b0565b91505060408301518482036040860152613c6e82826135b0565b91505060608301518482036060860152613c8882826135b0565b9150508091505092915050565b60006020820190508181036000830152613caf8184613c1d565b905092915050565b60008115159050919050565b613ccc81613cb7565b8114613cd757600080fd5b50565b600081519050613ce981613cc3565b92915050565b600060208284031215613d0557613d0461346c565b5b6000613d1384828501613cda565b91505092915050565b600081519050613d2b816134de565b92915050565b600060208284031215613d4757613d4661346c565b5b6000613d5584828501613d1c565b91505092915050565b7f4e487b7100000000000000000000000000000000000000000000000000000000600052602260045260246000fd5b60006002820490506001821680613da557607f821691505b602082108103613db857613db7613d5e565b5b50919050565b600082825260208201905092915050565b7f4f6e6c792050617469656e74732063616e206163636573732074686973000000600082015250565b6000613e05601d83613dbe565b9150613e1082613dcf565b602082019050919050565b60006020820190508181036000830152613e3481613df8565b9050919050565b7f41646472657373206973206e6f74206120646f63746f72000000000000000000600082015250565b6000613e71601783613dbe565b9150613e7c82613e3b565b602082019050919050565b60006020820190508181036000830152613ea081613e64565b9050919050565b7f4e487b7100000000000000000000000000000000000000000000000000000000600052601160045260246000fd5b6000613ee1826134d4565b91507fffffffffffffffffffffffffffffffffffffffffffffffffffffffffffffffff8203613f1357613f12613ea7565b5b600182019050919050565b60008190508160005260206000209050919050565b60006020601f8301049050919050565b600082821b905092915050565b600060088302613f807fffffffffffffffffffffffffffffffffffffffffffffffffffffffffffffffff82613f43565b613f8a8683613f43565b95508019841693508086168417925050509392505050565b6000819050919050565b6000613fc7613fc2613fbd846134d4565b613fa2565b6134d4565b9050919050565b6000819050919050565b613fe183613fac565b613ff5613fed82613fce565b848454613f50565b825550505050565b600090565b61400a613ffd565b614015818484613fd8565b505050565b5b818110156140395761402e600082614002565b60018101905061401b565b5050565b601f82111561407e5761404f81613f1e565b61405884613f33565b81016020851015614067578190505b61407b61407385613f33565b83018261401a565b50505b505050565b600082821c905092915050565b60006140a160001984600802614083565b1980831691505092915050565b60006140ba8383614090565b9150826002028217905092915050565b6140d382613559565b67ffffffffffffffff8111156140ec576140eb613711565b5b6140f68254613d8d565b61410182828561403d565b600060209050601f8311600181146141345760008415614122578287015190505b61412c85826140ae565b865550614194565b601f19841661414286613f1e565b60005b8281101561416a57848901518255600182019150602085019450602081019050614145565b868310156141875784890151614183601f891682614090565b8355505b6001600288020188555050505b505050505050565b7f4f6e6c792070617469656e74732063616e206163636573732074686973000000600082015250565b60006141d2601d83613dbe565b91506141dd8261419c565b602082019050919050565b60006020820190508181036000830152614201816141c5565b9050919050565b7f4f6e6c7920646f63746f72732063616e20616363657373207468697300000000600082015250565b600061423e601c83613dbe565b915061424982614208565b602082019050919050565b6000602082019050818103600083015261426d81614231565b9050919050565b7f50617469656e74206973206e6f74206120646f63746f72000000000000000000600082015250565b60006142aa601783613dbe565b91506142b582614274565b602082019050919050565b600060208201905081810360008301526142d98161429d565b9050919050565b60006142ec8385613dbe565b93506142f98385846137bd565b6143028361359f565b840190509392505050565b60006040820190506143226000830186613987565b81810360208301526143358184866142e0565b9050949350505050565b7f4f776e61626c653a206e6577206f776e657220697320746865207a65726f206160008201527f6464726573730000000000000000000000000000000000000000000000000000602082015250565b600061439b602683613dbe565b91506143a68261433f565b604082019050919050565b600060208201905081810360008301526143ca8161438e565b9050919050565b7f4f776e61626c653a2063616c6c6572206973206e6f7420746865206f776e6572600082015250565b6000614407602083613dbe565b9150614412826143d1565b602082019050919050565b60006020820190508181036000830152614436816143fa565b905091905056fea264697066735822122016da9a379e7ba864ca020f9e1629c22482937e2878f78b5666f1b47c7e2dcb1f64736f6c63430008110033",
  "linkReferences": {},
  "deployedLinkReferences": {}
}