{
  "_format": "hh-sol-artifact-1",
  "contractName": "FVMMedicare",
  "sourceName": "contracts/FVMMedicare.sol",
  "abi": [
    {
      "inputs": [
        {
          "internalType": "address",
          "name": "_doctorNFTAddress",
          "type": "address"
        },
        {
          "internalType": "address",
          "name": "_patientNFTAddress",
          "type": "address"
        }
      ],
      "stateMutability": "nonpayable",
      "type": "constructor"
    },
    {
      "anonymous": false,
      "inputs": [
        {
          "indexed": true,
          "internalType": "address",
          "name": "previousOwner",
          "type": "address"
        },
        {
          "indexed": true,
          "internalType": "address",
          "name": "newOwner",
          "type": "address"
        }
      ],
      "name": "OwnershipTransferred",
      "type": "event"
    },
    {
      "inputs": [
        {
          "internalType": "address",
          "name": "_patientAddress",
          "type": "address"
        }
      ],
      "name": "createDataRequest",
      "outputs": [],
      "stateMutability": "nonpayable",
      "type": "function"
    },
    {
      "inputs": [
        {
          "internalType": "address",
          "name": "_addr",
          "type": "address"
        },
        {
          "internalType": "uint256",
          "name": "_appointmentId",
          "type": "uint256"
        }
      ],
      "name": "getAppointment",
      "outputs": [
        {
          "components": [
            {
              "internalType": "uint256",
              "name": "appointmentId",
              "type": "uint256"
            },
            {
              "internalType": "address",
              "name": "patientAddress",
              "type": "address"
            },
            {
              "internalType": "address",
              "name": "doctorAddress",
              "type": "address"
            },
            {
              "components": [
                {
                  "internalType": "string",
                  "name": "date",
                  "type": "string"
                },
                {
                  "internalType": "string",
                  "name": "time",
                  "type": "string"
                }
              ],
              "internalType": "struct FVMMedicare.AppointmentData",
              "name": "schedule",
              "type": "tuple"
            },
            {
              "internalType": "enum FVMMedicare.Status",
              "name": "status",
              "type": "uint8"
            }
          ],
          "internalType": "struct FVMMedicare.Appointment",
          "name": "",
          "type": "tuple"
        }
      ],
      "stateMutability": "view",
      "type": "function"
    },
    {
      "inputs": [
        {
          "internalType": "address",
          "name": "_addr",
          "type": "address"
        }
      ],
      "name": "getAppointmentCount",
      "outputs": [
        {
          "internalType": "uint256",
          "name": "",
          "type": "uint256"
        }
      ],
      "stateMutability": "view",
      "type": "function"
    },
    {
      "inputs": [
        {
          "internalType": "address",
          "name": "_addr",
          "type": "address"
        }
      ],
      "name": "getInformation",
      "outputs": [
        {
          "components": [
            {
              "internalType": "string",
              "name": "userName",
              "type": "string"
            },
            {
              "internalType": "string",
              "name": "userSurname",
              "type": "string"
            },
            {
              "internalType": "string",
              "name": "userBirthDate",
              "type": "string"
            },
            {
              "internalType": "string",
              "name": "speciality",
              "type": "string"
            }
          ],
          "internalType": "struct FVMMedicare.BioData",
          "name": "",
          "type": "tuple"
        }
      ],
      "stateMutability": "view",
      "type": "function"
    },
    {
      "inputs": [
        {
          "internalType": "address",
          "name": "_addr",
          "type": "address"
        },
        {
          "internalType": "uint256",
          "name": "_requestId",
          "type": "uint256"
        }
      ],
      "name": "getRequest",
      "outputs": [
        {
          "components": [
            {
              "internalType": "uint256",
              "name": "requestId",
              "type": "uint256"
            },
            {
              "internalType": "address",
              "name": "patientAddress",
              "type": "address"
            },
            {
              "internalType": "address",
              "name": "doctorAddress",
              "type": "address"
            },
            {
              "internalType": "enum FVMMedicare.Status",
              "name": "status",
              "type": "uint8"
            }
          ],
          "internalType": "struct FVMMedicare.Request",
          "name": "",
          "type": "tuple"
        }
      ],
      "stateMutability": "view",
      "type": "function"
    },
    {
      "inputs": [
        {
          "internalType": "address",
          "name": "_addr",
          "type": "address"
        }
      ],
      "name": "getRequestCount",
      "outputs": [
        {
          "internalType": "uint256",
          "name": "",
          "type": "uint256"
        }
      ],
      "stateMutability": "view",
      "type": "function"
    },
    {
      "inputs": [
        {
          "internalType": "address",
          "name": "_doctorAddress",
          "type": "address"
        },
        {
          "components": [
            {
              "internalType": "string",
              "name": "date",
              "type": "string"
            },
            {
              "internalType": "string",
              "name": "time",
              "type": "string"
            }
          ],
          "internalType": "struct FVMMedicare.AppointmentData",
          "name": "_schedule",
          "type": "tuple"
        }
      ],
      "name": "makeAppointment",
      "outputs": [],
      "stateMutability": "nonpayable",
      "type": "function"
    },
    {
      "inputs": [],
      "name": "owner",
      "outputs": [
        {
          "internalType": "address",
          "name": "",
          "type": "address"
        }
      ],
      "stateMutability": "view",
      "type": "function"
    },
    {
      "inputs": [
        {
          "internalType": "enum FVMMedicare.Category",
          "name": "user",
          "type": "uint8"
        },
        {
          "internalType": "string",
          "name": "uri",
          "type": "string"
        },
        {
          "components": [
            {
              "internalType": "string",
              "name": "userName",
              "type": "string"
            },
            {
              "internalType": "string",
              "name": "userSurname",
              "type": "string"
            },
            {
              "internalType": "string",
              "name": "userBirthDate",
              "type": "string"
            },
            {
              "internalType": "string",
              "name": "speciality",
              "type": "string"
            }
          ],
          "internalType": "struct FVMMedicare.BioData",
          "name": "_biodata",
          "type": "tuple"
        }
      ],
      "name": "register",
      "outputs": [],
      "stateMutability": "nonpayable",
      "type": "function"
    },
    {
      "inputs": [],
      "name": "renounceOwnership",
      "outputs": [],
      "stateMutability": "nonpayable",
      "type": "function"
    },
    {
      "inputs": [
        {
          "internalType": "uint256",
          "name": "_doctorAppointmentId",
          "type": "uint256"
        },
        {
          "internalType": "enum FVMMedicare.Status",
          "name": "_response",
          "type": "uint8"
        }
      ],
      "name": "respondToAppointment",
      "outputs": [],
      "stateMutability": "nonpayable",
      "type": "function"
    },
    {
      "inputs": [
        {
          "internalType": "uint256",
          "name": "_patientRequestId",
          "type": "uint256"
        },
        {
          "internalType": "enum FVMMedicare.Status",
          "name": "_response",
          "type": "uint8"
        }
      ],
      "name": "respondToDataRequest",
      "outputs": [],
      "stateMutability": "nonpayable",
      "type": "function"
    },
    {
      "inputs": [
        {
          "internalType": "address",
          "name": "newOwner",
          "type": "address"
        }
      ],
      "name": "transferOwnership",
      "outputs": [],
      "stateMutability": "nonpayable",
      "type": "function"
    }
  ],
  "bytecode": "0x60806040523480156200001157600080fd5b506040516200481538038062004815833981810160405281019062000037919062000217565b620000576200004b620000e160201b60201c565b620000e960201b60201c565b81600160006101000a81548173ffffffffffffffffffffffffffffffffffffffff021916908373ffffffffffffffffffffffffffffffffffffffff16021790555080600260006101000a81548173ffffffffffffffffffffffffffffffffffffffff021916908373ffffffffffffffffffffffffffffffffffffffff16021790555050506200025e565b600033905090565b60008060009054906101000a900473ffffffffffffffffffffffffffffffffffffffff169050816000806101000a81548173ffffffffffffffffffffffffffffffffffffffff021916908373ffffffffffffffffffffffffffffffffffffffff1602179055508173ffffffffffffffffffffffffffffffffffffffff168173ffffffffffffffffffffffffffffffffffffffff167f8be0079c531659141344cd1fd0a4f28419497f9722a3daafe3b4186f6b6457e060405160405180910390a35050565b600080fd5b600073ffffffffffffffffffffffffffffffffffffffff82169050919050565b6000620001df82620001b2565b9050919050565b620001f181620001d2565b8114620001fd57600080fd5b50565b6000815190506200021181620001e6565b92915050565b60008060408385031215620002315762000230620001ad565b5b6000620002418582860162000200565b9250506020620002548582860162000200565b9150509250929050565b6145a7806200026e6000396000f3fe608060405234801561001057600080fd5b50600436106100cf5760003560e01c80638da5cb5b1161008c578063adfd8d5911610066578063adfd8d5914610210578063b33d600a1461022c578063f2bb4eb31461025c578063f2fde38b14610278576100cf565b80638da5cb5b146101a657806391a09bd1146101c4578063ada49963146101e0576100cf565b806314aeb4d6146100d4578063396c958c146100f0578063715018a614610120578063726d0a281461012a578063732d85b41461015a5780637c87fb7e1461018a575b600080fd5b6100ee60048036038101906100e9919061352d565b610294565b005b61010a60048036038101906101059190613590565b610861565b60405161011791906137af565b60405180910390f35b610128610fc0565b005b610144600480360381019061013f9190613590565b610fd4565b6040516101519190613826565b60405180910390f35b610174600480360381019061016f919061352d565b6114c3565b6040516101819190613850565b60405180910390f35b6101a4600480360381019061019f919061388f565b61178c565b005b6101ae611dd7565b6040516101bb91906138fa565b60405180910390f35b6101de60048036038101906101d9919061393a565b611e00565b005b6101fa60048036038101906101f5919061352d565b612122565b6040516102079190613850565b60405180910390f35b61022a60048036038101906102259190613c26565b6123eb565b005b6102466004803603810190610241919061352d565b6126d7565b6040516102539190613d2e565b60405180910390f35b6102766004803603810190610271919061393a565b612eb1565b005b610292600480360381019061028d919061352d565b6131d3565b005b600160009054906101000a900473ffffffffffffffffffffffffffffffffffffffff1673ffffffffffffffffffffffffffffffffffffffff166365731fe9336040518263ffffffff1660e01b81526004016102ef91906138fa565b602060405180830381865afa15801561030c573d6000803e3d6000fd5b505050506040513d601f19601f820116820180604052508101906103309190613d88565b61036f576040517f08c379a000000000000000000000000000000000000000000000000000000000815260040161036690613e12565b60405180910390fd5b600260009054906101000a900473ffffffffffffffffffffffffffffffffffffffff1673ffffffffffffffffffffffffffffffffffffffff166365731fe9826040518263ffffffff1660e01b81526004016103ca91906138fa565b602060405180830381865afa1580156103e7573d6000803e3d6000fd5b505050506040513d601f19601f8201168201806040525081019061040b9190613d88565b61044a576040517f08c379a000000000000000000000000000000000000000000000000000000000815260040161044190613e7e565b60405180910390fd5b6000600160009054906101000a900473ffffffffffffffffffffffffffffffffffffffff1673ffffffffffffffffffffffffffffffffffffffff1663f1537686336040518263ffffffff1660e01b81526004016104a791906138fa565b602060405180830381865afa1580156104c4573d6000803e3d6000fd5b505050506040513d601f19601f820116820180604052508101906104e89190613eb3565b90506000600260009054906101000a900473ffffffffffffffffffffffffffffffffffffffff1673ffffffffffffffffffffffffffffffffffffffff1663f1537686846040518263ffffffff1660e01b815260040161054791906138fa565b602060405180830381865afa158015610564573d6000803e3d6000fd5b505050506040513d601f19601f820116820180604052508101906105889190613eb3565b905060006040518060800160405280600081526020018573ffffffffffffffffffffffffffffffffffffffff1681526020013373ffffffffffffffffffffffffffffffffffffffff168152602001600060028111156105ea576105e96136c2565b5b8152509050600060036000858152602001908152602001600020905080600501600081548092919061061b90613f0f565b9190505550806005015482600001818152505081816008016000836005015481526020019081526020016000206000820151816000015560208201518160010160006101000a81548173ffffffffffffffffffffffffffffffffffffffff021916908373ffffffffffffffffffffffffffffffffffffffff16021790555060408201518160020160006101000a81548173ffffffffffffffffffffffffffffffffffffffff021916908373ffffffffffffffffffffffffffffffffffffffff16021790555060608201518160020160146101000a81548160ff0219169083600281111561070b5761070a6136c2565b5b0217905550905050600060046000858152602001908152602001600020905080600501600081548092919061073f90613f0f565b9190505550806005015483600001818152505082816007016000836005015481526020019081526020016000206000820151816000015560208201518160010160006101000a81548173ffffffffffffffffffffffffffffffffffffffff021916908373ffffffffffffffffffffffffffffffffffffffff16021790555060408201518160020160006101000a81548173ffffffffffffffffffffffffffffffffffffffff021916908373ffffffffffffffffffffffffffffffffffffffff16021790555060608201518160020160146101000a81548160ff0219169083600281111561082f5761082e6136c2565b5b021790555090505081600501548260090160008360050154815260200190815260200160002081905550505050505050565b6108696133a0565b6108716133a0565b600260009054906101000a900473ffffffffffffffffffffffffffffffffffffffff1673ffffffffffffffffffffffffffffffffffffffff166365731fe9856040518263ffffffff1660e01b81526004016108cc91906138fa565b602060405180830381865afa1580156108e9573d6000803e3d6000fd5b505050506040513d601f19601f8201168201806040525081019061090d9190613d88565b15610c15576000600260009054906101000a900473ffffffffffffffffffffffffffffffffffffffff1673ffffffffffffffffffffffffffffffffffffffff1663f1537686866040518263ffffffff1660e01b815260040161096f91906138fa565b602060405180830381865afa15801561098c573d6000803e3d6000fd5b505050506040513d601f19601f820116820180604052508101906109b09190613eb3565b90506004600082815260200190815260200160002060080160008581526020019081526020016000206040518060a0016040529081600082015481526020016001820160009054906101000a900473ffffffffffffffffffffffffffffffffffffffff1673ffffffffffffffffffffffffffffffffffffffff1673ffffffffffffffffffffffffffffffffffffffff1681526020016002820160009054906101000a900473ffffffffffffffffffffffffffffffffffffffff1673ffffffffffffffffffffffffffffffffffffffff1673ffffffffffffffffffffffffffffffffffffffff16815260200160038201604051806040016040529081600082018054610aba90613f86565b80601f0160208091040260200160405190810160405280929190818152602001828054610ae690613f86565b8015610b335780601f10610b0857610100808354040283529160200191610b33565b820191906000526020600020905b815481529060010190602001808311610b1657829003601f168201915b50505050508152602001600182018054610b4c90613f86565b80601f0160208091040260200160405190810160405280929190818152602001828054610b7890613f86565b8015610bc55780601f10610b9a57610100808354040283529160200191610bc5565b820191906000526020600020905b815481529060010190602001808311610ba857829003601f168201915b50505050508152505081526020016005820160009054906101000a900460ff166002811115610bf757610bf66136c2565b5b6002811115610c0957610c086136c2565b5b81525050915050610fb6565b600160009054906101000a900473ffffffffffffffffffffffffffffffffffffffff1673ffffffffffffffffffffffffffffffffffffffff166365731fe9856040518263ffffffff1660e01b8152600401610c7091906138fa565b602060405180830381865afa158015610c8d573d6000803e3d6000fd5b505050506040513d601f19601f82011682018060405250810190610cb19190613d88565b15610fb5576000600160009054906101000a900473ffffffffffffffffffffffffffffffffffffffff1673ffffffffffffffffffffffffffffffffffffffff1663f1537686866040518263ffffffff1660e01b8152600401610d1391906138fa565b602060405180830381865afa158015610d30573d6000803e3d6000fd5b505050506040513d601f19601f82011682018060405250810190610d549190613eb3565b90506003600082815260200190815260200160002060070160008581526020019081526020016000206040518060a0016040529081600082015481526020016001820160009054906101000a900473ffffffffffffffffffffffffffffffffffffffff1673ffffffffffffffffffffffffffffffffffffffff1673ffffffffffffffffffffffffffffffffffffffff1681526020016002820160009054906101000a900473ffffffffffffffffffffffffffffffffffffffff1673ffffffffffffffffffffffffffffffffffffffff1673ffffffffffffffffffffffffffffffffffffffff16815260200160038201604051806040016040529081600082018054610e5e90613f86565b80601f0160208091040260200160405190810160405280929190818152602001828054610e8a90613f86565b8015610ed75780601f10610eac57610100808354040283529160200191610ed7565b820191906000526020600020905b815481529060010190602001808311610eba57829003601f168201915b50505050508152602001600182018054610ef090613f86565b80601f0160208091040260200160405190810160405280929190818152602001828054610f1c90613f86565b8015610f695780601f10610f3e57610100808354040283529160200191610f69565b820191906000526020600020905b815481529060010190602001808311610f4c57829003601f168201915b50505050508152505081526020016005820160009054906101000a900460ff166002811115610f9b57610f9a6136c2565b5b6002811115610fad57610fac6136c2565b5b815250509150505b5b8091505092915050565b610fc8613256565b610fd260006132d4565b565b610fdc613413565b610fe4613413565b600260009054906101000a900473ffffffffffffffffffffffffffffffffffffffff1673ffffffffffffffffffffffffffffffffffffffff166365731fe9856040518263ffffffff1660e01b815260040161103f91906138fa565b602060405180830381865afa15801561105c573d6000803e3d6000fd5b505050506040513d601f19601f820116820180604052508101906110809190613d88565b15611250576000600260009054906101000a900473ffffffffffffffffffffffffffffffffffffffff1673ffffffffffffffffffffffffffffffffffffffff1663f1537686866040518263ffffffff1660e01b81526004016110e291906138fa565b602060405180830381865afa1580156110ff573d6000803e3d6000fd5b505050506040513d601f19601f820116820180604052508101906111239190613eb3565b9050600460008281526020019081526020016000206007016000858152602001908152602001600020604051806080016040529081600082015481526020016001820160009054906101000a900473ffffffffffffffffffffffffffffffffffffffff1673ffffffffffffffffffffffffffffffffffffffff1673ffffffffffffffffffffffffffffffffffffffff1681526020016002820160009054906101000a900473ffffffffffffffffffffffffffffffffffffffff1673ffffffffffffffffffffffffffffffffffffffff1673ffffffffffffffffffffffffffffffffffffffff1681526020016002820160149054906101000a900460ff166002811115611232576112316136c2565b5b6002811115611244576112436136c2565b5b815250509150506114b9565b600160009054906101000a900473ffffffffffffffffffffffffffffffffffffffff1673ffffffffffffffffffffffffffffffffffffffff166365731fe9856040518263ffffffff1660e01b81526004016112ab91906138fa565b602060405180830381865afa1580156112c8573d6000803e3d6000fd5b505050506040513d601f19601f820116820180604052508101906112ec9190613d88565b156114b8576000600160009054906101000a900473ffffffffffffffffffffffffffffffffffffffff1673ffffffffffffffffffffffffffffffffffffffff1663f1537686866040518263ffffffff1660e01b815260040161134e91906138fa565b602060405180830381865afa15801561136b573d6000803e3d6000fd5b505050506040513d601f19601f8201168201806040525081019061138f9190613eb3565b9050600360008281526020019081526020016000206008016000858152602001908152602001600020604051806080016040529081600082015481526020016001820160009054906101000a900473ffffffffffffffffffffffffffffffffffffffff1673ffffffffffffffffffffffffffffffffffffffff1673ffffffffffffffffffffffffffffffffffffffff1681526020016002820160009054906101000a900473ffffffffffffffffffffffffffffffffffffffff1673ffffffffffffffffffffffffffffffffffffffff1673ffffffffffffffffffffffffffffffffffffffff1681526020016002820160149054906101000a900460ff16600281111561149e5761149d6136c2565b5b60028111156114b0576114af6136c2565b5b815250509150505b5b8091505092915050565b600080600260009054906101000a900473ffffffffffffffffffffffffffffffffffffffff1673ffffffffffffffffffffffffffffffffffffffff166365731fe9846040518263ffffffff1660e01b815260040161152191906138fa565b602060405180830381865afa15801561153e573d6000803e3d6000fd5b505050506040513d601f19601f820116820180604052508101906115629190613d88565b15611626576000600260009054906101000a900473ffffffffffffffffffffffffffffffffffffffff1673ffffffffffffffffffffffffffffffffffffffff1663f1537686856040518263ffffffff1660e01b81526004016115c491906138fa565b602060405180830381865afa1580156115e1573d6000803e3d6000fd5b505050506040513d601f19601f820116820180604052508101906116059190613eb3565b90506004600082815260200190815260200160002060060154915050611783565b600160009054906101000a900473ffffffffffffffffffffffffffffffffffffffff1673ffffffffffffffffffffffffffffffffffffffff166365731fe9846040518263ffffffff1660e01b815260040161168191906138fa565b602060405180830381865afa15801561169e573d6000803e3d6000fd5b505050506040513d601f19601f820116820180604052508101906116c29190613d88565b15611782576000600160009054906101000a900473ffffffffffffffffffffffffffffffffffffffff1673ffffffffffffffffffffffffffffffffffffffff1663f1537686856040518263ffffffff1660e01b815260040161172491906138fa565b602060405180830381865afa158015611741573d6000803e3d6000fd5b505050506040513d601f19601f820116820180604052508101906117659190613eb3565b905060036000828152602001908152602001600020600601549150505b5b80915050919050565b600260009054906101000a900473ffffffffffffffffffffffffffffffffffffffff1673ffffffffffffffffffffffffffffffffffffffff166365731fe9336040518263ffffffff1660e01b81526004016117e791906138fa565b602060405180830381865afa158015611804573d6000803e3d6000fd5b505050506040513d601f19601f820116820180604052508101906118289190613d88565b611867576040517f08c379a000000000000000000000000000000000000000000000000000000000815260040161185e90614003565b60405180910390fd5b600160009054906101000a900473ffffffffffffffffffffffffffffffffffffffff1673ffffffffffffffffffffffffffffffffffffffff166365731fe9836040518263ffffffff1660e01b81526004016118c291906138fa565b602060405180830381865afa1580156118df573d6000803e3d6000fd5b505050506040513d601f19601f820116820180604052508101906119039190613d88565b611942576040517f08c379a00000000000000000000000000000000000000000000000000000000081526004016119399061406f565b60405180910390fd5b6000600160009054906101000a900473ffffffffffffffffffffffffffffffffffffffff1673ffffffffffffffffffffffffffffffffffffffff1663f1537686846040518263ffffffff1660e01b815260040161199f91906138fa565b602060405180830381865afa1580156119bc573d6000803e3d6000fd5b505050506040513d601f19601f820116820180604052508101906119e09190613eb3565b90506000600260009054906101000a900473ffffffffffffffffffffffffffffffffffffffff1673ffffffffffffffffffffffffffffffffffffffff1663f1537686336040518263ffffffff1660e01b8152600401611a3f91906138fa565b602060405180830381865afa158015611a5c573d6000803e3d6000fd5b505050506040513d601f19601f82011682018060405250810190611a809190613eb3565b905060006040518060a00160405280600081526020013373ffffffffffffffffffffffffffffffffffffffff1681526020018673ffffffffffffffffffffffffffffffffffffffff16815260200185611ad890614117565b815260200160006002811115611af157611af06136c2565b5b81525090506000600460008481526020019081526020016000209050806006016000815480929190611b2290613f0f565b9190505550806006015482600001818152505081816008016000836006015481526020019081526020016000206000820151816000015560208201518160010160006101000a81548173ffffffffffffffffffffffffffffffffffffffff021916908373ffffffffffffffffffffffffffffffffffffffff16021790555060408201518160020160006101000a81548173ffffffffffffffffffffffffffffffffffffffff021916908373ffffffffffffffffffffffffffffffffffffffff1602179055506060820151816003016000820151816000019081611c0591906142d6565b506020820151816001019081611c1b91906142d6565b50505060808201518160050160006101000a81548160ff02191690836002811115611c4957611c486136c2565b5b02179055509050506000600360008681526020019081526020016000209050806006016000815480929190611c7d90613f0f565b9190505550806006015483600001818152505082816007016000836006015481526020019081526020016000206000820151816000015560208201518160010160006101000a81548173ffffffffffffffffffffffffffffffffffffffff021916908373ffffffffffffffffffffffffffffffffffffffff16021790555060408201518160020160006101000a81548173ffffffffffffffffffffffffffffffffffffffff021916908373ffffffffffffffffffffffffffffffffffffffff1602179055506060820151816003016000820151816000019081611d6091906142d6565b506020820151816001019081611d7691906142d6565b50505060808201518160050160006101000a81548160ff02191690836002811115611da457611da36136c2565b5b02179055509050508160060154826009016000836006015481526020019081526020016000208190555050505050505050565b60008060009054906101000a900473ffffffffffffffffffffffffffffffffffffffff16905090565b600260009054906101000a900473ffffffffffffffffffffffffffffffffffffffff1673ffffffffffffffffffffffffffffffffffffffff166365731fe9336040518263ffffffff1660e01b8152600401611e5b91906138fa565b602060405180830381865afa158015611e78573d6000803e3d6000fd5b505050506040513d601f19601f82011682018060405250810190611e9c9190613d88565b611edb576040517f08c379a0000000000000000000000000000000000000000000000000000000008152600401611ed2906143f4565b60405180910390fd5b6000600260009054906101000a900473ffffffffffffffffffffffffffffffffffffffff1673ffffffffffffffffffffffffffffffffffffffff1663f1537686336040518263ffffffff1660e01b8152600401611f3891906138fa565b602060405180830381865afa158015611f55573d6000803e3d6000fd5b505050506040513d601f19601f82011682018060405250810190611f799190613eb3565b905060006004600083815260200190815260200160002060070160008581526020019081526020016000209050828160020160146101000a81548160ff02191690836002811115611fcd57611fcc6136c2565b5b02179055506000600160009054906101000a900473ffffffffffffffffffffffffffffffffffffffff1673ffffffffffffffffffffffffffffffffffffffff1663f15376868360020160009054906101000a900473ffffffffffffffffffffffffffffffffffffffff166040518263ffffffff1660e01b815260040161205391906138fa565b602060405180830381865afa158015612070573d6000803e3d6000fd5b505050506040513d601f19601f820116820180604052508101906120949190613eb3565b9050600060036000838152602001908152602001600020600901600087815260200190815260200160002054905060006003600084815260200190815260200160002060080160008381526020019081526020016000209050858160020160146101000a81548160ff02191690836002811115612114576121136136c2565b5b021790555050505050505050565b600080600260009054906101000a900473ffffffffffffffffffffffffffffffffffffffff1673ffffffffffffffffffffffffffffffffffffffff166365731fe9846040518263ffffffff1660e01b815260040161218091906138fa565b602060405180830381865afa15801561219d573d6000803e3d6000fd5b505050506040513d601f19601f820116820180604052508101906121c19190613d88565b15612285576000600260009054906101000a900473ffffffffffffffffffffffffffffffffffffffff1673ffffffffffffffffffffffffffffffffffffffff1663f1537686856040518263ffffffff1660e01b815260040161222391906138fa565b602060405180830381865afa158015612240573d6000803e3d6000fd5b505050506040513d601f19601f820116820180604052508101906122649190613eb3565b905060046000828152602001908152602001600020600501549150506123e2565b600160009054906101000a900473ffffffffffffffffffffffffffffffffffffffff1673ffffffffffffffffffffffffffffffffffffffff166365731fe9846040518263ffffffff1660e01b81526004016122e091906138fa565b602060405180830381865afa1580156122fd573d6000803e3d6000fd5b505050506040513d601f19601f820116820180604052508101906123219190613d88565b156123e1576000600160009054906101000a900473ffffffffffffffffffffffffffffffffffffffff1673ffffffffffffffffffffffffffffffffffffffff1663f1537686856040518263ffffffff1660e01b815260040161238391906138fa565b602060405180830381865afa1580156123a0573d6000803e3d6000fd5b505050506040513d601f19601f820116820180604052508101906123c49190613eb3565b905060036000828152602001908152602001600020600501549150505b5b80915050919050565b600060018111156123ff576123fe6136c2565b5b846001811115612412576124116136c2565b5b03612560576000600160009054906101000a900473ffffffffffffffffffffffffffffffffffffffff1673ffffffffffffffffffffffffffffffffffffffff1663ff8470c03386866040518463ffffffff1660e01b815260040161247893929190614441565b6020604051808303816000875af1158015612497573d6000803e3d6000fd5b505050506040513d601f19601f820116820180604052508101906124bb9190613eb3565b90506000600360008381526020019081526020016000209050338160000160006101000a81548173ffffffffffffffffffffffffffffffffffffffff021916908373ffffffffffffffffffffffffffffffffffffffff160217905550826000015181600101908161252c91906142d6565b50826040015181600301908161254291906142d6565b50826060015181600401908161255891906142d6565b5050506126d1565b600180811115612573576125726136c2565b5b846001811115612586576125856136c2565b5b036126d0576000600260009054906101000a900473ffffffffffffffffffffffffffffffffffffffff1673ffffffffffffffffffffffffffffffffffffffff1663ff8470c03386866040518463ffffffff1660e01b81526004016125ec93929190614441565b6020604051808303816000875af115801561260b573d6000803e3d6000fd5b505050506040513d601f19601f8201168201806040525081019061262f9190613eb3565b90506000600460008381526020019081526020016000209050338160000160006101000a81548173ffffffffffffffffffffffffffffffffffffffff021916908373ffffffffffffffffffffffffffffffffffffffff16021790555082600001518160010190816126a091906142d6565b5082604001518160030190816126b691906142d6565b5082606001518160040190816126cc91906142d6565b5050505b5b50505050565b6126df613479565b6126e7613479565b600260009054906101000a900473ffffffffffffffffffffffffffffffffffffffff1673ffffffffffffffffffffffffffffffffffffffff166365731fe9846040518263ffffffff1660e01b815260040161274291906138fa565b602060405180830381865afa15801561275f573d6000803e3d6000fd5b505050506040513d601f19601f820116820180604052508101906127839190613d88565b15612ac9576000600260009054906101000a900473ffffffffffffffffffffffffffffffffffffffff1673ffffffffffffffffffffffffffffffffffffffff1663f1537686856040518263ffffffff1660e01b81526004016127e591906138fa565b602060405180830381865afa158015612802573d6000803e3d6000fd5b505050506040513d601f19601f820116820180604052508101906128269190613eb3565b9050604051806080016040528060046000848152602001908152602001600020600101805461285490613f86565b80601f016020809104026020016040519081016040528092919081815260200182805461288090613f86565b80156128cd5780601f106128a2576101008083540402835291602001916128cd565b820191906000526020600020905b8154815290600101906020018083116128b057829003601f168201915b505050505081526020016004600084815260200190815260200160002060020180546128f890613f86565b80601f016020809104026020016040519081016040528092919081815260200182805461292490613f86565b80156129715780601f1061294657610100808354040283529160200191612971565b820191906000526020600020905b81548152906001019060200180831161295457829003601f168201915b5050505050815260200160046000848152602001908152602001600020600301805461299c90613f86565b80601f01602080910402602001604051908101604052809291908181526020018280546129c890613f86565b8015612a155780601f106129ea57610100808354040283529160200191612a15565b820191906000526020600020905b8154815290600101906020018083116129f857829003601f168201915b50505050508152602001600460008481526020019081526020016000206004018054612a4090613f86565b80601f0160208091040260200160405190810160405280929190818152602001828054612a6c90613f86565b8015612ab95780601f10612a8e57610100808354040283529160200191612ab9565b820191906000526020600020905b815481529060010190602001808311612a9c57829003601f168201915b5050505050815250915050612ea8565b600160009054906101000a900473ffffffffffffffffffffffffffffffffffffffff1673ffffffffffffffffffffffffffffffffffffffff166365731fe9846040518263ffffffff1660e01b8152600401612b2491906138fa565b602060405180830381865afa158015612b41573d6000803e3d6000fd5b505050506040513d601f19601f82011682018060405250810190612b659190613d88565b15612ea7576000600160009054906101000a900473ffffffffffffffffffffffffffffffffffffffff1673ffffffffffffffffffffffffffffffffffffffff1663f1537686856040518263ffffffff1660e01b8152600401612bc791906138fa565b602060405180830381865afa158015612be4573d6000803e3d6000fd5b505050506040513d601f19601f82011682018060405250810190612c089190613eb3565b90506040518060800160405280600360008481526020019081526020016000206001018054612c3690613f86565b80601f0160208091040260200160405190810160405280929190818152602001828054612c6290613f86565b8015612caf5780601f10612c8457610100808354040283529160200191612caf565b820191906000526020600020905b815481529060010190602001808311612c9257829003601f168201915b50505050508152602001600360008481526020019081526020016000206002018054612cda90613f86565b80601f0160208091040260200160405190810160405280929190818152602001828054612d0690613f86565b8015612d535780601f10612d2857610100808354040283529160200191612d53565b820191906000526020600020905b815481529060010190602001808311612d3657829003601f168201915b50505050508152602001600360008481526020019081526020016000206003018054612d7e90613f86565b80601f0160208091040260200160405190810160405280929190818152602001828054612daa90613f86565b8015612df75780601f10612dcc57610100808354040283529160200191612df7565b820191906000526020600020905b815481529060010190602001808311612dda57829003601f168201915b50505050508152602001600360008481526020019081526020016000206004018054612e2290613f86565b80601f0160208091040260200160405190810160405280929190818152602001828054612e4e90613f86565b8015612e9b5780601f10612e7057610100808354040283529160200191612e9b565b820191906000526020600020905b815481529060010190602001808311612e7e57829003601f168201915b50505050508152509150505b5b80915050919050565b600160009054906101000a900473ffffffffffffffffffffffffffffffffffffffff1673ffffffffffffffffffffffffffffffffffffffff166365731fe9336040518263ffffffff1660e01b8152600401612f0c91906138fa565b602060405180830381865afa158015612f29573d6000803e3d6000fd5b505050506040513d601f19601f82011682018060405250810190612f4d9190613d88565b612f8c576040517f08c379a0000000000000000000000000000000000000000000000000000000008152600401612f8390613e12565b60405180910390fd5b6000600160009054906101000a900473ffffffffffffffffffffffffffffffffffffffff1673ffffffffffffffffffffffffffffffffffffffff1663f1537686336040518263ffffffff1660e01b8152600401612fe991906138fa565b602060405180830381865afa158015613006573d6000803e3d6000fd5b505050506040513d601f19601f8201168201806040525081019061302a9190613eb3565b905060006003600083815260200190815260200160002060070160008581526020019081526020016000209050828160050160006101000a81548160ff0219169083600281111561307e5761307d6136c2565b5b02179055506000600260009054906101000a900473ffffffffffffffffffffffffffffffffffffffff1673ffffffffffffffffffffffffffffffffffffffff1663f15376868360010160009054906101000a900473ffffffffffffffffffffffffffffffffffffffff166040518263ffffffff1660e01b815260040161310491906138fa565b602060405180830381865afa158015613121573d6000803e3d6000fd5b505050506040513d601f19601f820116820180604052508101906131459190613eb3565b9050600060046000838152602001908152602001600020600901600087815260200190815260200160002054905060006004600084815260200190815260200160002060080160008381526020019081526020016000209050858160050160006101000a81548160ff021916908360028111156131c5576131c46136c2565b5b021790555050505050505050565b6131db613256565b600073ffffffffffffffffffffffffffffffffffffffff168173ffffffffffffffffffffffffffffffffffffffff160361324a576040517f08c379a0000000000000000000000000000000000000000000000000000000008152600401613241906144e5565b60405180910390fd5b613253816132d4565b50565b61325e613398565b73ffffffffffffffffffffffffffffffffffffffff1661327c611dd7565b73ffffffffffffffffffffffffffffffffffffffff16146132d2576040517f08c379a00000000000000000000000000000000000000000000000000000000081526004016132c990614551565b60405180910390fd5b565b60008060009054906101000a900473ffffffffffffffffffffffffffffffffffffffff169050816000806101000a81548173ffffffffffffffffffffffffffffffffffffffff021916908373ffffffffffffffffffffffffffffffffffffffff1602179055508173ffffffffffffffffffffffffffffffffffffffff168173ffffffffffffffffffffffffffffffffffffffff167f8be0079c531659141344cd1fd0a4f28419497f9722a3daafe3b4186f6b6457e060405160405180910390a35050565b600033905090565b6040518060a0016040528060008152602001600073ffffffffffffffffffffffffffffffffffffffff168152602001600073ffffffffffffffffffffffffffffffffffffffff1681526020016133f46134a1565b81526020016000600281111561340d5761340c6136c2565b5b81525090565b604051806080016040528060008152602001600073ffffffffffffffffffffffffffffffffffffffff168152602001600073ffffffffffffffffffffffffffffffffffffffff16815260200160006002811115613473576134726136c2565b5b81525090565b6040518060800160405280606081526020016060815260200160608152602001606081525090565b604051806040016040528060608152602001606081525090565b6000604051905090565b600080fd5b600080fd5b600073ffffffffffffffffffffffffffffffffffffffff82169050919050565b60006134fa826134cf565b9050919050565b61350a816134ef565b811461351557600080fd5b50565b60008135905061352781613501565b92915050565b600060208284031215613543576135426134c5565b5b600061355184828501613518565b91505092915050565b6000819050919050565b61356d8161355a565b811461357857600080fd5b50565b60008135905061358a81613564565b92915050565b600080604083850312156135a7576135a66134c5565b5b60006135b585828601613518565b92505060206135c68582860161357b565b9150509250929050565b6135d98161355a565b82525050565b6135e8816134ef565b82525050565b600081519050919050565b600082825260208201905092915050565b60005b8381101561362857808201518184015260208101905061360d565b60008484015250505050565b6000601f19601f8301169050919050565b6000613650826135ee565b61365a81856135f9565b935061366a81856020860161360a565b61367381613634565b840191505092915050565b6000604083016000830151848203600086015261369b8282613645565b915050602083015184820360208601526136b58282613645565b9150508091505092915050565b7f4e487b7100000000000000000000000000000000000000000000000000000000600052602160045260246000fd5b60038110613702576137016136c2565b5b50565b6000819050613713826136f1565b919050565b600061372382613705565b9050919050565b61373381613718565b82525050565b600060a08301600083015161375160008601826135d0565b50602083015161376460208601826135df565b50604083015161377760408601826135df565b506060830151848203606086015261378f828261367e565b91505060808301516137a4608086018261372a565b508091505092915050565b600060208201905081810360008301526137c98184613739565b905092915050565b6080820160008201516137e760008501826135d0565b5060208201516137fa60208501826135df565b50604082015161380d60408501826135df565b506060820151613820606085018261372a565b50505050565b600060808201905061383b60008301846137d1565b92915050565b61384a8161355a565b82525050565b60006020820190506138656000830184613841565b92915050565b600080fd5b6000604082840312156138865761388561386b565b5b81905092915050565b600080604083850312156138a6576138a56134c5565b5b60006138b485828601613518565b925050602083013567ffffffffffffffff8111156138d5576138d46134ca565b5b6138e185828601613870565b9150509250929050565b6138f4816134ef565b82525050565b600060208201905061390f60008301846138eb565b92915050565b6003811061392257600080fd5b50565b60008135905061393481613915565b92915050565b60008060408385031215613951576139506134c5565b5b600061395f8582860161357b565b925050602061397085828601613925565b9150509250929050565b6002811061398757600080fd5b50565b6000813590506139998161397a565b92915050565b600080fd5b600080fd5b600080fd5b60008083601f8401126139c4576139c361399f565b5b8235905067ffffffffffffffff8111156139e1576139e06139a4565b5b6020830191508360018202830111156139fd576139fc6139a9565b5b9250929050565b600080fd5b7f4e487b7100000000000000000000000000000000000000000000000000000000600052604160045260246000fd5b613a4182613634565b810181811067ffffffffffffffff82111715613a6057613a5f613a09565b5b80604052505050565b6000613a736134bb565b9050613a7f8282613a38565b919050565b600080fd5b600080fd5b600067ffffffffffffffff821115613aa957613aa8613a09565b5b613ab282613634565b9050602081019050919050565b82818337600083830152505050565b6000613ae1613adc84613a8e565b613a69565b905082815260208101848484011115613afd57613afc613a89565b5b613b08848285613abf565b509392505050565b600082601f830112613b2557613b2461399f565b5b8135613b35848260208601613ace565b91505092915050565b600060808284031215613b5457613b53613a04565b5b613b5e6080613a69565b9050600082013567ffffffffffffffff811115613b7e57613b7d613a84565b5b613b8a84828501613b10565b600083015250602082013567ffffffffffffffff811115613bae57613bad613a84565b5b613bba84828501613b10565b602083015250604082013567ffffffffffffffff811115613bde57613bdd613a84565b5b613bea84828501613b10565b604083015250606082013567ffffffffffffffff811115613c0e57613c0d613a84565b5b613c1a84828501613b10565b60608301525092915050565b60008060008060608587031215613c4057613c3f6134c5565b5b6000613c4e8782880161398a565b945050602085013567ffffffffffffffff811115613c6f57613c6e6134ca565b5b613c7b878288016139ae565b9350935050604085013567ffffffffffffffff811115613c9e57613c9d6134ca565b5b613caa87828801613b3e565b91505092959194509250565b60006080830160008301518482036000860152613cd38282613645565b91505060208301518482036020860152613ced8282613645565b91505060408301518482036040860152613d078282613645565b91505060608301518482036060860152613d218282613645565b9150508091505092915050565b60006020820190508181036000830152613d488184613cb6565b905092915050565b60008115159050919050565b613d6581613d50565b8114613d7057600080fd5b50565b600081519050613d8281613d5c565b92915050565b600060208284031215613d9e57613d9d6134c5565b5b6000613dac84828501613d73565b91505092915050565b600082825260208201905092915050565b7f4f6e6c7920646f63746f72732063616e20616363657373207468697300000000600082015250565b6000613dfc601c83613db5565b9150613e0782613dc6565b602082019050919050565b60006020820190508181036000830152613e2b81613def565b9050919050565b7f50617469656e74206973206e6f74206120646f63746f72000000000000000000600082015250565b6000613e68601783613db5565b9150613e7382613e32565b602082019050919050565b60006020820190508181036000830152613e9781613e5b565b9050919050565b600081519050613ead81613564565b92915050565b600060208284031215613ec957613ec86134c5565b5b6000613ed784828501613e9e565b91505092915050565b7f4e487b7100000000000000000000000000000000000000000000000000000000600052601160045260246000fd5b6000613f1a8261355a565b91507fffffffffffffffffffffffffffffffffffffffffffffffffffffffffffffffff8203613f4c57613f4b613ee0565b5b600182019050919050565b7f4e487b7100000000000000000000000000000000000000000000000000000000600052602260045260246000fd5b60006002820490506001821680613f9e57607f821691505b602082108103613fb157613fb0613f57565b5b50919050565b7f4f6e6c792050617469656e74732063616e206163636573732074686973000000600082015250565b6000613fed601d83613db5565b9150613ff882613fb7565b602082019050919050565b6000602082019050818103600083015261401c81613fe0565b9050919050565b7f41646472657373206973206e6f74206120646f63746f72000000000000000000600082015250565b6000614059601783613db5565b915061406482614023565b602082019050919050565b600060208201905081810360008301526140888161404c565b9050919050565b6000604082840312156140a5576140a4613a04565b5b6140af6040613a69565b9050600082013567ffffffffffffffff8111156140cf576140ce613a84565b5b6140db84828501613b10565b600083015250602082013567ffffffffffffffff8111156140ff576140fe613a84565b5b61410b84828501613b10565b60208301525092915050565b6000614123368361408f565b9050919050565b60008190508160005260206000209050919050565b60006020601f8301049050919050565b600082821b905092915050565b60006008830261418c7fffffffffffffffffffffffffffffffffffffffffffffffffffffffffffffffff8261414f565b614196868361414f565b95508019841693508086168417925050509392505050565b6000819050919050565b60006141d36141ce6141c98461355a565b6141ae565b61355a565b9050919050565b6000819050919050565b6141ed836141b8565b6142016141f9826141da565b84845461415c565b825550505050565b600090565b614216614209565b6142218184846141e4565b505050565b5b818110156142455761423a60008261420e565b600181019050614227565b5050565b601f82111561428a5761425b8161412a565b6142648461413f565b81016020851015614273578190505b61428761427f8561413f565b830182614226565b50505b505050565b600082821c905092915050565b60006142ad6000198460080261428f565b1980831691505092915050565b60006142c6838361429c565b9150826002028217905092915050565b6142df826135ee565b67ffffffffffffffff8111156142f8576142f7613a09565b5b6143028254613f86565b61430d828285614249565b600060209050601f831160018114614340576000841561432e578287015190505b61433885826142ba565b8655506143a0565b601f19841661434e8661412a565b60005b8281101561437657848901518255600182019150602085019450602081019050614351565b86831015614393578489015161438f601f89168261429c565b8355505b6001600288020188555050505b505050505050565b7f4f6e6c792070617469656e74732063616e206163636573732074686973000000600082015250565b60006143de601d83613db5565b91506143e9826143a8565b602082019050919050565b6000602082019050818103600083015261440d816143d1565b9050919050565b60006144208385613db5565b935061442d838584613abf565b61443683613634565b840190509392505050565b600060408201905061445660008301866138eb565b8181036020830152614469818486614414565b9050949350505050565b7f4f776e61626c653a206e6577206f776e657220697320746865207a65726f206160008201527f6464726573730000000000000000000000000000000000000000000000000000602082015250565b60006144cf602683613db5565b91506144da82614473565b604082019050919050565b600060208201905081810360008301526144fe816144c2565b9050919050565b7f4f776e61626c653a2063616c6c6572206973206e6f7420746865206f776e6572600082015250565b600061453b602083613db5565b915061454682614505565b602082019050919050565b6000602082019050818103600083015261456a8161452e565b905091905056fea26469706673582212205f7d9b6018f6a7767364c41e59e45d452db04a5c68c540b008ac91064534ca8764736f6c63430008110033",
  "linkReferences": {},
  "deployedLinkReferences": {}
}