{
  "_format": "hh-sol-artifact-1",
  "contractName": "FVMMedicare",
  "sourceName": "contracts/FVMMedicare.sol",
  "abi": [
    {
      "inputs": [
        {
          "internalType": "address",
          "name": "_doctorNFTAddress",
          "type": "address"
        },
        {
          "internalType": "address",
          "name": "_patientNFTAddress",
          "type": "address"
        }
      ],
      "stateMutability": "nonpayable",
      "type": "constructor"
    },
    {
      "anonymous": false,
      "inputs": [
        {
          "indexed": true,
          "internalType": "address",
          "name": "previousOwner",
          "type": "address"
        },
        {
          "indexed": true,
          "internalType": "address",
          "name": "newOwner",
          "type": "address"
        }
      ],
      "name": "OwnershipTransferred",
      "type": "event"
    },
    {
      "inputs": [
        {
          "internalType": "uint256",
          "name": "_doctorAppointmentId",
          "type": "uint256"
        }
      ],
      "name": "endAppointment",
      "outputs": [],
      "stateMutability": "nonpayable",
      "type": "function"
    },
    {
      "inputs": [
        {
          "internalType": "address",
          "name": "_addr",
          "type": "address"
        },
        {
          "internalType": "uint256",
          "name": "_appointmentId",
          "type": "uint256"
        }
      ],
      "name": "getAppointment",
      "outputs": [
        {
          "components": [
            {
              "internalType": "uint256",
              "name": "appointmentId",
              "type": "uint256"
            },
            {
              "internalType": "string",
              "name": "uniqueKey",
              "type": "string"
            },
            {
              "internalType": "uint256",
              "name": "appointmentType",
              "type": "uint256"
            },
            {
              "internalType": "address",
              "name": "patientAddress",
              "type": "address"
            },
            {
              "internalType": "address",
              "name": "doctorAddress",
              "type": "address"
            },
            {
              "internalType": "bool",
              "name": "medicalRecordShared",
              "type": "bool"
            },
            {
              "internalType": "enum FVMMedicare.Status",
              "name": "appointmentStatus",
              "type": "uint8"
            },
            {
              "internalType": "enum FVMMedicare.Status",
              "name": "requestStatus",
              "type": "uint8"
            }
          ],
          "internalType": "struct FVMMedicare.Appointment",
          "name": "",
          "type": "tuple"
        }
      ],
      "stateMutability": "view",
      "type": "function"
    },
    {
      "inputs": [
        {
          "internalType": "address",
          "name": "_addr",
          "type": "address"
        }
      ],
      "name": "getAppointmentCount",
      "outputs": [
        {
          "internalType": "uint256",
          "name": "",
          "type": "uint256"
        }
      ],
      "stateMutability": "view",
      "type": "function"
    },
    {
      "inputs": [
        {
          "internalType": "address",
          "name": "_addr",
          "type": "address"
        }
      ],
      "name": "getInformation",
      "outputs": [
        {
          "components": [
            {
              "internalType": "string",
              "name": "name",
              "type": "string"
            },
            {
              "internalType": "string",
              "name": "specialization",
              "type": "string"
            },
            {
              "internalType": "string",
              "name": "hospital",
              "type": "string"
            },
            {
              "internalType": "string",
              "name": "image",
              "type": "string"
            }
          ],
          "internalType": "struct FVMMedicare.BioData",
          "name": "",
          "type": "tuple"
        }
      ],
      "stateMutability": "view",
      "type": "function"
    },
    {
      "inputs": [
        {
          "internalType": "address",
          "name": "_doctorAddress",
          "type": "address"
        },
        {
          "internalType": "string",
          "name": "_uniqueKey",
          "type": "string"
        },
        {
          "internalType": "uint256",
          "name": "_appointmentType",
          "type": "uint256"
        }
      ],
      "name": "makeAppointment",
      "outputs": [],
      "stateMutability": "nonpayable",
      "type": "function"
    },
    {
      "inputs": [],
      "name": "owner",
      "outputs": [
        {
          "internalType": "address",
          "name": "",
          "type": "address"
        }
      ],
      "stateMutability": "view",
      "type": "function"
    },
    {
      "inputs": [
        {
          "internalType": "enum FVMMedicare.Category",
          "name": "user",
          "type": "uint8"
        },
        {
          "internalType": "string",
          "name": "uri",
          "type": "string"
        },
        {
          "components": [
            {
              "internalType": "string",
              "name": "name",
              "type": "string"
            },
            {
              "internalType": "string",
              "name": "specialization",
              "type": "string"
            },
            {
              "internalType": "string",
              "name": "hospital",
              "type": "string"
            },
            {
              "internalType": "string",
              "name": "image",
              "type": "string"
            }
          ],
          "internalType": "struct FVMMedicare.BioData",
          "name": "_biodata",
          "type": "tuple"
        }
      ],
      "name": "register",
      "outputs": [],
      "stateMutability": "nonpayable",
      "type": "function"
    },
    {
      "inputs": [],
      "name": "renounceOwnership",
      "outputs": [],
      "stateMutability": "nonpayable",
      "type": "function"
    },
    {
      "inputs": [
        {
          "internalType": "uint256",
          "name": "_doctorAppointmentId",
          "type": "uint256"
        },
        {
          "internalType": "bool",
          "name": "_accepted",
          "type": "bool"
        }
      ],
      "name": "respondToAppointment",
      "outputs": [],
      "stateMutability": "nonpayable",
      "type": "function"
    },
    {
      "inputs": [
        {
          "internalType": "uint256",
          "name": "_patientAppointmentId",
          "type": "uint256"
        },
        {
          "internalType": "bool",
          "name": "giveAccess",
          "type": "bool"
        }
      ],
      "name": "respondToDataRequest",
      "outputs": [],
      "stateMutability": "nonpayable",
      "type": "function"
    },
    {
      "inputs": [
        {
          "internalType": "address",
          "name": "newOwner",
          "type": "address"
        }
      ],
      "name": "transferOwnership",
      "outputs": [],
      "stateMutability": "nonpayable",
      "type": "function"
    }
  ],
  "bytecode": "0x60806040523480156200001157600080fd5b5060405162003d1038038062003d10833981810160405281019062000037919062000217565b620000576200004b620000e160201b60201c565b620000e960201b60201c565b81600160006101000a81548173ffffffffffffffffffffffffffffffffffffffff021916908373ffffffffffffffffffffffffffffffffffffffff16021790555080600260006101000a81548173ffffffffffffffffffffffffffffffffffffffff021916908373ffffffffffffffffffffffffffffffffffffffff16021790555050506200025e565b600033905090565b60008060009054906101000a900473ffffffffffffffffffffffffffffffffffffffff169050816000806101000a81548173ffffffffffffffffffffffffffffffffffffffff021916908373ffffffffffffffffffffffffffffffffffffffff1602179055508173ffffffffffffffffffffffffffffffffffffffff168173ffffffffffffffffffffffffffffffffffffffff167f8be0079c531659141344cd1fd0a4f28419497f9722a3daafe3b4186f6b6457e060405160405180910390a35050565b600080fd5b600073ffffffffffffffffffffffffffffffffffffffff82169050919050565b6000620001df82620001b2565b9050919050565b620001f181620001d2565b8114620001fd57600080fd5b50565b6000815190506200021181620001e6565b92915050565b60008060408385031215620002315762000230620001ad565b5b6000620002418582860162000200565b9250506020620002548582860162000200565b9150509250929050565b613aa2806200026e6000396000f3fe608060405234801561001057600080fd5b50600436106100a95760003560e01c8063adfd8d5911610071578063adfd8d5914610152578063b33d600a1461016e578063c579c2d31461019e578063f1d6e254146101ba578063f2fde38b146101d6578063febe984e146101f2576100a9565b806321136548146100ae578063396c958c146100ca578063715018a6146100fa578063732d85b4146101045780638da5cb5b14610134575b600080fd5b6100c860048036038101906100c39190612b9e565b61020e565b005b6100e460048036038101906100df9190612c3c565b61060c565b6040516100f19190612e60565b60405180910390f35b610102610ce1565b005b61011e60048036038101906101199190612e82565b610cf5565b60405161012b9190612ebe565b60405180910390f35b61013c610fbe565b6040516101499190612ee8565b60405180910390f35b61016c600480360381019061016791906131af565b610fe7565b005b61018860048036038101906101839190612e82565b61130f565b60405161019591906132b7565b60405180910390f35b6101b860048036038101906101b391906132d9565b611a89565b005b6101d460048036038101906101cf9190612b9e565b611dac565b005b6101f060048036038101906101eb9190612e82565b612190565b005b61020c60048036038101906102079190613306565b612213565b005b600260009054906101000a900473ffffffffffffffffffffffffffffffffffffffff1673ffffffffffffffffffffffffffffffffffffffff166365731fe9336040518263ffffffff1660e01b81526004016102699190612ee8565b602060405180830381865afa158015610286573d6000803e3d6000fd5b505050506040513d601f19601f820116820180604052508101906102aa919061338a565b6102e9576040517f08c379a00000000000000000000000000000000000000000000000000000000081526004016102e090613414565b60405180910390fd5b6000600260009054906101000a900473ffffffffffffffffffffffffffffffffffffffff1673ffffffffffffffffffffffffffffffffffffffff1663f1537686336040518263ffffffff1660e01b81526004016103469190612ee8565b602060405180830381865afa158015610363573d6000803e3d6000fd5b505050506040513d601f19601f820116820180604052508101906103879190613449565b9050600060046000838152602001908152602001600020600601600085815260200190815260200160002090506000600160009054906101000a900473ffffffffffffffffffffffffffffffffffffffff1673ffffffffffffffffffffffffffffffffffffffff1663f15376868360040160009054906101000a900473ffffffffffffffffffffffffffffffffffffffff166040518263ffffffff1660e01b81526004016104359190612ee8565b602060405180830381865afa158015610452573d6000803e3d6000fd5b505050506040513d601f19601f820116820180604052508101906104769190613449565b9050600060036000838152602001908152602001600020600701600087815260200190815260200160002054905060006003600084815260200190815260200160002060060160008381526020019081526020016000209050851561056e5760028460040160166101000a81548160ff021916908360048111156104fd576104fc612d39565b5b021790555060018460040160146101000a81548160ff02191690831515021790555060028160040160166101000a81548160ff0219169083600481111561054757610546612d39565b5b021790555060018160040160146101000a81548160ff021916908315150217905550610603565b60018460040160166101000a81548160ff0219169083600481111561059657610595612d39565b5b021790555060008460040160146101000a81548160ff02191690831515021790555060018160040160166101000a81548160ff021916908360048111156105e0576105df612d39565b5b021790555060008160040160146101000a81548160ff0219169083151502179055505b50505050505050565b610614612a5d565b61061c612a5d565b600260009054906101000a900473ffffffffffffffffffffffffffffffffffffffff1673ffffffffffffffffffffffffffffffffffffffff166365731fe9856040518263ffffffff1660e01b81526004016106779190612ee8565b602060405180830381865afa158015610694573d6000803e3d6000fd5b505050506040513d601f19601f820116820180604052508101906106b8919061338a565b1561097b576000600260009054906101000a900473ffffffffffffffffffffffffffffffffffffffff1673ffffffffffffffffffffffffffffffffffffffff1663f1537686866040518263ffffffff1660e01b815260040161071a9190612ee8565b602060405180830381865afa158015610737573d6000803e3d6000fd5b505050506040513d601f19601f8201168201806040525081019061075b9190613449565b905060046000828152602001908152602001600020600601600085815260200190815260200160002060405180610100016040529081600082015481526020016001820180546107aa906134a5565b80601f01602080910402602001604051908101604052809291908181526020018280546107d6906134a5565b80156108235780601f106107f857610100808354040283529160200191610823565b820191906000526020600020905b81548152906001019060200180831161080657829003601f168201915b50505050508152602001600282015481526020016003820160009054906101000a900473ffffffffffffffffffffffffffffffffffffffff1673ffffffffffffffffffffffffffffffffffffffff1673ffffffffffffffffffffffffffffffffffffffff1681526020016004820160009054906101000a900473ffffffffffffffffffffffffffffffffffffffff1673ffffffffffffffffffffffffffffffffffffffff1673ffffffffffffffffffffffffffffffffffffffff1681526020016004820160149054906101000a900460ff161515151581526020016004820160159054906101000a900460ff16600481111561092257610921612d39565b5b600481111561093457610933612d39565b5b81526020016004820160169054906101000a900460ff16600481111561095d5761095c612d39565b5b600481111561096f5761096e612d39565b5b81525050915050610cd7565b600160009054906101000a900473ffffffffffffffffffffffffffffffffffffffff1673ffffffffffffffffffffffffffffffffffffffff166365731fe9856040518263ffffffff1660e01b81526004016109d69190612ee8565b602060405180830381865afa1580156109f3573d6000803e3d6000fd5b505050506040513d601f19601f82011682018060405250810190610a17919061338a565b15610cd6576000600160009054906101000a900473ffffffffffffffffffffffffffffffffffffffff1673ffffffffffffffffffffffffffffffffffffffff1663f1537686866040518263ffffffff1660e01b8152600401610a799190612ee8565b602060405180830381865afa158015610a96573d6000803e3d6000fd5b505050506040513d601f19601f82011682018060405250810190610aba9190613449565b90506003600082815260200190815260200160002060060160008581526020019081526020016000206040518061010001604052908160008201548152602001600182018054610b09906134a5565b80601f0160208091040260200160405190810160405280929190818152602001828054610b35906134a5565b8015610b825780601f10610b5757610100808354040283529160200191610b82565b820191906000526020600020905b815481529060010190602001808311610b6557829003601f168201915b50505050508152602001600282015481526020016003820160009054906101000a900473ffffffffffffffffffffffffffffffffffffffff1673ffffffffffffffffffffffffffffffffffffffff1673ffffffffffffffffffffffffffffffffffffffff1681526020016004820160009054906101000a900473ffffffffffffffffffffffffffffffffffffffff1673ffffffffffffffffffffffffffffffffffffffff1673ffffffffffffffffffffffffffffffffffffffff1681526020016004820160149054906101000a900460ff161515151581526020016004820160159054906101000a900460ff166004811115610c8157610c80612d39565b5b6004811115610c9357610c92612d39565b5b81526020016004820160169054906101000a900460ff166004811115610cbc57610cbb612d39565b5b6004811115610cce57610ccd612d39565b5b815250509150505b5b8091505092915050565b610ce9612913565b610cf36000612991565b565b600080600260009054906101000a900473ffffffffffffffffffffffffffffffffffffffff1673ffffffffffffffffffffffffffffffffffffffff166365731fe9846040518263ffffffff1660e01b8152600401610d539190612ee8565b602060405180830381865afa158015610d70573d6000803e3d6000fd5b505050506040513d601f19601f82011682018060405250810190610d94919061338a565b15610e58576000600260009054906101000a900473ffffffffffffffffffffffffffffffffffffffff1673ffffffffffffffffffffffffffffffffffffffff1663f1537686856040518263ffffffff1660e01b8152600401610df69190612ee8565b602060405180830381865afa158015610e13573d6000803e3d6000fd5b505050506040513d601f19601f82011682018060405250810190610e379190613449565b90506004600082815260200190815260200160002060050154915050610fb5565b600160009054906101000a900473ffffffffffffffffffffffffffffffffffffffff1673ffffffffffffffffffffffffffffffffffffffff166365731fe9846040518263ffffffff1660e01b8152600401610eb39190612ee8565b602060405180830381865afa158015610ed0573d6000803e3d6000fd5b505050506040513d601f19601f82011682018060405250810190610ef4919061338a565b15610fb4576000600160009054906101000a900473ffffffffffffffffffffffffffffffffffffffff1673ffffffffffffffffffffffffffffffffffffffff1663f1537686856040518263ffffffff1660e01b8152600401610f569190612ee8565b602060405180830381865afa158015610f73573d6000803e3d6000fd5b505050506040513d601f19601f82011682018060405250810190610f979190613449565b905060036000828152602001908152602001600020600501549150505b5b80915050919050565b60008060009054906101000a900473ffffffffffffffffffffffffffffffffffffffff16905090565b60006001811115610ffb57610ffa612d39565b5b84600181111561100e5761100d612d39565b5b0361117a576000600160009054906101000a900473ffffffffffffffffffffffffffffffffffffffff1673ffffffffffffffffffffffffffffffffffffffff1663ff8470c03386866040518463ffffffff1660e01b815260040161107493929190613503565b6020604051808303816000875af1158015611093573d6000803e3d6000fd5b505050506040513d601f19601f820116820180604052508101906110b79190613449565b90506000600360008381526020019081526020016000209050338160000160006101000a81548173ffffffffffffffffffffffffffffffffffffffff021916908373ffffffffffffffffffffffffffffffffffffffff1602179055508281600101600082015181600001908161112d91906136e1565b50602082015181600101908161114391906136e1565b50604082015181600201908161115991906136e1565b50606082015181600301908161116f91906136e1565b509050505050611309565b60018081111561118d5761118c612d39565b5b8460018111156111a05761119f612d39565b5b03611308576000600260009054906101000a900473ffffffffffffffffffffffffffffffffffffffff1673ffffffffffffffffffffffffffffffffffffffff1663ff8470c03386866040518463ffffffff1660e01b815260040161120693929190613503565b6020604051808303816000875af1158015611225573d6000803e3d6000fd5b505050506040513d601f19601f820116820180604052508101906112499190613449565b90506000600460008381526020019081526020016000209050338160000160006101000a81548173ffffffffffffffffffffffffffffffffffffffff021916908373ffffffffffffffffffffffffffffffffffffffff160217905550828160010160008201518160000190816112bf91906136e1565b5060208201518160010190816112d591906136e1565b5060408201518160020190816112eb91906136e1565b50606082015181600301908161130191906136e1565b5090505050505b5b50505050565b611317612af4565b61131f612af4565b600260009054906101000a900473ffffffffffffffffffffffffffffffffffffffff1673ffffffffffffffffffffffffffffffffffffffff166365731fe9846040518263ffffffff1660e01b815260040161137a9190612ee8565b602060405180830381865afa158015611397573d6000803e3d6000fd5b505050506040513d601f19601f820116820180604052508101906113bb919061338a565b156116d1576000600260009054906101000a900473ffffffffffffffffffffffffffffffffffffffff1673ffffffffffffffffffffffffffffffffffffffff1663f1537686856040518263ffffffff1660e01b815260040161141d9190612ee8565b602060405180830381865afa15801561143a573d6000803e3d6000fd5b505050506040513d601f19601f8201168201806040525081019061145e9190613449565b905060046000828152602001908152602001600020600101604051806080016040529081600082018054611491906134a5565b80601f01602080910402602001604051908101604052809291908181526020018280546114bd906134a5565b801561150a5780601f106114df5761010080835404028352916020019161150a565b820191906000526020600020905b8154815290600101906020018083116114ed57829003601f168201915b50505050508152602001600182018054611523906134a5565b80601f016020809104026020016040519081016040528092919081815260200182805461154f906134a5565b801561159c5780601f106115715761010080835404028352916020019161159c565b820191906000526020600020905b81548152906001019060200180831161157f57829003601f168201915b505050505081526020016002820180546115b5906134a5565b80601f01602080910402602001604051908101604052809291908181526020018280546115e1906134a5565b801561162e5780601f106116035761010080835404028352916020019161162e565b820191906000526020600020905b81548152906001019060200180831161161157829003601f168201915b50505050508152602001600382018054611647906134a5565b80601f0160208091040260200160405190810160405280929190818152602001828054611673906134a5565b80156116c05780601f10611695576101008083540402835291602001916116c0565b820191906000526020600020905b8154815290600101906020018083116116a357829003601f168201915b505050505081525050915050611a80565b600160009054906101000a900473ffffffffffffffffffffffffffffffffffffffff1673ffffffffffffffffffffffffffffffffffffffff166365731fe9846040518263ffffffff1660e01b815260040161172c9190612ee8565b602060405180830381865afa158015611749573d6000803e3d6000fd5b505050506040513d601f19601f8201168201806040525081019061176d919061338a565b15611a7f576000600160009054906101000a900473ffffffffffffffffffffffffffffffffffffffff1673ffffffffffffffffffffffffffffffffffffffff1663f1537686856040518263ffffffff1660e01b81526004016117cf9190612ee8565b602060405180830381865afa1580156117ec573d6000803e3d6000fd5b505050506040513d601f19601f820116820180604052508101906118109190613449565b905060036000828152602001908152602001600020600101604051806080016040529081600082018054611843906134a5565b80601f016020809104026020016040519081016040528092919081815260200182805461186f906134a5565b80156118bc5780601f10611891576101008083540402835291602001916118bc565b820191906000526020600020905b81548152906001019060200180831161189f57829003601f168201915b505050505081526020016001820180546118d5906134a5565b80601f0160208091040260200160405190810160405280929190818152602001828054611901906134a5565b801561194e5780601f106119235761010080835404028352916020019161194e565b820191906000526020600020905b81548152906001019060200180831161193157829003601f168201915b50505050508152602001600282018054611967906134a5565b80601f0160208091040260200160405190810160405280929190818152602001828054611993906134a5565b80156119e05780601f106119b5576101008083540402835291602001916119e0565b820191906000526020600020905b8154815290600101906020018083116119c357829003601f168201915b505050505081526020016003820180546119f9906134a5565b80601f0160208091040260200160405190810160405280929190818152602001828054611a25906134a5565b8015611a725780601f10611a4757610100808354040283529160200191611a72565b820191906000526020600020905b815481529060010190602001808311611a5557829003601f168201915b5050505050815250509150505b5b80915050919050565b600160009054906101000a900473ffffffffffffffffffffffffffffffffffffffff1673ffffffffffffffffffffffffffffffffffffffff166365731fe9336040518263ffffffff1660e01b8152600401611ae49190612ee8565b602060405180830381865afa158015611b01573d6000803e3d6000fd5b505050506040513d601f19601f82011682018060405250810190611b25919061338a565b611b64576040517f08c379a0000000000000000000000000000000000000000000000000000000008152600401611b5b906137ff565b60405180910390fd5b6000600160009054906101000a900473ffffffffffffffffffffffffffffffffffffffff1673ffffffffffffffffffffffffffffffffffffffff1663f1537686336040518263ffffffff1660e01b8152600401611bc19190612ee8565b602060405180830381865afa158015611bde573d6000803e3d6000fd5b505050506040513d601f19601f82011682018060405250810190611c029190613449565b9050600060036000838152602001908152602001600020600601600084815260200190815260200160002090506000600260009054906101000a900473ffffffffffffffffffffffffffffffffffffffff1673ffffffffffffffffffffffffffffffffffffffff1663f15376868360030160009054906101000a900473ffffffffffffffffffffffffffffffffffffffff166040518263ffffffff1660e01b8152600401611cb09190612ee8565b602060405180830381865afa158015611ccd573d6000803e3d6000fd5b505050506040513d601f19601f82011682018060405250810190611cf19190613449565b905060006004600083815260200190815260200160002060070160008681526020019081526020016000205490506000600460008481526020019081526020016000206006016000838152602001908152602001600020905060048460040160156101000a81548160ff02191690836004811115611d7257611d71612d39565b5b021790555060048160040160156101000a81548160ff02191690836004811115611d9f57611d9e612d39565b5b0217905550505050505050565b600160009054906101000a900473ffffffffffffffffffffffffffffffffffffffff1673ffffffffffffffffffffffffffffffffffffffff166365731fe9336040518263ffffffff1660e01b8152600401611e079190612ee8565b602060405180830381865afa158015611e24573d6000803e3d6000fd5b505050506040513d601f19601f82011682018060405250810190611e48919061338a565b611e87576040517f08c379a0000000000000000000000000000000000000000000000000000000008152600401611e7e906137ff565b60405180910390fd5b6000600160009054906101000a900473ffffffffffffffffffffffffffffffffffffffff1673ffffffffffffffffffffffffffffffffffffffff1663f1537686336040518263ffffffff1660e01b8152600401611ee49190612ee8565b602060405180830381865afa158015611f01573d6000803e3d6000fd5b505050506040513d601f19601f82011682018060405250810190611f259190613449565b9050600060036000838152602001908152602001600020600601600085815260200190815260200160002090506000600260009054906101000a900473ffffffffffffffffffffffffffffffffffffffff1673ffffffffffffffffffffffffffffffffffffffff1663f15376868360030160009054906101000a900473ffffffffffffffffffffffffffffffffffffffff166040518263ffffffff1660e01b8152600401611fd39190612ee8565b602060405180830381865afa158015611ff0573d6000803e3d6000fd5b505050506040513d601f19601f820116820180604052508101906120149190613449565b9050600060046000838152602001908152602001600020600701600087815260200190815260200160002054905060006004600084815260200190815260200160002060060160008381526020019081526020016000209050851561212c5760028460040160156101000a81548160ff0219169083600481111561209b5761209a612d39565b5b021790555060028160040160156101000a81548160ff021916908360048111156120c8576120c7612d39565b5b021790555060018460040160166101000a81548160ff021916908360048111156120f5576120f4612d39565b5b021790555060018160040160166101000a81548160ff0219169083600481111561212257612121612d39565b5b0217905550612187565b60038460040160156101000a81548160ff0219169083600481111561215457612153612d39565b5b021790555060038160040160156101000a81548160ff0219169083600481111561218157612180612d39565b5b02179055505b50505050505050565b612198612913565b600073ffffffffffffffffffffffffffffffffffffffff168173ffffffffffffffffffffffffffffffffffffffff1603612207576040517f08c379a00000000000000000000000000000000000000000000000000000000081526004016121fe90613891565b60405180910390fd5b61221081612991565b50565b600260009054906101000a900473ffffffffffffffffffffffffffffffffffffffff1673ffffffffffffffffffffffffffffffffffffffff166365731fe9336040518263ffffffff1660e01b815260040161226e9190612ee8565b602060405180830381865afa15801561228b573d6000803e3d6000fd5b505050506040513d601f19601f820116820180604052508101906122af919061338a565b6122ee576040517f08c379a00000000000000000000000000000000000000000000000000000000081526004016122e5906138fd565b60405180910390fd5b600160009054906101000a900473ffffffffffffffffffffffffffffffffffffffff1673ffffffffffffffffffffffffffffffffffffffff166365731fe9846040518263ffffffff1660e01b81526004016123499190612ee8565b602060405180830381865afa158015612366573d6000803e3d6000fd5b505050506040513d601f19601f8201168201806040525081019061238a919061338a565b6123c9576040517f08c379a00000000000000000000000000000000000000000000000000000000081526004016123c090613969565b60405180910390fd5b6000600160009054906101000a900473ffffffffffffffffffffffffffffffffffffffff1673ffffffffffffffffffffffffffffffffffffffff1663f1537686856040518263ffffffff1660e01b81526004016124269190612ee8565b602060405180830381865afa158015612443573d6000803e3d6000fd5b505050506040513d601f19601f820116820180604052508101906124679190613449565b90506000600260009054906101000a900473ffffffffffffffffffffffffffffffffffffffff1673ffffffffffffffffffffffffffffffffffffffff1663f1537686336040518263ffffffff1660e01b81526004016124c69190612ee8565b602060405180830381865afa1580156124e3573d6000803e3d6000fd5b505050506040513d601f19601f820116820180604052508101906125079190613449565b90506000604051806101000160405280600081526020018681526020018581526020013373ffffffffffffffffffffffffffffffffffffffff1681526020018773ffffffffffffffffffffffffffffffffffffffff1681526020016000151581526020016001600481111561257f5761257e612d39565b5b81526020016000600481111561259857612597612d39565b5b815250905060006004600084815260200190815260200160002090508060050160008154809291906125c9906139b8565b91905055508060050154826000018181525050818160060160008360050154815260200190815260200160002060008201518160000155602082015181600101908161261591906136e1565b506040820151816002015560608201518160030160006101000a81548173ffffffffffffffffffffffffffffffffffffffff021916908373ffffffffffffffffffffffffffffffffffffffff16021790555060808201518160040160006101000a81548173ffffffffffffffffffffffffffffffffffffffff021916908373ffffffffffffffffffffffffffffffffffffffff16021790555060a08201518160040160146101000a81548160ff02191690831515021790555060c08201518160040160156101000a81548160ff021916908360048111156126f9576126f8612d39565b5b021790555060e08201518160040160166101000a81548160ff0219169083600481111561272957612728612d39565b5b0217905550905050600060036000868152602001908152602001600020905080600501600081548092919061275d906139b8565b9190505550806005015483600001818152505082816006016000836005015481526020019081526020016000206000820151816000015560208201518160010190816127a991906136e1565b506040820151816002015560608201518160030160006101000a81548173ffffffffffffffffffffffffffffffffffffffff021916908373ffffffffffffffffffffffffffffffffffffffff16021790555060808201518160040160006101000a81548173ffffffffffffffffffffffffffffffffffffffff021916908373ffffffffffffffffffffffffffffffffffffffff16021790555060a08201518160040160146101000a81548160ff02191690831515021790555060c08201518160040160156101000a81548160ff0219169083600481111561288d5761288c612d39565b5b021790555060e08201518160040160166101000a81548160ff021916908360048111156128bd576128bc612d39565b5b021790555090505081600501548260070160008360050154815260200190815260200160002081905550806005015481600701600084600501548152602001908152602001600020819055505050505050505050565b61291b612a55565b73ffffffffffffffffffffffffffffffffffffffff16612939610fbe565b73ffffffffffffffffffffffffffffffffffffffff161461298f576040517f08c379a000000000000000000000000000000000000000000000000000000000815260040161298690613a4c565b60405180910390fd5b565b60008060009054906101000a900473ffffffffffffffffffffffffffffffffffffffff169050816000806101000a81548173ffffffffffffffffffffffffffffffffffffffff021916908373ffffffffffffffffffffffffffffffffffffffff1602179055508173ffffffffffffffffffffffffffffffffffffffff168173ffffffffffffffffffffffffffffffffffffffff167f8be0079c531659141344cd1fd0a4f28419497f9722a3daafe3b4186f6b6457e060405160405180910390a35050565b600033905090565b604051806101000160405280600081526020016060815260200160008152602001600073ffffffffffffffffffffffffffffffffffffffff168152602001600073ffffffffffffffffffffffffffffffffffffffff16815260200160001515815260200160006004811115612ad557612ad4612d39565b5b815260200160006004811115612aee57612aed612d39565b5b81525090565b6040518060800160405280606081526020016060815260200160608152602001606081525090565b6000604051905090565b600080fd5b600080fd5b6000819050919050565b612b4381612b30565b8114612b4e57600080fd5b50565b600081359050612b6081612b3a565b92915050565b60008115159050919050565b612b7b81612b66565b8114612b8657600080fd5b50565b600081359050612b9881612b72565b92915050565b60008060408385031215612bb557612bb4612b26565b5b6000612bc385828601612b51565b9250506020612bd485828601612b89565b9150509250929050565b600073ffffffffffffffffffffffffffffffffffffffff82169050919050565b6000612c0982612bde565b9050919050565b612c1981612bfe565b8114612c2457600080fd5b50565b600081359050612c3681612c10565b92915050565b60008060408385031215612c5357612c52612b26565b5b6000612c6185828601612c27565b9250506020612c7285828601612b51565b9150509250929050565b612c8581612b30565b82525050565b600081519050919050565b600082825260208201905092915050565b60005b83811015612cc5578082015181840152602081019050612caa565b60008484015250505050565b6000601f19601f8301169050919050565b6000612ced82612c8b565b612cf78185612c96565b9350612d07818560208601612ca7565b612d1081612cd1565b840191505092915050565b612d2481612bfe565b82525050565b612d3381612b66565b82525050565b7f4e487b7100000000000000000000000000000000000000000000000000000000600052602160045260246000fd5b60058110612d7957612d78612d39565b5b50565b6000819050612d8a82612d68565b919050565b6000612d9a82612d7c565b9050919050565b612daa81612d8f565b82525050565b600061010083016000830151612dc96000860182612c7c565b5060208301518482036020860152612de18282612ce2565b9150506040830151612df66040860182612c7c565b506060830151612e096060860182612d1b565b506080830151612e1c6080860182612d1b565b5060a0830151612e2f60a0860182612d2a565b5060c0830151612e4260c0860182612da1565b5060e0830151612e5560e0860182612da1565b508091505092915050565b60006020820190508181036000830152612e7a8184612db0565b905092915050565b600060208284031215612e9857612e97612b26565b5b6000612ea684828501612c27565b91505092915050565b612eb881612b30565b82525050565b6000602082019050612ed36000830184612eaf565b92915050565b612ee281612bfe565b82525050565b6000602082019050612efd6000830184612ed9565b92915050565b60028110612f1057600080fd5b50565b600081359050612f2281612f03565b92915050565b600080fd5b600080fd5b600080fd5b60008083601f840112612f4d57612f4c612f28565b5b8235905067ffffffffffffffff811115612f6a57612f69612f2d565b5b602083019150836001820283011115612f8657612f85612f32565b5b9250929050565b600080fd5b7f4e487b7100000000000000000000000000000000000000000000000000000000600052604160045260246000fd5b612fca82612cd1565b810181811067ffffffffffffffff82111715612fe957612fe8612f92565b5b80604052505050565b6000612ffc612b1c565b90506130088282612fc1565b919050565b600080fd5b600080fd5b600067ffffffffffffffff82111561303257613031612f92565b5b61303b82612cd1565b9050602081019050919050565b82818337600083830152505050565b600061306a61306584613017565b612ff2565b90508281526020810184848401111561308657613085613012565b5b613091848285613048565b509392505050565b600082601f8301126130ae576130ad612f28565b5b81356130be848260208601613057565b91505092915050565b6000608082840312156130dd576130dc612f8d565b5b6130e76080612ff2565b9050600082013567ffffffffffffffff8111156131075761310661300d565b5b61311384828501613099565b600083015250602082013567ffffffffffffffff8111156131375761313661300d565b5b61314384828501613099565b602083015250604082013567ffffffffffffffff8111156131675761316661300d565b5b61317384828501613099565b604083015250606082013567ffffffffffffffff8111156131975761319661300d565b5b6131a384828501613099565b60608301525092915050565b600080600080606085870312156131c9576131c8612b26565b5b60006131d787828801612f13565b945050602085013567ffffffffffffffff8111156131f8576131f7612b2b565b5b61320487828801612f37565b9350935050604085013567ffffffffffffffff81111561322757613226612b2b565b5b613233878288016130c7565b91505092959194509250565b6000608083016000830151848203600086015261325c8282612ce2565b915050602083015184820360208601526132768282612ce2565b915050604083015184820360408601526132908282612ce2565b915050606083015184820360608601526132aa8282612ce2565b9150508091505092915050565b600060208201905081810360008301526132d1818461323f565b905092915050565b6000602082840312156132ef576132ee612b26565b5b60006132fd84828501612b51565b91505092915050565b60008060006060848603121561331f5761331e612b26565b5b600061332d86828701612c27565b935050602084013567ffffffffffffffff81111561334e5761334d612b2b565b5b61335a86828701613099565b925050604061336b86828701612b51565b9150509250925092565b60008151905061338481612b72565b92915050565b6000602082840312156133a05761339f612b26565b5b60006133ae84828501613375565b91505092915050565b600082825260208201905092915050565b7f4f6e6c792070617469656e74732063616e206163636573732074686973000000600082015250565b60006133fe601d836133b7565b9150613409826133c8565b602082019050919050565b6000602082019050818103600083015261342d816133f1565b9050919050565b60008151905061344381612b3a565b92915050565b60006020828403121561345f5761345e612b26565b5b600061346d84828501613434565b91505092915050565b7f4e487b7100000000000000000000000000000000000000000000000000000000600052602260045260246000fd5b600060028204905060018216806134bd57607f821691505b6020821081036134d0576134cf613476565b5b50919050565b60006134e283856133b7565b93506134ef838584613048565b6134f883612cd1565b840190509392505050565b60006040820190506135186000830186612ed9565b818103602083015261352b8184866134d6565b9050949350505050565b60008190508160005260206000209050919050565b60006020601f8301049050919050565b600082821b905092915050565b6000600883026135977fffffffffffffffffffffffffffffffffffffffffffffffffffffffffffffffff8261355a565b6135a1868361355a565b95508019841693508086168417925050509392505050565b6000819050919050565b60006135de6135d96135d484612b30565b6135b9565b612b30565b9050919050565b6000819050919050565b6135f8836135c3565b61360c613604826135e5565b848454613567565b825550505050565b600090565b613621613614565b61362c8184846135ef565b505050565b5b8181101561365057613645600082613619565b600181019050613632565b5050565b601f8211156136955761366681613535565b61366f8461354a565b8101602085101561367e578190505b61369261368a8561354a565b830182613631565b50505b505050565b600082821c905092915050565b60006136b86000198460080261369a565b1980831691505092915050565b60006136d183836136a7565b9150826002028217905092915050565b6136ea82612c8b565b67ffffffffffffffff81111561370357613702612f92565b5b61370d82546134a5565b613718828285613654565b600060209050601f83116001811461374b5760008415613739578287015190505b61374385826136c5565b8655506137ab565b601f19841661375986613535565b60005b828110156137815784890151825560018201915060208501945060208101905061375c565b8683101561379e578489015161379a601f8916826136a7565b8355505b6001600288020188555050505b505050505050565b7f416363657373206973206f6e6c7920666f7220646f63746f7273000000000000600082015250565b60006137e9601a836133b7565b91506137f4826137b3565b602082019050919050565b60006020820190508181036000830152613818816137dc565b9050919050565b7f4f776e61626c653a206e6577206f776e657220697320746865207a65726f206160008201527f6464726573730000000000000000000000000000000000000000000000000000602082015250565b600061387b6026836133b7565b91506138868261381f565b604082019050919050565b600060208201905081810360008301526138aa8161386e565b9050919050565b7f4f6e6c792050617469656e74732063616e206163636573732074686973000000600082015250565b60006138e7601d836133b7565b91506138f2826138b1565b602082019050919050565b60006020820190508181036000830152613916816138da565b9050919050565b7f41646472657373206973206e6f74206120646f63746f72000000000000000000600082015250565b60006139536017836133b7565b915061395e8261391d565b602082019050919050565b6000602082019050818103600083015261398281613946565b9050919050565b7f4e487b7100000000000000000000000000000000000000000000000000000000600052601160045260246000fd5b60006139c382612b30565b91507fffffffffffffffffffffffffffffffffffffffffffffffffffffffffffffffff82036139f5576139f4613989565b5b600182019050919050565b7f4f776e61626c653a2063616c6c6572206973206e6f7420746865206f776e6572600082015250565b6000613a366020836133b7565b9150613a4182613a00565b602082019050919050565b60006020820190508181036000830152613a6581613a29565b905091905056fea264697066735822122017149fb5e46e40438624c92227f852003ce7ee1f0f5c4f6decb6b47870117ea664736f6c63430008110033",
  "linkReferences": {},
  "deployedLinkReferences": {}
}